:020000040800F2
:100000002025002045010008A13B0008E524000848
:100010009D3B0008D119000849520008000000006B
:10002000000000000000000000000000E34800089D
:100030005D1C00080000000095450008F549000817
:100040005F0100085F0100085F0100085F01000810
:100050005F0100085F010008611C00085F010008E3
:100060005F0100085F0100085F0100085F010008F0
:100070005F0100085F0100085F0100085F010008E0
:100080005F0100085F0100085F0100085F010008D0
:100090005F0100085F0100085F0100085F010008C0
:1000A0005F0100085F0100085F0100085F010008B0
:1000B0005F0100085F0100085F0100085F010008A0
:1000C0005F0100085F0100085F0100085F01000890
:1000D0005F010008D94D0008614E0008394F000843
:1000E0007D1C00085F0100085F0100085F01000837
:1000F0005F0100085F0100085F0100085F01000860
:100100005F0100085F0100085F0100085F0100084F
:10011000D14B0008294D00085F010008594A00082A
:100120005F0100085F0100085F0100085F0100082F
:10013000DFF80CD000F0F8FD00480047E15E000851
:10014000202500200648804706480047FEE7FEE7D6
:10015000FEE7FEE7FEE7FEE7FEE7FEE7FEE7FEE777
:10016000F94900083101000840EA01039B0703D068
:1001700009E008C9121F08C0042AFAD203E011F8E6
:10018000013B00F8013B521EF9D27047D2B201E0A8
:1001900000F8012B491EFBD270470022F6E710B58C
:1001A00013460A4604461946FFF7F0FF204610BDE5
:1001B00030B505462A460B4612F8010B13F8014BE1
:1001C00008B1A042F8D01CB1002802D06D1CF1E7A4
:1001D000284630BD10B5044604E00B7800F8013B1A
:1001E00003B1491C521EF8D2204610BDCAB2401EAF
:1001F00010F8011F8A4202D00029F9D1002070476F
:1002000010B5002200E0521C835C8C5CA34201D13B
:10021000002BF8D1D8B2E1B2401A10BD0FB400B52E
:100220008DB010A909900B9000914FF0FF300A900B
:1002300000200C9005480690054807906A4609A8DA
:100240000F9900F049FC0DB05DF814FBF50A0008A9
:10025000130B00082DE9FF5FD2E901A74FF000085A
:10026000916999461446DDF838B0464601988847AA
:10027000054659EA0B0005D009E0A169761C0198F2
:1002800088470546216A284688470028F5D1681C1A
:1002900003D05FEACA7005D015E04FF0FF3004B01C
:1002A000BDE8F09F2068011D2160D0F800800AE0C1
:1002B0005FEACA7001D108F8015BA169761C7F1E54
:1002C000019888470546002F1ADD681C18D0B9F13F
:1002D000000F0DD0E81705EBD060421120F01F0091
:1002E00059F822102A1A012090400142E0D107E07B
:1002F000BBF1000FDCD1216A284688470028D7D0FF
:10030000E16901988847BBF1000F07D1002E05DD98
:100310005FEACA7002D1002188F80010A068B842D4
:1003200003DDBBF1000F03D017B16FF00100B6E79A
:100330003046B4E7F0B480EA0102D40F4200B2EBD9
:10034000410F02D20246084611464A0042D0C30D70
:10035000DDB2C1F3C752AD1A202D35DAC1F3160153
:1003600041F4000204B15242C5F1200602FA06F13E
:100370002A411044B3EBD05F23D0C4B1012DA0EBD0
:10038000C35009DCF0BC4FF0004202EAC352DBB2BA
:1003900000F5000000F025BC400000F1807000EB8B
:1003A000C350A0F1807040EAD170490009E04908CB
:1003B00041EAC071A0EBC35000F50000400800EB1B
:1003C000C350F0BC00F004BC6142012202EB4101C9
:1003D000001BF6E7F0BC704781F00041AAE780F00F
:1003E0000040A7E780EA010210B502F00043400098
:1003F00022D04A001FD0010E01EB1261C0F356005B
:10040000C2F3560240F4000042F40002A0FB0220B6
:1004100000047F39140400D0401C50EA124001D47B
:100420004000491EC2B20C0604EBD010401C40082C
:10043000802A02D003E0002010BD20F00100002936
:1004400000DA0020184310BD30B480EA010202F047
:10045000004530F0004221F0004013D090B1C30DB0
:10046000D40DC2F31601C0F31600E41A41F40001E2
:1004700040F400027D34914201D3641C00E0490045
:10048000002C02DA30BC002070474FF4000000233B
:10049000914201D3891A034340084FEA4101F7D141
:1004A00051B1914202D14FF0004105E002D24FF02C
:1004B000010101E06FF0010103EBC450284430BC9E
:1004C00000F086BB2DE9FE4F804681EA0300C00F95
:1004D0000C46009021F0004123F00045B8EB0200EB
:1004E000A94105D24046214690461C460B4602468D
:1004F00023F00040104347D0270DC7F30A00C3F391
:100500000A510290401A019040286BDAC3F313009D
:1005100040F4801B0098924620B10023D2EB030ADE
:1005200063EB0B0B01985946C0F14002504600F0B6
:100530009CFA06460D4650465946019A00F0B4FA18
:1005400010EB08006141002487EA115284EAE77346
:100550001A4340D0009A62B3019A012A4FEA075227
:1005600015DC001B61EB02014FF0004202EA07526A
:10057000CDE90042001C41F5801132462B4600F0C7
:100580006DFB03B0BDE8F08F40462146F9E7001B44
:1005900061EB0201001C41F5801300185B4120183B
:1005A000A2F5001747EB030140EAD570B6196D417B
:1005B00011E06D084FEA360645EAC0754FEA07526A
:1005C000001B61EB0201001C41F5801149084FEA54
:1005D00030000019514132462B4603B0BDE8F04FC0
:1005E00000F02DBB0098012240000023D0EB020256
:1005F00063EBE073009821464FEAE074B8EB00002B
:1006000061EB0401E9E783F000435BE781F000411F
:1006100058E72DE9FE4F81EA030404F0004421F07D
:10062000004100944FF0000B23F0004350EA010416
:100630005ED052EA03045BD0C3F30A54C1F30A55F7
:100640002C44A4F2F3340194A0FB0254C1F313012F
:1006500041F48011C3F3130343F4801301FB0244FC
:1006600000FB034E840A970A44EA815447EA835701
:10067000A4FB076802958D0A05FB07854FEA932CBA
:1006800004FB0C542705029D4FEA065847EA16372B
:10069000B5EB08056EEB070C870E920E47EA811743
:1006A00042EA8312A7FB0201B6EB0B0164EB0004E4
:1006B0002B0D43EA0C335E1844EB1C50DA465146CE
:1006C000E7FB0201C5F313044FEA0B3343EA14536B
:1006D0004FEA0432019C43EA0603A4F10C0402949D
:1006E000009CCDE900B400F0B9FA03B0BDE8F08F8A
:1006F00000200146F9E72DE9F04D81EA030404F0FA
:10070000004B21F0004514464FF0000A23F0004151
:1007100050EA050220D054EA01021DD0C5F30A5761
:100720000246C5F31303C1F31300C1F30A5640F4A4
:10073000801543F48013A7EB0608101BD64608F279
:10074000FD3873EB050002D308F1010801E09218AF
:100750005B41B8F1000F03DA00200146BDE8F08DDF
:1007600000204FF48011064684460EE0171B73EB01
:10077000050705D3121B63EB050306434CEA010C86
:1007800049084FEA300092185B4150EA0107EDD169
:1007900052EA030012D082EA040083EA050108430A
:1007A00005D0101BAB4106D20122002306E0002237
:1007B0004FF0004302E06FF0010253101AEB060005
:1007C0004CEB085110EB0A0041EB0B01BDE8F04D7A
:1007D00000F035BAC10F80EAE0700844CA079623DA
:1007E000002100F0FEB996230022114600F0F9B96D
:1007F0000EB5C10F80EAE0700844CA07002140F23C
:1008000033438DE80E000A460B4600F027FA03B08A
:1008100000BD0EB540F2334202920022CDE9002223
:10082000134600F01BFA03B000BD00F0004220F0B8
:100830000040C10DC0F3160040F400007F2901DA2A
:1008400000207047962903DCC1F19601C84001E001
:1008500096398840002AF4D04042704720F000408A
:10086000C10DC0F3160040F400007F2901DA00201A
:100870007047962903DCC1F19601C840704796394C
:100880008840704770B5C1F30A5201F0004500245A
:10089000C1F3130140F2FF3341F480119A4201DAAF
:1008A000002070BD40F233439A42A2F2334203DC8F
:1008B000524200F0E9F800E090402C43F1D0404271
:1008C00070BDC1F30A5210B5C1F3130140F2FF33FA
:1008D00041F480119A4201DA002010BD40F2334306
:1008E0009A42A2F2334203DC524200F0CDF810BD2E
:1008F000904010BDC1F30A52C1F3130140F2FF331F
:1009000041F480119A4202DA00200146704740F219
:1009100033439A42A2F2334202DC524200F0B4B8AE
:1009200000F0A3B800F0004230F000400AD0C10D42
:1009300001F56071C0F3160042EA0151C208400798
:1009400011437047002001467047000030B5041E77
:1009500071F1000404DB4FF00044404264EB0101FC
:10096000141E73F1000405DB1C464FF00043524295
:1009700063EB0403994208BF904230BD01F000438D
:1009800030B421F0004150EA010206D00A0DA2F570
:100990006072C1F31301002A02DC30BC00207047F2
:1009A000440F44EAC104C100E01830BC00EBC2505F
:1009B00000F00EB9002801DBC0F10040002901DB86
:1009C000C1F1004181427047002801DBC0F10040C5
:1009D000002901DBC1F100418842704730B50B4668
:1009E000014600202022012409E021FA02F59D425F
:1009F00005D303FA02F5491B04FA02F52844151E33
:100A0000A2F10102F1DC30BD2DE9F05F05460020C6
:100A100092469B4688460646814640241BE028466F
:100A200041464746224600F02FF853465A46C01A20
:100A3000914110D311461846224600F016F82D1A9F
:100A400067EB01084F4622460120002100F00DF817
:100A500017EB00094E41201EA4F10104DFDC4846DB
:100A600031462A464346BDE8F09F202A04DB203A5F
:100A700000FA02F1002070479140C2F1200320FAF1
:100A800003F3194390407047202A04DB203A21FAEF
:100A900002F00021704721FA02F3D040C2F1200297
:100AA0009140084319467047202A06DBCB17203AAD
:100AB00041FA02F043EAE07306E041FA02F3D04063
:100AC000C2F1200291400843194670470268114460
:100AD0001378016018467047D16004495161044998
:100AE000116200211161114600F036B9CD0A0008EB
:100AF0004D0D0008426842B1016811F8013B23B175
:100B0000521EC0E90012184670470121C160881EBC
:100B1000704742685AB1C368016843B983688B4221
:100B200005D0491E521CC0E90012002070474FF04A
:100B3000FF3070470FB4002300B589B00CA90091B5
:100B40000B996FF00042CB601E4B06931E4B079330
:100B50000423CDE901321D4A089202466B4600206B
:100B600000F024FB09B05DF814FB70B586B00646B2
:100B70004FF0FF300091CDE90101002015460C46F1
:100B800004903246694604A8FFF7D4FF0246049851
:100B9000211825B108B1084600E0204628600498D5
:100BA00000280DD0002A02DD0098884208D0081BDA
:100BB0000094CDE901043246694604A8FFF7BAFF64
:100BC00006B070BDF50A0008130B00084D0D0008B3
:100BD0000029A8BF7047401C490008BF20F0010051
:100BE000704710B4B0FA80FC00FA0CF050EA01042F
:100BF00004BF10BC704749B1CCF1200421FA04F4C1
:100C000011FA0CF118BF012121430843A3EB0C0199
:100C1000CB1D4FEA00614FEA102042BF002010BCFC
:100C2000704700EBC35010440029A4BF10BC7047AC
:100C3000401C490008BF20F0010010BC704710B5EF
:100C4000141E73F1000408DA401C41F100019218EF
:100C50005B411A4301D120F0010010BD2DE9F04D98
:100C600092469B4611B1B1FA81F202E0B0FA80F2ED
:100C700020329046FFF7F9FE04460F4640EA0A008C
:100C800041EA0B0153465A46084313D0114653EA32
:100C9000010019D0C8F140025046FFF7F5FE0546A5
:100CA0000E46504659464246FFF7DFFE084305D040
:100CB000012004E020463946BDE8F08D00200543C0
:100CC00046EAE0762C4337430A986305E40AA0EB32
:100CD00008000022FD0A44EA47540A3002D50020E9
:100CE0000146E9E7010510196941DDE908450019E8
:100CF0006941BDE8F04DA2E770B521F00043034320
:100D00000CD0C1F30A550024D5EB040564EB0403B1
:100D1000D617AD1AB34102DB0020014670BD201882
:100D200041EB025170BD0000064C074D06E0E06843
:100D300040F0010394E8070098471034AC42F6D322
:100D4000FFF7FAF9D07B0008F07B0008C0B24FF43F
:100D5000F05100F099BB00002DE9F34F8BB04FF03C
:100D6000000801F10C000C464FF0010B46460DF156
:100D7000080A01906269012101989047051E2DD053
:100D8000252D2CD0216A8847C0B1626901210198C4
:100D90009047216A88470028F7D1411E626901986F
:100DA000904700E0761CA1690B988847216A884724
:100DB0000028F7D1E1690B988847DBE7A1690B9818
:100DC00088470746A84201D1761CD3E7E1690B9812
:100DD00088477F1C02D1B8F1000F6FD046E1002791
:100DE00062693D463946019890472A2804D16269D4
:100DF0000121019890470125DFF884926269012161
:100E000001989047A0F130010A290AD24F45E5DC4C
:100E100007EB870100EB4107303FDFD445F01005B9
:100E2000ECE7E90601D46FF000476C280AD04C28A3
:100E300014D0682815D06A280DD074281CD07A28C0
:100E40001AD01DE062690121019890476C2802D0F8
:100E500045F0040514E045F002050DE045F02005DD
:100E60000AE06269012101989047682802D045F0A4
:100E7000080505E045F40065626901210198904785
:100E8000C4E9015765283DD019DC58287AD00CDC1C
:100E9000452837D004DC252826D0412831D131E03F
:100EA00046282FD047282CD12CE05B2877D061280A
:100EB00028D063287CD0642823D15AE0D0E06F2862
:100EC00048D008DC66281DD067281BD0692821D0AF
:100ED0006E2816D127E0702845D0732868D0752871
:100EE00047D078280DD14DE0A1690B988847054679
:100EF00025283FF469AFE1690B9888476D1C3FF4E2
:100F00006AAFB3E023466A466FF001000B9900F028
:100F10004DF99EE045F040006060A80723464FF081
:100F2000000236D43EE0E8077FF447AF2068011D99
:100F300021600068290501D506701BE7290701D546
:100F4000068017E7A90703D5F117C0E9006111E78B
:100F500006600FE745F040006060A80723464FF0A9
:100F6000080216D41EE040F60E0125EA010060607A
:100F700016E045F040006060A80723464FF00A02E3
:100F800007D40FE045F040006060A80708D523466D
:100F900010226FF001000B99AFF3008059E007E0D9
:100FA000234610226FF001000B99AFF3008050E050
:100FB0004FF000094F464B46632802D05B2806D00D
:100FC00040E0E80601D40120A06001273AE0626910
:100FD0000121019890475E2805D14FF0010962690F
:100FE000494601989047216939B900210A4653467C
:100FF00043F82120491C0829FADBB0B3216969B9FB
:10100000C11700EBD16253110AEB830122F01F02DA
:10101000821A01200B68904003430B606269012132
:10102000019890475D28E8D1B9F1000F09D0002060
:10103000514651F82020D24341F82020401C082876
:10104000F7DB02AB224600976FF001000B99FFF728
:1010500001F900280CDA401C08D1BBF1000F05D0C3
:101060004FF0FF300DB0BDE8F08FFFE74046F9E7E5
:10107000E90701D108F1010806444FF0000B79E6B9
:10108000CCCCCC0C2DE9FF4F087883B09946FF28D3
:1010900005D0491C2D2804D00024002008E00020A1
:1010A0000BE00124F9E700EB800003EB4000491C52
:1010B0000B78FF2BF7D104B1404200230293147840
:1010C00019461D462D2C01D02B2C04D1521C2D2C41
:1010D00013D000240294AA461478FF2C0FD00A25BE
:1010E000A3FB057801FB05814FF0000C03FB0C11FD
:1010F000521CE3194AEB0101EEE70124EAE78144BF
:1011000053EA010002D019F5C87F06DA03980021DE
:10111000C0E9001107B0BDE8F08F0025AE4E2F46A4
:10112000DFF8B8821846FFF774FBCDE90001B9F18A
:10113000000002DAC9F1000400E004460023A74AD7
:101140001AEB030B42EB045A12E0E00707D02A46E1
:10115000334638464146FFF75CFA074688462A463A
:10116000334610461946FFF754FA05460E466410FA
:10117000002CEAD1DDE90001B9F1000F5A465346CF
:1011800006DAFFF7B8FA3A464346FFF7B4FA05E045
:10119000FFF73FFA3A464346FFF73BFA029A0AB195
:1011A00081F00041039AC2E90001B3E72DE9FF4F46
:1011B0001F468DB0D7E901464FF0FF382E20454637
:1011C0004FF000090B90B9696D1C0E988847396A79
:1011D000824688470028F6D1BAF1FF3F0AD024F4AE
:1011E000D064002E11DDBAF12B0F08D0BAF12D0F0B
:1011F0000BD102E0404611B08DE744F48064B96938
:101200006D1C0E9888478246761E6946600501D59A
:101210002D2000E02B208DF8000001F1010B0DF1D5
:10122000200809E0B9696D1C0E98884782460F981E
:1012300044F40074761E0560002E02DDBAF1300F12
:10124000F0D00B998A453ED144F0800406E00F9916
:10125000681CA9F1010944F400740860B9696D1CA7
:10126000761E0E98884782463028F0D02BE00B99E6
:101270008A4505D1200603D444F08004761E18E088
:10128000504604F06FF908B30DF11301761E44F4D3
:1012900000748B4508D2AAF130000BF8010B200630
:1012A00007D5A9F1010003E0200602D409F10100ED
:1012B0008146A00502D50F99681C0860B9696D1CAC
:1012C0000E9888478246002ED1DC53E0002E51DD77
:1012D000BAF1650F02D0BAF1450F4BD1A00549D53F
:1012E000B9696D1C24F44074761E0E9888478246B6
:1012F000002E0CDD2B2804D0BAF12D0F07D144F4B9
:101300008074B9696D1C0E9888478246761EE00588
:1013100001D52D2100E02B2108F8011BCDF82C80F0
:1013200021E00DF12901761E44F4007488450CD2A9
:10133000AAF1300010F0FF0088F8000002D10B99EC
:10134000884509D908F1010806E0E00501D52448DF
:1013500001E042F20F708146B9696D1C0E98884712
:1013600082460F980560002E04DD504604F0FAF81E
:101370000028D6D1F9690E988847FF208BF8000025
:1013800088F800000020069007904B466A4608A99E
:1013900006A8FFF777FEA00502D46FF001002AE748
:1013A00014F0240F0AD0E00714D1DDE906123868E2
:1013B000031D3B600068C0E900120BE0DDE9060197
:1013C000FFF7DCFA0146E00704D13868021D3A60F5
:1013D0000068016028460EE7000014400000F03F5E
:1013E000F1D8FFFF2DE9F04D00231A461B1A8A4160
:1013F00003DB00200146BDE8F08DC1F30A52C1F3C2
:10140000130141F480154FF0000BD10702D10018F1
:101410006D41521E0027044640F2FF11384601EB91
:10142000620A3E468046024600204FF48011FFF7D4
:101430002BFBC2197141BB1846EB0100B4EB030C46
:1014400075EB000C04D3E41A65EB000517460E4655
:10145000241908F101006D4180463428E3DDF919B3
:1014600046EB0600091BA84103D24FF0FF3213469A
:1014700001E0002213461BEB070046EB0A51BDE8D2
:10148000F04DFFF7DCBB00007F2801D9002208E007
:10149000064A02EB5002C007127800D1120902F08E
:1014A0000F02012090400840704700008876000835
:1014B00070B58C1810F8015B15F0070301D110F816
:1014C000013B2A1106D110F8012B03E010F8016B43
:1014D00001F8016B5B1EF9D12B0705D40023521EC6
:1014E0000DD401F8013BFAE710F8013BCB1A921C2E
:1014F00003E013F8015B01F8015B521EF9D5A1422C
:10150000D8D3002070BDCA430260704721B1826801
:1015100042F00102826003E0826822F001028260F0
:101520007047000010B504461248844208D10121DA
:10153000401503F06DF80021601503F069F817E01D
:101540000D48844208D10121001503F061F8002103
:10155000201503F05DF80BE00848844208D1012112
:10156000C80303F055F800214FF4004003F050F891
:1015700010BD00000024014000280140003C014053
:10158000014600208A6802F004020AB1012000E04E
:10159000002070470146C86C80B2704702460020A8
:1015A00013680B400BB1012000E00020704701469A
:1015B00000208A6802F008020AB1012000E0002041
:1015C0007047000030B502460020002350680F4CE1
:1015D00020400D790C6844EA05242043506090684F
:1015E0000B4C2040D1E902542C434D7944EA450488
:1015F00020439060D06A20F470000C7C641EE4B23A
:10160000234340EA0350D06230BD0000FFFEF0FFEC
:10161000FDF7F1FFF0B504460D4600200021092D2D
:1016200011DDE068A5F10A0606EB4607072606FA73
:1016300007F18843A5F10A0606EB460603FA06F110
:101640000843E0600CE0206905EB4507072606FA31
:1016500007F1884305EB450603FA06F108432061CC
:10166000072A0FDA606B561E06EB86071F2606FA5E
:1016700007F18843561E06EB860605FA06F1084375
:10168000606322E00D2A0FDA206BD61F06EB860777
:101690001F2606FA07F18843D61F06EB860605FAD1
:1016A00006F10843206310E0E06AA2F10D0606EBA4
:1016B00086071F2606FA07F18843A2F10D0606EBFE
:1016C000860605FA06F10843E062F0BD816841F044
:1016D00008018160704721B1826842F4A0028260F3
:1016E00003E0826822F4A00282607047816841F0C2
:1016F00004018160704700002DE9F04F89B04FF080
:10170000000A4FF0060B9249D1E90E4500BF52E0A6
:10171000CAF10A00FFF76CF802460B46CDE9020158
:1017200000208C4904F00CFCCDE906012046294636
:10173000FFF76FF8CDE90401DDE90623FEF7DBFFD3
:1017400080460022844BFEF7BDFE0646FFF7B9F83F
:10175000824901F80A00CAF10A00FFF749F8064673
:1017600032460B4600207B4904F0EAFBCDE902013A
:101770007A4911F80A10A1F13000FFF739F8CDE9E4
:101780000001DDE90223FEF744FF8046894620463A
:101790002946FFF73EF842464B46CDE90401FEF7E5
:1017A00032FFCDE90601FFF7A5F804460D460AF120
:1017B000010000F0FF0ABAF10B0FA9DB684880783E
:1017C000002840D067488078012807D06548C07855
:1017D000012803D063484078012834D161488078DB
:1017E00001280DD100205F4988705FA15B4802F09D
:1017F00091F84FF4FA7004F00DFB00F079F922E053
:101800005848C07801280DD100205649C8705FA102
:10181000524802F07FF84FF4FA7004F0FBFA00F03F
:1018200067F910E04F48407801280CD100204D495D
:1018300048705EA1494802F06DF84FF4FA7004F068
:10184000E9FA00F055F946484078002850D045485C
:101850008078012807D04348C078012803D0414848
:101860004078012832D13F48807801280CD10020EF
:101870003C4988704FF48071534800F071FD01219C
:10188000524800F06FFD33E03648C07801280CD193
:1018900000203449C8704FF480714B4800F060FD5F
:1018A00001214A4800F05EFD22E02E4840780128E0
:1018B0001ED100202B4948704FF48071424800F03F
:1018C0004FFD0121414800F04DFD11E02548807891
:1018D00070B92448C07858B92248407840B94FF4CC
:1018E0008071394800F03EFD0121384800F038FD94
:1018F0001B48007948B31B488078012803D0194859
:10190000C078012817D117488078012807D1002016
:101910001449887002212D4800F024FD15E011487B
:10192000C078012811D100200E49C8700221274833
:1019300000F018FD09E00B48807830B90948C078FC
:1019400018B90221214800F00BFD09B0BDE8F08F65
:10195000E800002000002440000048404201002030
:1019600040000020280000205468657265206973DB
:1019700020616E206F70656E20666C616D652069F8
:101980006E2074686520726F6F6D0000536D6F6B11
:1019900065206F7220676173206C65616B732069CD
:1019A0006E2074686520686F6D650000546865205E
:1019B000686F7573652077617320747265737061E9
:1019C000737365640000000000080140000C0140D2
:1019D00000BFFEE72DE9F04104460D460821202016
:1019E00002F004FF02F0DEFE0646370C1FFA86F80E
:1019F0002760C5F80080BDE8F08100002DE9F04FB8
:101A000087B082468B4600200590049004AA05A961
:101A1000442002F009FFBDF81400FEF7E4FE019037
:101A2000FEF780FF064600222A4BFEF7F2FD002259
:101A3000294BCDE90201FEF75EFE04460022274B4A
:101A4000FEF7E1FD8046FEF799FFCAF80000BDF8F9
:101A50001000FEF7C8FE0390FEF764FF80460022E8
:101A60001F4BFEF7D6FD064600221B4BFEF743FE3A
:101A70000446FEF783FFCBF800001A49DAF80000AD
:101A8000FEF7A2FF1AD81849DAF80000FEF792FF15
:101A900014D80021DBF80000FEF796FF0ED813499A
:101AA000DBF80000FEF786FF08D8DAF80000CAF875
:101AB0000000DBF80000CBF8000004E00020CAF8CA
:101AC0000000CBF8000000200490059007B0BDE8AE
:101AD000F08F000000E06540E0FFEF4000804640EE
:101AE000000059400000A0C10000FA420000C842B6
:101AF00010B5094803F094FB002404E000200649D7
:101B00000855601C84B2B4F5A56FF7DD00200349C9
:101B1000088000F0CFFF10BDCF1B00202402002062
:101B200010B5002404E0002006490855601C84B26A
:101B3000B4F5A56FF7DD00200349088000F0BAFF77
:101B400010BD0000CF1B00202402002070B500242F
:101B50002BE04FF40071164800F004FC4FF48C7039
:101B600004F08AF901211348FFF7B5FD00BF0221F7
:101B70001048FFF713FD0128F9D10E48FFF70AFDC1
:101B8000054600F0DFFA02210A48FFF7BCFC1320EB
:101B900004F072F94FF40071054800F0E1FB42F2E5
:101BA000D05004F069F9601CC4B2142CD1DB70BDB4
:101BB000001001400028014026480078F4283FD159
:101BC00024484078F3283BD122488078F22837D146
:101BD0002048C078F12833D11E48C079AA2826D1E0
:101BE0001C48407C552822D11A48007A1A490870AE
:101BF0001848407A1749897A00EB01201649487045
:101C00001448C07A88701348007B1249497B00EB66
:101C100001201149C8700F48807B08710D48C07BB6
:101C20000C49097C00EB01200B49487110E00020B1
:101C30000949087048708870C8700871487107E0D9
:101C400000200549087048708870C8700871487194
:101C500070470000BC0B0020BE0F00207047000042
:101C600010B5012000F020F820B1012002490870D1
:101C700000F014F810BD00005501002010B54FF41D
:101C8000005000F011F828B101200349087040030A
:101C900000F004F810BD0000560100200149086062
:101CA0007047000014040140014600200022074B49
:101CB0001B6803EA0102054B14331B680B4013B188
:101CC0000AB1012000E0002070470000000401403C
:101CD000002123498279002A3AD00A461268036813
:101CE0009A430B461A600A1D126803689A430B1D3B
:101CF0001A60027911440A6803681A430A60184A94
:101D00000832126803689A43154B08331A601A1D8B
:101D1000126803689A43124B0C331A604279102AF6
:101D20000ED11A1F126803681A430D4B08331A604C
:101D30001A1D126803681A43094B0C331A600DE030
:101D40000749427911440A6803681A430A6005E0AA
:101D5000027911440A6803689A430A6070470000D8
:101D6000000401400EB50121052002F041FC0121D3
:101D7000112002F03DFC01F014FF0120ADF8080035
:101D800004208DF80B0002A9194800F055FA002133
:101D9000084600F031FA0120009000208DF8040080
:101DA00008208DF8050001208DF806006846FFF731
:101DB0008FFF4FF40050ADF8080004208DF80B00A1
:101DC00002A90C4800F038FA0D21022000F014FAA4
:101DD0004FF40050009000208DF804000C208DF886
:101DE000050001208DF806006846FFF771FF0EBD63
:101DF000000801400010014010B500F003F800F0A9
:101E00006BF810BD08B50121102002F0F1FB022093
:101E1000ADF8000000208DF8030003208DF80200CB
:101E20006946024800F008FA08BD000000100140B1
:101E30002DE9F05F14210B2000F036F80446FEF780
:101E4000D2FC82465046FEF76DFD80460022074BCD
:101E5000FEF751FC06460022054BFEF7DAFB04466E
:101E6000FEF78CFD83465846BDE8F09F0000B04069
:101E700000C8A94010B5044607230122214609489D
:101E8000FFF7C8FB01210748FFF725FC00BF02212F
:101E90000448FFF783FB0028F9D00248FFF77AFBDC
:101EA00010BD0000003C01402DE9F04107460C4602
:101EB0000025002608E03846FFF7DCFF0544052032
:101EC00003F0A8FF701CC6B2A642F4DBB5FBF4F029
:101ED00080B2BDE8F081000000B585B00121C803E3
:101EE00002F086FB002000908DF804008DF80500BC
:101EF0004FF4602002900020039001208DF8100024
:101F000069461248FFF75EFB4FF4404002F044FB85
:101F1000052301220B210D48FFF77CFB01210B4813
:101F2000FFF7F4FA0948FFF7D1FB00BF0748FFF7B6
:101F30003EFB0028FAD10548FFF7D8FB00BF034855
:101F4000FFF71EFB0028FAD105B000BD003C0140A0
:101F500010B501F07DFD21494861FFF769FF1F4978
:101F600088611F480078087788691E49FEF72CFDB4
:101F700004D201201C498870887403E000201A49AB
:101F800088708874154948691849FEF71DFD04D208
:101F900001201549C870C87403E000201249C870B8
:101FA000C8740E48007F012807D00C48007F022823
:101FB00003D00A48007F032804D101200A49087091
:101FC000087406E00548007F18B90020064908702B
:101FD00008740548007800B100BF10BD98090020C2
:101FE000BE0F00200000C842280000200000484228
:101FF00010B5FFF795FD01F0E5F901F02DFBFFF7B6
:102000008FFD10BD10B50A49081FFFF7E3FC084912
:102010000C39081FFFF7F2FC00F0AAF80449103948
:1020200088600448407808620248C078486210BD61
:10203000A8090020BE0F002010B500F05BF800F0EA
:102040009FF810BD2DE9F04F87B00025002405E072
:10205000214830F814000544601CC4B2142CF7DB8E
:102060002846FEF7C0FB83461C49FEF7EDF9824681
:10207000FEF758FC00221A4BCDE90201FEF73BFBAC
:1020800007460022174BFEF7C4FACDE90401FEF71C
:1020900075FC06463046FEF745FC07460022124B0B
:1020A000FEF729FB114A124BCDE90001FEF7B1FA08
:1020B00000221346CDE90201FEF7A5FA824600226E
:1020C000094BFEF7A6FACDE90401FEF757FC81465D
:1020D000484607B0BDE8F08FF82000200000A0417E
:1020E0000000B04000C8A94000408F40C74B37896E
:1020F0004160C53F08B50121102002F079FA08209F
:10210000ADF8000000208DF8030003208DF80200D8
:1021100069460B4800F090F84FF40070ADF80000ED
:1021200010208DF8030003208DF802006946044852
:1021300000F082F84FF40071014800F011F908BD79
:10214000001001400849094A127821F81200074995
:102150000978491C054A117011460978142901D1E2
:102160000021117070470000F82000202602002096
:1021700010B5FFF7EBFCFFF765FF0446204610BDE6
:1021800000B585B00121880202F032FA00200090EB
:102190008DF804008DF805004FF4602002900020B7
:1021A000039001208DF8100069461248FFF70AFAE3
:1021B0004FF4404002F0F0F9052301220D210D48B3
:1021C000FFF728FA01210B48FFF7A0F90948FFF7AC
:1021D0007DFA00BF0748FFF7EAF90028FAD1054861
:1021E000FFF784FA00BF0348FFF7CAF90028FAD1C5
:1021F00005B000BD0028014030B500228B071C0F40
:102200000F2303FA04F20B4B8C1053F82430934342
:10221000084C8D1044F8253023468C1053F8243098
:102220008C07240F00FA04F42343024C8D1044F869
:10223000253030BD080001402DE9F041024600255F
:102240000026002000230024002791F803C00CF092
:102250000F0591F803C00CF0100CBCF1000F03D077
:1022600091F802C04CEA050591F800C0BCF1000FDE
:1022700031D0146800202BE04FF0010C0CFA00F371
:10228000B1F800C00CEA03069E4220D183004FF053
:102290000F0C0CFA03F7BC4305FA03FC4CEA0404E8
:1022A00091F803C0BCF1280F06D14FF0010C0CFAD5
:1022B00000FCC2F814C00AE091F803C0BCF1480F5A
:1022C00005D14FF0010C0CFA00FCC2F810C0401C04
:1022D0000828D1D31460B1F800C0BCF1FF0F34DD81
:1022E000546800202EE000F1080C4FF0010808FAB5
:1022F0000CF3B1F800C00CEA03069E4221D1830022
:102300004FF00F0C0CFA03F7BC4305FA03FC4CEA40
:10231000040491F803C0BCF1280F05D100F1080CAA
:1023200008FA0CF8C2F8148091F803C0BCF1480F09
:1023300007D100F1080C4FF0010808FA0CF8C2F8B8
:102340001080401C0828CED35460BDE8F0810246BE
:10235000002093680B400BB1012000E00020704783
:10236000416170470161704710B50446072301229F
:1023700021460948FFF74EF901210748FFF7ABF95D
:1023800000BF02210448FFF709F90028F9D00248EC
:10239000FFF700F910BD0000002401402DE9F041D5
:1023A00007460C460025002608E03846FFF7DCFF0C
:1023B0000544052003F02EFD701CC6B2A642F4DBD6
:1023C000B5FBF4F080B2BDE8F081000010B5322119
:1023D0000B48FDF7E2FE32210A48FDF7DEFE002041
:1023E00007498886074988860C200749087000201D
:1023F00048708870C8700871C8718871487110BDC4
:102400003016002066160020D801002010B50446C2
:10241000EF2C03D02F480078012859D101202D49F5
:1024200008702D48818E2D480078401E81422AD0A8
:102430002948808E28490C540846808E401C888686
:102440000846007A012817D00846007A062813D0DB
:102450000846007A07280FD00846007A08280BD0D3
:102460000846007A092807D00846007A0A2803D0CF
:102470000846007A03282BD1012018494870002013
:102480001449087024E01448818E14480078401ED6
:1024900081421DD11048808E0F490C5432211048C2
:1024A000FDF77BFE0C48828E01460D48FDF75CFE71
:1024B0000948808E0A498886002006490870064926
:1024C000888632210448FDF768FE012003494870E0
:1024D00010BD0000E001002030160020D8010020CF
:1024E0006616002000BFFEE710B502F041F940215A
:1024F0000D48FFF735FF022003F0BEFC80210A489B
:10250000FFF72EFF022003F0B7FC40210648FFF73B
:1025100029FF022003F0B0FC40210348FFF720FF11
:10252000012003F0A9FC10BD000C014010B54021B2
:102530000B48FFF715FF02F009F980210848FFF763
:102540000FFF142003F098FC40210548FFF70AFF15
:10255000142003F091FC40210148FFF701FF10BD5A
:1025600000100140002001E0411CC8B20A28FBDB3A
:102570007047000008B50121102002F039F8402012
:10258000ADF8000010208DF8030003208DF8020044
:1025900069460848FFF750FE40210648FFF7E2FE73
:1025A00069460448FFF748FE80210248FFF7DAFE3B
:1025B00008BD00000010014008B50121082002F00C
:1025C00017F84020ADF8000010208DF8030003201C
:1025D0008DF8020069460848FFF72EFE40210648A4
:1025E000FFF7C0FE69460448FFF726FE8021024837
:1025F000FFF7B8FE08BD0000000C014010B502F066
:10260000B7F840210D48FFF7ABFE022003F034FC81
:1026100080210A48FFF7A6FE022003F02DFC40218E
:102620000648FFF79FFE022003F026FC40210348E6
:10263000FFF796FE012003F01FFC10BD000C0140C7
:1026400010B540210B48FFF78BFE02F07FF8802188
:102650000848FFF787FE142003F00EFC40210548D0
:10266000FFF780FE142003F007FC40210148FFF72C
:1026700077FE10BD0010014070B5002402F054F840
:10268000012003F0F9FB002518E040210F48FFF777
:1026900067FE022003F0F0FB40210C48FFF762FECA
:1026A0006006040E80210948FFF751FE08B144F08E
:1026B0000104012003F0E0FB681CC5B2082DE4DB37
:1026C00040210248FFF74CFE204670BD000C01403F
:1026D00070B50546002402F015F800261AE04021E6
:1026E0001148FFF73DFE142003F0C6FB40210E48C1
:1026F000FFF738FE4FF6FF7000EA440480210A48D5
:10270000FFF725FE08B1601C84B2142003F0B4FB6F
:10271000701CC6B2082EE2DB15B9FFF791FF01E08D
:10272000FFF704FF204670BD0010014070B504465D
:10273000002523E004F0800020B180211148FFF73C
:1027400011FE03E080210F48FFF70AFEFFF70AFFA2
:1027500020210C48FFF706FEFFF704FF202109485F
:10276000FFF7FEFD072D03D180210648FFF7FAFD94
:102770006006040EFFF7F6FE681CC5B2082DD9DB13
:1027800070BD00000008014070B5044601F0F0FF84
:1027900040211448FFF7E4FD002520E004F080000C
:1027A00020B180210F48FFF7DDFD03E080210D48B7
:1027B000FFF7D6FD6006040E022003F05DFB40210A
:1027C0000848FFF7CFFD022003F056FB40210548E3
:1027D000FFF7C6FD022003F04FFB681CC5B2082DB1
:1027E000DCDB70BD000C014070B5044601F0AEFFAB
:1027F00040211548FFF7B4FD00251FE0E00920B196
:1028000080211148FFF7AEFD03E080210E48FFF75D
:10281000A7FD6006040E142003F02EFB40210A4899
:10282000FFF7A0FD142003F027FB40210648FFF727
:1028300097FD142003F020FB681CC5B2082DDDDBDA
:10284000142003F019FB70BD0010014010B5802169
:102850000A48FFF787FD20210848FFF783FDFFF7AF
:1028600081FE80210548FFF77BFDFFF77BFE2021DD
:102870000248FFF775FDFFF775FE10BD0008014027
:1028800010B501F063FF80210A48FFF76BFD40217E
:102890000848FFF767FD142003F0EEFA8021054891
:1028A000FFF75EFD142003F0E7FA40210148FFF72F
:1028B00057FD10BD0010014010B501F059FF8021F7
:1028C0000A48FFF74FFD40210848FFF74BFD042061
:1028D00003F0D2FA80210548FFF742FD042003F0FF
:1028E000CBFA40210148FFF73BFD10BD000C014031
:1028F00010B580210648FFF733FD20210448FFF77B
:1029000031FDFFF72FFE80210148FFF72BFD10BDA1
:102910000008014010B501F019FF40210A48FFF7F7
:102920001FFD80210848FFF71BFD142003F0A4FAC7
:1029300040210548FFF716FD80210348FFF712FDEF
:10294000142003F099FA10BD0010014010B501F0F9
:102950000FFF40210C48FFF703FD80210A48FFF7D5
:10296000FFFC042003F088FA40210748FFF7FAFC37
:10297000042003F081FA80210348FFF7F3FC0420D0
:1029800003F07AFA10BD0000000C014010B5802160
:102990000D48FFF7E7FCFFF7E5FD20210A48FFF7A8
:1029A000E1FCFFF7DFFD80210748FFF7D0FC08B10D
:1029B000012400E0002420210348FFF7D1FCFFF7A9
:1029C000D1FD204610BD00000008014010B50024D4
:1029D00001F098FE80211148FFF7C4FC0A2003F0A3
:1029E0004BFA40210D48FFF7BDFC0A2003F044FAE2
:1029F00007E0601CC4B2FA2C03DDFFF78BFF012057
:102A000010BD80210548FFF7A2FC0028F1D140212C
:102A10000248FFF7A5FC0020F2E70000001001408B
:102A200010B5C82401F0A4FE80211D48FFF79AFCD0
:102A3000012003F021FA40211948FFF791FC012001
:102A400003F01AFA01F070FE012003F015FA0EE00F
:102A5000601EC4B2012003F00FFA2CB940211048C7
:102A6000FFF77EFC012010BD012003F005FA802154
:102A70000B48FFF76CFC0028EAD1012003F0FCF9B9
:102A800040210748FFF76EFC012003F0F5F94021D3
:102A90000348FFF765FC012003F0EEF90020E2E7B0
:102AA000000C01404CF6CC40014908607047000022
:102AB0000030004010B500F013F810BD70B50546A9
:102AC0000C4645F2555000F01FF8284600F010F86B
:102AD000204600F013F800F003F8FFF7E3FF70BDA5
:102AE0004AF6AA2001490860704700000030004003
:102AF000014948607047000000300040014988608B
:102B00007047000000300040014908607047000035
:102B10000030004010B54FF4E13004F011F903F03B
:102B200057F94FF4A06001F0A1F802203F498870E6
:102B300000F07EF801F0FEF801F0A2F81222022166
:102B40002D2001F067F913220221412001F062F9E2
:102B5000142204210F2001F05DF915220421232005
:102B600001F058F916220421372001F053F91722F9
:102B700004214B2001F04EF9182204215F2001F0BE
:102B800049F901F04DFE01F005FEFFF755FA00F09E
:102B900015FF47214FF47A7001F072FFFFF72CF90F
:102BA000FFF7E0F802F0F2F902F076F84FF47A302D
:102BB00004F066F84FF4E13004F00EF84FF4FA70C8
:102BC00003F028F940F2E2410620FFF777FF00F01A
:102BD00063F801F055F8122202212D2001F01AF9B4
:102BE00013220221412001F015F9162204210F20A1
:102BF00001F010F917220421232001F00BF918220B
:102C00000421372001F006F9192204214B2001F09C
:102C100001F91A2204215F2001F0FCF8012003F0E1
:102C20001FF901F02DF8FFF745FF10BD4E01002000
:102C300008B50121042001F0DBFC4FF48070ADF8F1
:102C4000000010208DF8030003208DF80200694673
:102C50000F48FFF7F1FA0120ADF8000069460D4872
:102C6000FFF7EAFA0220ADF8000069460948FFF7CD
:102C7000E3FA4FF480710648FFF774FB0121054821
:102C8000FFF770FB02210348FFF76CFB08BD000053
:102C900000080140000C014010B500F01DF84FF491
:102CA000967003F0B7F800F023F94FF4FA7003F0D0
:102CB000B1F800F001FA4FF4FA7003F0ABF800F04D
:102CC00015FB4FF4FA7003F0A5F800F0F5FB4FF494
:102CD000FA7003F09FF810BD10B552A002F0A0FAF0
:102CE0004FF4967003F096F857A002F0AFFA4FF445
:102CF000967003F08FF856A15648FDF759FA5649D9
:102D00000860FEF7F5FE0EE0FEF7F2FE4EA002F0C0
:102D10009DFA4FF4967003F07DF84DA14D48FDF7F4
:102D200047FA4D4908604C4800680028ECD04BA099
:102D300002F08CFA4FF4967003F06CF84AA002F09F
:102D400085FA4FF4967003F065F84AA14148FDF703
:102D50002FFA41490860FEF7CBFE0EE0FEF7C8FEF1
:102D600041A002F073FA4FF4967003F053F841A1BA
:102D70003848FDF71DFA38490860374800680028D0
:102D8000ECD03DA002F062FA4FF4967003F042F8E6
:102D9000FEF7AEFE3FA002F059FA4FF4967003F032
:102DA00039F8FEF7A5FE3FA002F050FA4FF49670F6
:102DB00003F030F8FEF79CFE41A002F047FA4FF412
:102DC000967003F027F8FEF793FE40A002F03EFA5B
:102DD0004FF4967003F01EF83FA11E48FDF7E8F986
:102DE0001D490860FEF784FE0EE0FEF781FE37A065
:102DF00002F02CFA4FF4967003F00CF836A1154847
:102E0000FDF7D6F914490860134800680028ECD093
:102E100034A002F01BFA4FF4967002F0FBFFFEF7AD
:102E200067FE10BDB1BEB4CEB2E2CAD4CAC7B7A263
:102E3000CAFDBEDDB5BD4D515454B7FECEF1C6F747
:102E4000B9A6C4DC0D0A000041540D0A00000000C0
:102E50004F4B0000CF1B0020E401002041544530BF
:102E600026570D0A0000000041542B43494D490DDF
:102E70000A0000003436300041542B434744434F8E
:102E80004E543D322C224950222C22434D4E455463
:102E9000220D0A0041542B43474143543D312C310C
:102EA0000D0A000041542B435354543D22434D4ED0
:102EB0004554222C22222C2222200D0A0000000040
:102EC00041542B43494943520D0A000041542B43BE
:102ED000474154543F0D0A002B43474154543A3163
:102EE0000000000041542B4353510D0A0000000024
:102EF00010B54CA002F094F950A002F0A7F94FF4DD
:102F0000FA7002F087FF4DA002F0A0F94FF4FA70BA
:102F100002F080FF4BA14C48FDF74AF94B4908608D
:102F20000EE0FEF7E5FD45A002F090F94FF4FA70CF
:102F300002F070FF43A14448FDF73AF943490860A5
:102F4000424800680028ECD041A002F07FF94FF41D
:102F5000FA7002F05FFFFEF7CBFD3FA002F076F9BA
:102F60004FF4FA7002F056FF3EA002F06FF94FF4F2
:102F7000FA7002F04FFF3EA13348FDF719F93349CB
:102F800008600EE0FEF7B4FD36A002F05FF94FF4E2
:102F9000FA7002F03FFF36A12B48FDF709F92B49E3
:102FA00008602A4800680028ECD0FEF7A1FD34A094
:102FB00002F04CF94FF4FA7002F02CFF34A002F04A
:102FC00045F94FF4FA7002F025FF34A11E48FDF7D1
:102FD000EFF81E49086034A11B48FDF7E9F83549B0
:102FE000086014E0FEF784FD29A002F02FF94FF4E9
:102FF000FA7002F00FFF29A11348FDF7D9F8134921
:10300000086029A11048FDF7D3F82A4908600F4845
:10301000006818B9274800680028E3D0FEF768FD6B
:1030200010BD0000B1BEB4CEB2E2CAD4CAC7B4F279
:10303000B5E7BBB0B9A6C4DC0D0A000041540D0AC7
:10304000000000004F4B0000CF1B0020EC010020CF
:10305000415445300D0A000041542B4353510D0A91
:103060000000000041542B4350494E3F0D0A000020
:103070002B4350494E3A205245414459000000002C
:1030800041542B5149434C4F53453D300D0A0000EC
:1030900041542B435245473F0D0A00002B435245F4
:1030A000473A20302C3100002B435245473A20301C
:1030B0002C350000F001002010B556A002F0B0F849
:1030C0004FF4967002F0A6FE5AA002F0BFF84FF43B
:1030D000967002F09FFE59A15948FDF769F85949C9
:1030E0000860FEF705FD0EE0FEF702FD51A002F0BC
:1030F000ADF84FF4967002F08DFE50A15048FDF7E8
:1031000057F8504908604F4800680028ECD04EA09E
:1031100002F09CF84FF4967002F07CFE4DA002F095
:1031200095F84FF4967002F075FE4EA002F08EF8FE
:103130004FF4967002F06EFE4DA14148FDF738F84D
:1031400040490860FEF7D4FC0EE0FEF7D1FC45A034
:1031500002F07CF84FF4967002F05CFE44A138480F
:10316000FDF726F837490860364800680028ECD09B
:1031700040A002F06BF84FF4967002F04BFEFEF7A1
:10318000B7FC43A002F062F84FF4967002F042FEE2
:10319000FEF7AEFC42A002F059F84FF4967002F030
:1031A00039FEFEF7A5FC45A002F050F84FF49670EA
:1031B00002F030FEFEF79CFC43A002F047F84FF40B
:1031C000967002F027FE43A11D48FCF7F1FF1D4950
:1031D0000860FEF78DFC0EE0FEF78AFC3AA002F0D4
:1031E00035F84FF4967002F015FE3AA11448FCF73A
:1031F000DFFF14490860134800680028ECD038A0AD
:1032000002F024F84FF4967002F004FEFEF770FC12
:1032100010BD0000B1BEB4CEB2E2CAD4CAC7B7A2D4
:10322000CBCDD3A2CEC4B6CCD0C5B9A6C4DC0D0AD2
:103230000000000041540D0A000000004F4B000048
:10324000CF1B0020F40100204154453026570D0AC1
:103250000000000041542B4D4950434C4F53453D15
:10326000310D0A0041542B43494D490D0A0000001D
:103270003436300041542B434744434F4E543D3184
:103280002C224950222C22434D4E4554220D0A0037
:1032900041542B43474143543D312C320D0A000029
:1032A00041542B435354543D22434D4E4554222CFC
:1032B00022222C2222200D0A0000000041542B4320
:1032C000494943520D0A000041542B43474154548D
:1032D0003F0D0A002B43474154543A31000000008F
:1032E00041542B4353510D0A0000000010B51AA0A1
:1032F00001F0ACFF4FF4967002F08CFD1AA001F0C3
:10330000A5FF4FF4967002F085FD1B4A1BA11E48D5
:1033100001F09CFF4FF4967002F07CFDFEF7E8FB95
:103320001AA001F093FF4FF4967002F073FD1FA1F5
:103330002248FCF73DFF2249086005E01BA11F4819
:10334000FCF736FF1E4908601D4800680028F5D0CC
:10335000FEF7CEFB10BD000041542B4D5154544498
:103360004953430D0A00000041542B4D515454441D
:10337000454C0D0A00000000507B00084D4C3330D6
:10338000325F4D5154540000007B000841542B4DD6
:103390005154544F50454E3D312C312C302C302C53
:1033A000302C22222C22220D0A0000002B4D5154D9
:1033B000544F50454E3A4F4B00000000CF1B0020A9
:1033C000E401002010B5054801F040FF4FF496706D
:1033D00002F020FD024801F023FF10BDC87600086E
:1033E000CF1B00202DE9FF4F9BB00C4691469A461B
:1033F000DDF8A0B0DDE930564846FDF793FA074600
:1034000088462046FDF78EFACDE918011B98FDF796
:1034100089FACDE91601DDE93423DDE93610CDE97D
:103420001223CDE91410DDE93201CDE90E56CDE9C4
:103430001001DDE92C23DDE92E10CDE90923CDE9CA
:103440000B10DDE929212B9802ABA3E8800DCDE913
:1034500006210890DDE91801CDE900010F48DDE9FA
:10346000162301F0F3FE4FF4967002F0D3FC0CA18A
:103470000F48FCF79DFE0F49086005E008A10C48C5
:10348000FCF796FE0B4908600A4800680028F5D052
:10349000FEF72EFB1FB0BDE8F08F00001478000887
:1034A0002B4D51545450554241434B3A300000008B
:1034B000CF1B0020E401002010B529A22BA12EA0D3
:1034C00001F0C4FE3AA13E48FCF772FE3D49086097
:1034D00005E037A13A48FCF76BFE3A4908603948E5
:1034E00000680028F5D0FEF703FB1DA21FA136A03F
:1034F00001F0ACFE2EA13248FCF75AFE31490860BB
:1035000005E02BA12E48FCF753FE2E4908602D48FC
:1035100000680028F5D0FEF7EBFA11A213A13AA03B
:1035200001F094FE22A12648FCF742FE25490860DE
:1035300005E01FA12248FCF73BFE22490860214814
:1035400000680028F5D0FEF7D3FA3FA001F07EFE18
:103550004FF4967002F05EFCFEF7CAFA10BD000050
:103560004D4C3330325F4D515454000055684D4E30
:1035700057707741624B000041542B4D51545453C6
:1035800055423D22247379732F25732F25732F7491
:1035900068696E672F70726F70657274792F706FC3
:1035A00073742F7265706C79222C300D0A00000044
:1035B0002B4D51545453554241434B3A00000000A7
:1035C000CF1B00200802002041542B4D515454536E
:1035D00055423D22247379732F25732F25732F7441
:1035E00068696E672F70726F70657274792F646589
:1035F00073697265642F6765742F7265706C7922C8
:103600002C300D0A0000000041542B4D51545453EE
:1036100055423D22247379732F25732F25732F7400
:1036200068696E672F70726F70657274792F646548
:1036300073697265642F64656C6574652F7265705B
:103640006C79222C300D0A0041542B4D51545453A7
:1036500055423F0D0A00000010B585A18848FCF7CF
:10366000A7FD8849086082A18548FCF7A1FD86492D
:103670000860864A86A183480068FCF7CFFD11E008
:103680007BA17F48FCF794FD7E49086078A17C48C7
:10369000FCF78EFD7C4908607C4A7DA17948006872
:1036A000FCF7BCFD7CA17948FCF7AAFD0028E7D116
:1036B00079A17648FCF7A4FD00287DD1FFF7FAF93F
:1036C00079A171480068FCF773FD79490860002012
:1036D0007849086010E07648006800787649754AB5
:1036E0001268885473480068401C7249086070482A
:1036F0000068401C6E4908606D480068007800282A
:10370000E9D16D496B4A126888546CA16A48FCF78C
:103710004FFD6C4908600846006800F073FE6A4976
:1037200008606AA16448FCF743FD664908600846E2
:10373000006800F067FE6449486065A15E48FCF7D8
:1037400037FD604908600846006800F05BFE5E498E
:10375000886061A15848FCF72BFD5A49086008466B
:10376000006800F04FFE0446FDF778F85649C8603F
:103770005BA15148FCF71CFD5249086008460068EF
:1037800000F040FE0446FDF769F84F49086156A174
:103790004948FCF70DFD4B4908600846006800F0F9
:1037A00031FE0446FDF75AF8474981F829004FA138
:1037B0004148FCF7FDFC00E058E04249086008463B
:1037C000006800F01FFE0446FDF748F83E4981F806
:1037D0002A0048A13848FCF7EBFC3A490860084643
:1037E000006800F067FE384AC2E90E0143A1324882
:1037F000FCF7DEFC334908600846006800F002FE72
:103800000446FDF72BF8304981F844003CA12A48D2
:10381000FCF7CEFC2B4908600846006800F0F2FD7A
:103820000446FDF71BF8284981F8450035A12248D8
:10383000FCF7BEFC234908600846006800F0E2FD82
:103840000446FDF70BF8204981F846002FA11A48DD
:10385000FCF7AEFC1B4908600846006800F0D2FD8A
:103860000446FCF7FBFF184981F8470010BD000033
:103870002B4D5154545055424C4953483A00000086
:10388000CF1B0020100200200C0200209C160020FC
:10389000255B5E3A5D0000002B4D5154545055425B
:1038A0004C4953480000000022646174612200000A
:1038B000140200201C020020A616002074656D7002
:1038C00000000000180200209800002068756D00BC
:1038D0006475737400000000434F74776F0000003C
:1038E00054564F43000000004C45440072656C6123
:1038F0007900000070686F6E65000000415352004F
:10390000534C41004D4C4341540000004F4C454442
:103910000000000070B504460D461BA001F096FCA7
:103920004FF4967002F076FA21461AA001F08EFC50
:103930004FF4967002F06EFA29461AA001F086FC48
:103940004FF4967002F066FA00BF1748008800F046
:1039500040000028F9D01A201349091D088013A13E
:103960001448FCF725FC1449086005E00FA1114834
:10397000FCF71EFC104908600F4800680028F5D0CD
:10398000FEF7B6F870BD000041542B434D47463D4D
:10399000310D0A0041542B434D47533D22257322DC
:1039A0000D0A000025730000004400402B434D47E2
:1039B000533A0000CF1B0020F401002000B587B06F
:1039C00001214FF4047000F013FE4FF4004000F0AA
:1039D000E3FD0420ADF8040000208DF8070003206B
:1039E0008DF8060001A91848FEF726FC1748FDF7D8
:1039F00099FD002002908DF80C008DF80D004FF419
:103A0000602004900020059001208DF8180002A984
:103A10000E48FDF7D7FD01210C48FDF777FD0B4857
:103A2000FDF754FE00BF0948FDF7C1FD0028FAD19B
:103A30000648FDF75BFE00BF0448FDF7A1FD002826
:103A4000FAD107B000BD0000001001400024014081
:103A50002DE9FF5F4348007830B90121424801F069
:103A60003EF801203F49087014210C20FEF796FC17
:103A700003900398FCF7B7FE06463C49FCF7B2FCFE
:103A800005464FF08B41FCF7DFFC04462046FCF76F
:103A900049FF0746364A374BFCF714FD054600221E
:103AA000354BFCF7B6FDCDE90001FCF7EBFE834694
:103AB000FCF790FE31490290FCF7C6FC0446214613
:103AC0002A48FCF789FC06462146FCF7BDFC054662
:103AD0002B49FCF787FC81462A48006840F6B8313C
:103AE000884217D20022284B4FF08040274902F02D
:103AF00027FA05460E464846FCF714FF2A46334689
:103B0000CDE90001FCF7F7FD0746FCF737FF204938
:103B1000086009E01B48006840F6B831884203D9C4
:103B20000021114800F0DBFF194801684846FCF706
:103B30008BFC8346FCF7F6FE05464FF08042154BA2
:103B400002F0FEF907464FF08042134BFCF761FD8F
:103B5000CDE90001FCF712FF8246504604B0BDE8F3
:103B6000F09F000030020020001400403333534027
:103B70007B14AE47E17A743F000059400000C84210
:103B80000000A0402C020020B6DBDEBF24AEA03F28
:103B9000280200208D9700C0332F834000BFFEE72E
:103BA000704708B54FF4C06000F060F806208DF84B
:103BB000000001208DF801008DF802008DF803004F
:103BC000684600F01BF828208DF80000684600F0D9
:103BD00015F808BD08B54FF4A06000F047F835208F
:103BE0008DF8000001208DF801008DF802008DF89D
:103BF0000300684600F002F808BD000070B500211F
:103C000000230F22C47804B3154C246804F4E06444
:103C1000C4F5E064210AC1F10403CA40447804FAFF
:103C200003F184781440214309010E4C0678A15514
:103C3000047804F01F050124AC4005786D11AD0037
:103C400005F1E025C5F8004109E0047804F01F05FE
:103C50000124AC40044D0678761145F8264070BD2D
:103C60000CED00E000E400E080E100E002490143E7
:103C7000024A1160704700000000FA050CED00E0F8
:103C800010B5002000F001F810BD70B50646002404
:103C900015E004F1B001C8B200F084FA002000F091
:103CA00081FA102000F07EFA002504E0304600F092
:103CB00080FA681CC5B2802DF8DB601CC4B2082CE9
:103CC000E7DB70BD08B50121042000F091FCA020C5
:103CD000ADF8000003208DF8020014208DF80300D9
:103CE00069460348FEF7A8FAFEF702FE08BD000089
:103CF0000008014070B505460C46FEF7A7FD782088
:103D0000FEF714FDFEF742FE00B110E02846FEF774
:103D10000DFDFEF73BFE00B109E02046FEF706FD73
:103D2000FEF734FE00B102E0FEF7E2FD00BFFEF751
:103D3000DFFD70BD10B5FFF7C5FF012002F090F860
:103D4000AE2000F02FFA202000F02CFA102000F016
:103D500029FAB02000F026FAC82000F023FA00204B
:103D600000F020FA102000F01DFA402000F01AFAAE
:103D7000812000F017FAFF2000F014FAA12000F0D3
:103D800011FAA62000F00EFAA82000F00BFA3F204E
:103D900000F008FAA42000F005FAD32000F002FA9F
:103DA000002000F0FFF9D52000F0FCF9F02000F031
:103DB000F9F9D92000F0F6F9222000F0F3F9DA2021
:103DC00000F0F0F9122000F0EDF9DB2000F0EAF944
:103DD000202000F0E7F98D2000F0E4F9142000F035
:103DE000E1F9AF2000F0DEF910BD70B504460D46D4
:103DF00005F1B001C8B200F0D5F9102141EA141064
:103E000000F0D0F904F00F0141F0010000F0CAF910
:103E100070BD00002DE9F04180460E461746002493
:103E20007D0131464046FFF7E0FF00BF06E00D4947
:103E3000485D00F0BEF96D1C601CC4B2102CF6DBAE
:103E4000701CC1B24046FFF7D0FF002406E00549D0
:103E5000485D00F0AEF96D1C601CC4B2102CF6DB9E
:103E6000BDE8F081310200202DE9F04707460E46FB
:103E70009046994600250024A8F12000C5B27F2F66
:103E800002DD0027B01CC6B2B9F1100F22D13146B5
:103E90003846FFF7AAFF002407E004EB0511174A94
:103EA000505C00F086F9601CC4B2082CF5DB701C75
:103EB000C1B23846FFF799FF002408E004EB051172
:103EC00008310E4A505C00F074F9601CC4B2082C32
:103ED000F4DB11E031463846FFF787FF002409E0A4
:103EE00005EB4501064A02EB4101085D00F061F96E
:103EF000601CC4B2062CF3DBBDE8F0870870000834
:103F0000E06D00082DE9FF5F074691461E460E9DB5
:103F10004FF0000A002435E0301B401EC1B20A20D9
:103F200002F003F8B9FBF0F00A21B0FBF1F201FB5B
:103F30001208BAF1000F14D1701EA04211DDB8F1C1
:103F4000000F0CD1AB4605EBDB71491001FB04718E
:103F5000C8B22B4620220199FFF786FF10E04FF0F0
:103F6000010AAB4605EBDB71491001FB0471C8B2D5
:103F700008F13001CAB22B460199FFF775FF00BF67
:103F8000601CC4B2B442C7DBBDE8FF9F2DE9F04717
:103F90000646894617469A464FF000080024002539
:103FA000BAF1010F03D0BAF1020F5ED125E020E093
:103FB000785D203800F0FF087E2E04DD002609F130
:103FC000010000F0FF0949463046FFF70EFF0024CC
:103FD00009E008EB4801264A02EB4101085D00F0C8
:103FE000E8F8601CC4B2062CF3DBB01DC6B2681C36
:103FF000C5B2785D0028DBD137E032E0785D20384B
:1040000000F0FF08782E04DD002609F1010000F021
:10401000FF0949463046FFF7E8FE002407E004EBBD
:104020000811144A505C00F0C4F8601CC4B2082C9B
:10403000F5DB09F10100C1B23046FFF7D6FE0024DE
:1040400008E004EB081108310A4A505C00F0B1F8AE
:10405000601CC4B2082CF4DB06F10800C6B2681C70
:10406000C5B2785D0028C9D100BF00BFBDE8F087A8
:10407000E06D0008087000082DE9FF4F87B0074683
:1040800090461E46DDE914954FF0000A0020069088
:10409000834605904046FCF7C8FB8346002434E085
:1040A000301B401EC1B20A2001F03FFFBBFBF0F005
:1040B0000A21B0FBF1F201FB120A0698A0B9701EAA
:1040C000A04211DDBAF1000F0CD105EBD5714910FA
:1040D00001FB0471C8B22B46202204950899FFF712
:1040E000C3FE10E00120069005EBD571491001FBDD
:1040F0000471C8B20AF13001CAB22B46049508997E
:10410000FFF7B2FE00BF601CC4B2B442C8DB05EBCF
:10411000D571491001FB0671C8B22B462E220495B9
:104120000899FFF7A1FE49460A2001F0FEFE019022
:10413000FCF759FB03905846FCF74CFB41460190B5
:10414000FCF74DF902900399FCF74CF90490FCF749
:104150006CFB0590002420E0A9EB0400401EC1B2D6
:104160000A2001F0E2FE0599B1FBF0F00A21B0FB54
:10417000F1F201FB120A05EBD5714910A31901FBFD
:104180000371491DC8B20AF13001CAB22B46049529
:104190000899FFF769FE601CC4B24C45DCDB0BB02C
:1041A000BDE8F08F10B5044621460020FFF7A2FDC0
:1041B00010BD10B5044621464020FFF79BFD10BD01
:1041C0001CB56748C07801287ED1FFF759FD002251
:1041D00001210F20FFF71EFE022201212320FFF7FD
:1041E00019FE012204210F20FFF714FE02220421F0
:1041F0002320FFF70FFE10200221CDE900105948BF
:104200000B46012102683C20FFF736FF11220121F5
:104210006420FFF7FFFD10200221CDE90010514876
:104220000B46042142683C20FFF726FF02234EA2E2
:1042300004216920FFF7AAFE012001F011FEFFF71B
:104240001FFD072200211E20FFF7E4FD08220021A8
:104250003220FFF7DFFD0F2200214620FFF7DAFDB5
:10426000102200215A20FFF7D5FD102000903D4874
:104270000423022102691E20FFF744FE02233BA211
:1042800019464620FFF782FE022339A2042123208B
:10429000FFF77CFE0F2204214620FFF7BBFD102212
:1042A00004215A20FFF7B6FD102000902D4804236A
:1042B0000621C2681E20FFF725FE02232DA206213B
:1042C0004620FFF763FE00E043E0012001F0C8FD57
:1042D000FFF7D6FC092200212820FFF79BFD0A22C8
:1042E00000213C20FFF796FD0B2200215020FFF714
:1042F00091FD0C2202210F20FFF78CFD0D220221DF
:104300002320FFF787FD0E2202213720FFF782FDD1
:104310000F2202214B20FFF77DFD102202215F209A
:10432000FFF778FD10200221CDE900100D4803238E
:10433000052182681420FFF79FFE02230DA20521AC
:104340004620FFF723FE012001F08AFDFFF798FCCD
:1043500004E00348C07808B9FFF792FC1CBD0000D8
:1043600040000020980900202500000070706400C3
:10437000434F320070706D0010B590B0FDF7D0FB68
:104380001F4890F847001E4991F846101C4A92F8C1
:1043900045201B4B93F84430CDE90C32CDE90E108B
:1043A000174890F82A00164991F82910CDE90A100B
:1043B0001349D1E90E01CDE90801114890F84300F5
:1043C0000F4991F842100E4A92F841200C4B93F895
:1043D0004030CDE90432CDE906100948426A016A4D
:1043E000007F074B1B69064CCDE90030CDE9021276
:1043F000E368A26861682068FEF7F4FF10B010BDA2
:10440000480000202DE9F04389B0814613A14846B9
:10441000FBF7CEFE044614B913A000F001FF0834E8
:104420007D212046FBF7E2FE054615B919A000F0F4
:10443000F7FE202101A8FBF7B0FE2A1B214601A8A8
:10444000FBF7C8FE01A801F031FC0746FCF796FA1D
:104450000646304609B0BDE8F08300002276616C64
:104460007565223A00000000546865726520697322
:10447000206E6F202276616C756522206669656CFE
:104480006420696E204A534F4E20737472696E67C0
:104490000A000000556E6578706563746564206578
:1044A0006E64206F66204A534F4E20737472696E9B
:1044B000670A00002DE9F04F89B081461FA14846E8
:1044C000FBF776FE044614B91FA000F0A9FE0834DD
:1044D0007D212046FBF78AFE074617B925A000F08C
:1044E0009FFE202101A8FBF758FE3A1B214601A898
:1044F000FBF770FE4FF0000800252E4600BF14E0C9
:1045000001A810F8080030380A234FF0000BAC4621
:10451000ACFB032E06FB03E305FB0B33851843EBD3
:10452000E07608F1010000F0FF08B8F10B0FE7DBBF
:104530002846314609B0BDE8F08F00002276616C54
:104540007565223A00000000546865726520697341
:10455000206E6F202276616C756522206669656C1D
:104560006420696E204A534F4E20737472696E67DF
:104570000A000000556E6578706563746564206597
:104580006E64206F66204A534F4E20737472696EBA
:10459000670A00007047000001460020034A506887
:1045A00020F4404008435060704700000010024073
:1045B00029B1064AD2690243044BDA6104E0034A96
:1045C000D2698243014BDA6170470000001002405B
:1045D00029B1064A12690243044B1A6104E0034AF6
:1045E00012698243014B1A617047000000100240BB
:1045F00029B1064A92690243044B9A6104E0034AD6
:1046000092698243014B9A6170470000001002409A
:1046100029B1064AD2680243044BDA6004E0034A37
:10462000D2688243014BDA607047000000100240FC
:1046300030B500210022002400232D4D6D6805F0C7
:104640000C0121B1042905D0082923D105E0294D09
:10465000056022E0274D05601FE0254D6D6805F4DB
:104660007012234D6D6805F48034022505EB9242EB
:104670001CB9214D554305600BE01D4D6D6805F4D7
:1046800000351DB11C4D5543056002E0194D5543E1
:10469000056002E0174D056000BF00BF144D6D6856
:1046A00005F0F0010909154D6B5C0568DD404560BA
:1046B0000F4D6D6805F4E061090A104D6B5C4568AB
:1046C000DD4085600A4D6D6805F46051C90A0B4DE7
:1046D0006B5C4568DD40C560054D6D6805F4404183
:1046E000890B074D6B5CC568B5FBF3F5056130BD03
:1046F0000010024000127A0000093D001400002062
:104700002400002008B58020ADF8000001208DF8BD
:10471000020004208DF8030069460248FDF78CFD75
:1047200008BD00000010014008B58020ADF8000071
:1047300048208DF8030003208DF8020069460248E6
:10474000FDF77AFD08BD0000000C014008B580208F
:10475000ADF8000010208DF8030003208DF8020052
:1047600069460248FDF768FD08BD000000100140E1
:1047700008B58020ADF8000010208DF8030003205C
:104780008DF8020069460248FDF756FD08BD00009D
:10479000000C014010B5FDF7EDFE0321202000F0D4
:1047A00025F810BD70B5FEF76BF8B120FEF71CF8C8
:1047B000FEF70CF90120FDF78BFF044624020120CF
:1047C000FDF786FF04440120FDF782FFC5B200BF5C
:1047D00024020120FDF77CFF044424020020FDF7A1
:1047E00077FF0444FEF796F8204670BD70B5054685
:1047F0000C46FEF745F8B020FDF7F6FFFEF7E6F8A9
:104800002846FDF7F1FFFEF7E1F82046FDF7ECFF43
:10481000FEF7DCF8FEF77EF8642001F0FBFA70BDCD
:1048200010B5FDF7C9FE10BDFEB504460D4616468F
:10483000FEF742F8002141EA4401C8B2FDF7A4FFA7
:10484000FEF7EEF82C20FDF79FFFFEF7E9F80620B3
:10485000FDF79AFFFEF7E4F8FEF778F8322001F052
:10486000D9FAFEF729F8012101EB4401C8B2FDF79E
:104870008BFFFEF7D5F828BBFDF7FEFEADF8000074
:10488000FDF732FEFDF7F8FEADF80200FDF72CFE55
:10489000FDF7F2FEADF80400FDF726FEFDF7ECFE95
:1048A000ADF80600FDF720FEFDF7E6FEADF80800C6
:1048B000FDF71AFEFDF7E0FEADF80A00FDF79EFEDB
:1048C000FEF744F8BDF80200BDF8001040EA0120F0
:1048D0002880BDF80800BDF8061040EA01203080AD
:1048E000FEBD704710B500F001F810BD0CB50020FA
:1048F000019000903348006840F4803031490860EE
:1049000000BF3048006800F4003000900198401C5F
:104910000190009818B90198B0F5A06FF1D129481D
:10492000006800F4003010B10120009001E0002088
:1049300000900098012843D12348006840F01000FF
:10494000214908600846006820F003000860084616
:10495000006840F0020008601A4840681949486041
:104960000846406848600846406840F480604860F7
:104970000846406820F47C1048600846406840F4CF
:10498000E81048600846006840F08070086000BF8A
:104990000C48006800F000700028F9D00948406811
:1049A00020F00300074948600846406840F00200D4
:1049B000486000BF0348406800F00C000828F9D1A7
:1049C0000CBD00000010024000200240042808D165
:1049D0004FF0E021096941F004014FF0E02211613C
:1049E00007E04FF0E021096921F004014FF0E022D7
:1049F000116170477047000010B51348006840F01F
:104A000001001149086008464068104908400E49F5
:104A10004860084600680E4908400B49086008468F
:104A2000006820F4802008600846406820F4FE00FA
:104A300048604FF41F008860FFF754FF4FF000609C
:104A40000449086010BD0000001002400000FFF89B
:104A5000FFFFF6FE08ED00E010B50121064800F06A
:104A60004AF840B10121044800F036F803480068D4
:104A7000401C0249086010BD001400402C020020B8
:104A80007FB505460C4601212020FFF791FDA8B215
:104A9000ADF80400ADF800400020ADF80600ADF818
:104AA000020069460B4800F041F80122114609480E
:104AB00000F032F837208DF80C0000208DF80D0042
:104AC00002208DF80E0001208DF80F0003A8FFF7DB
:104AD00095F87FBD00140040CA430282704721B19F
:104AE000028842F00102028004E002884FF6FE7361
:104AF0001A400280704730B502460020002300248F
:104B0000158A05EA0103958905EA010413B10CB180
:104B1000012000E0002030BD1AB183890B4383815E
:104B200002E083898B438381704700000022028862
:104B30001D4B98420ED01D4B98420BD0B0F1804FC8
:104B400008D01B4B984205D01A4B984202D01A4B02
:104B5000984204D14FF68F731A404B881A43174B73
:104B6000984207D0164B984204D04FF6FF431A40A4
:104B7000CB881A4302808B8883850B8803850A4B78
:104B800098420BD0094B984208D00E4B984205D062
:104B90000D4B984202D00D4B984201D10B7A0386FF
:104BA0000123838270470000002C01400034014043
:104BB0000004004000080040000C004000100040CD
:104BC0000014004000400140004401400048014002
:104BD00010B540F225512C4800F05CFA00283BD07B
:104BE000294800F013FBC4B2F42C03D02748007806
:104BF000012831D1012025490870F52C0BD024481B
:104C0000B0F82E0122490C540846B0F82E01401C81
:104C1000A1F82E0120E0F52C1ED11D48B0F82E0180
:104C20001B490C544FF480611A48FBF7B6FA184838
:104C3000B0F82E2101461748FBF796FA1448B0F851
:104C40002E011449A1F800040020104908701049F1
:104C5000A1F82E01FCF7B0FF40F224410A4800F011
:104C600019FA78B1084800F0D1FAC4B20848B0F88F
:104C70002E0138B1064890F82C0118B901200449DA
:104C800081F82C0110BD0000004C00405E010020A6
:104C90008C0A0020BC0B002000B585B0012130201B
:104CA000FFF7A6FC01210805FFF782FC4FF48050B6
:104CB000ADF8100018208DF8130003208DF81200B5
:104CC00004A91648FDF7B8FA0420ADF810008DF8D5
:104CD000130004A91248FDF7AFFA4FF416500090E4
:104CE0000020ADF80400ADF80600ADF80800ADF8FE
:104CF0000C000C20ADF80A0069460A4800F01AFAC8
:104D0000FEF768FF012240F22551064800F0ECF959
:104D10000121044800F064F905B000BD0010014015
:104D2000001401400050004010B540F225512748C2
:104D300000F0B0F9002847D0244800F067FAC4B268
:104D40002146224800F067FA312C04D14FF48071DB
:104D50001F48FDF705FB322C04D14FF480711C482D
:104D6000FDF700FB332C02D101201A490870342CC6
:104D700002D1002017490870352C02D101201549B5
:104D80004870362C02D1002012494870372C02D1CD
:104D9000012010498870382C02D100200D498870FC
:104DA000392C02D101200B49C870402C02D10020BF
:104DB0000849C870412C02D1012006490871422CD3
:104DC00002D100200349087110BD000000500040CE
:104DD000000801403D01002010B540F225511D485A
:104DE00000F058F910B31B4800F010FAC4B21A488A
:104DF000008800F40040C8B91748008800F48040DB
:104E000060B10A2C03D000201349088020E012482A
:104E1000008840F400401049088019E00D2C06D1AC
:104E20000D48008840F480400B49088010E00A4893
:104E30000088C0F30D0009490C5407480088401C45
:104E40000549088008460088C72801DD0020088041
:104E500010BD0000003801405C010020C4090020A2
:104E600010B540F225510D4800F014F9A0B10B48DF
:104E700000F0CCF9C1B20A4802880088401C084BF7
:104E80001880084881541846008840F22951884209
:104E900002DD00201946088010BD000000440040DB
:104EA00024020020CF1B00201FB5134800F0A4F8F7
:104EB0004FF4E13000900020ADF80400ADF806009A
:104EC000ADF80800ADF80C000C20ADF80A006946FA
:104ED000094800F02FF9012240F22551064800F060
:104EE00003F9012240F22441034800F0FDF80121BA
:104EF000014800F075F81FBD0048004008B54FF4A8
:104F00000060ADF8000004208DF8030069460948F0
:104F1000FDF792F94FF48060ADF8000003208DF8A2
:104F2000020018208DF8030069460248FDF784F955
:104F300008BD0000000C014010B5002440F22551CE
:104F4000104800F0A7F830B10E4800F05FF9C4B285
:104F50002046FDF75BFA40F224410A4800F09AF837
:104F600070B1084800F052F9C4B20748808E38B1D9
:104F7000054890F8320018B90120034981F8320041
:104F800010BD0000004800403016002010B500F0B1
:104F90001DF8FFF7B3FFFFF787FF00F003F8FDF7F9
:104FA00015FA10BD08B527208DF8000003208DF8F4
:104FB0000100054880788DF8020001208DF803007B
:104FC0006846FEF71BFE08BD4E01002010B501210A
:104FD0000820FFF70DFB01218804FFF7E9FA10BD57
:104FE00021B1828942F40052828104E082894DF627
:104FF000FF731A408281704710B5044620488442EE
:1050000009D101218803FFF703FB00214FF4804001
:10501000FFF7FEFA32E01B48844209D1012148041F
:10502000FFF7D6FA00214FF40030FFF7D1FA25E060
:105030001548844209D101218804FFF7C9FA0021EB
:105040004FF48020FFF7C4FA18E01048844209D1D9
:105050000121C804FFF7BCFA00214FF40020FFF73C
:10506000B7FA0BE00A48844208D101210805FFF78E
:10507000AFFA00214FF48010FFF7AAFA10BD00002C
:10508000003801400044004000480040004C00400F
:105090000050004070B50246002400230025002087
:1050A00040F66A16B14200D100BFC1F3421501F0CB
:1050B0001F03012606FA03F3012D02D1968933401E
:1050C00006E0022D02D1168A334001E0968A334071
:1050D0000C12012606FA04F41688344013B10CB100
:1050E000012000E0002070BDF0B50346002400263A
:1050F0000025002040F66A17B94200D100BF1846CB
:10510000C1F3421401F01F06012707FA06F5012C2E
:1051100001D10C3004E0022C01D1103000E0143039
:105120001AB107682F43076002E00768AF430760C2
:10513000F0BD00002DE9F04786B005460E4600247C
:10514000A24600BFA1460027B08900B100BF2F468C
:105150002C8A4CF6FF700440F08804432C82AC8902
:105160004EF6F3100440B088318908437189084332
:105170000443AC81AC8A4FF6FF400440B08904433D
:10518000AC8201A8FFF754FA1F48874202D1DDF82C
:1051900010A001E0DDF80CA0A88900F4004040B1A7
:1051A0000AEBCA0000EB0A1031684900B0FBF1F8C5
:1051B00007E00AEBCA0000EB0A1031688900B0FB77
:1051C000F1F86420B8FBF0F004012009642101FB30
:1051D0001089A88900F4004040B1322000EBC900DA
:1051E000B0FBF1F000F00700044308E0322000EBD0
:1051F00009106421B0FBF1F000F00F0004432C8192
:1052000006B0BDE8F08700000038014001468888FC
:10521000C0F308007047C1F30802828070470000A5
:105220000BE000BF0749098801F040010029F9D0CF
:105230000178044A121D1180401C01780029F0D128
:10524000704700000038014000BFFEE70FB4054B77
:1052500010B503A9044A029800F08CF910BC5DF85F
:1052600014FB0000C55E0008200200200FB4084BAC
:1052700010B504A902AA039800F07CF9044602A91B
:10528000002000F00EFD204610BC5DF814FB00006D
:10529000A35C0008490050EAC12018BF04204A0D51
:1052A00018BF40F0010040F2FF72B2EB515F08BF3F
:1052B00040F00200012808BF052070472DE9F041A9
:1052C0004F1E00EBC7010446D1E9000115461E46FA
:1052D00037F006020DD02A463346FBF79AF97F1EB7
:1052E00004EBC703D3E90023FBF7ECF837F0060221
:1052F000F1D1022F25D0042F13D0062F18BFBDE8FF
:10530000F0812A463346FBF784F9D4E90A23FBF7F8
:10531000D9F82A463346FBF77CF9D4E90823FBF792
:10532000D1F82A463346FBF774F9D4E90623FBF794
:10533000C9F82A463346FBF76CF9D4E90423FBF796
:10534000C1F82A463346FBF764F9D4E90223FBF798
:10535000B9F82A463346FBF75CF9D4E90023BDE8E7
:10536000F041FBF7AFB80000002213461046014998
:10537000FBF7C1B90000F03FFBF7A4B800221346C9
:1053800010461146FBF7B7B940F2013200204FF04A
:10539000E041FBF7B1BC0000024A00201107FBF717
:1053A000ABBC000001FDFFFF014800687047000032
:1053B0009409002002E008C8121F08C1002AFAD18F
:1053C00070477047002001E001C1121F002AFBD185
:1053D00070470000014908607047000094090020F0
:1053E0002DE9FF5F82B00021DDE90430020DDDF818
:1053F00040B0034318D044F61050A2F2FF324243AB
:105400001514119801281FD0A5EB0B00401C5FEA72
:10541000000A4FF000064E4FDFF83891B046504674
:1054200015D5CAF1000413E0119801244AA30128FC
:1054300001D16FEA0B010298119AC0E90031C0E96D
:10544000024206B0BDE8F09FCBF10000DFE7044662
:105450000021404A491842EB0450CDE9001012E007
:10546000E00707D032463B4640464946FBF7D1F8B5
:105470008046894632463B4610461946FBF7C9F836
:1054800006460F466410002CEAD1DDE90401DDE98F
:105490000023BAF1000F06DAFBF7BBF842464B4691
:1054A000FBF7B7F805E0FBF726F942464B46FBF75A
:1054B00022F904460E460022284BFBF747FA03D890
:1054C0004FF0FF30014607E00022254B20463146D1
:1054D000FAF7F8FFFBF70EFA102409E0002C0ADBBC
:1054E0000A220023FBF790FA039B30321A55641E00
:1054F00050EA0102F2D1641C039AC4F1110314446E
:10550000119A012A03D0012208430DD10AE0084371
:1055100004D000204FF0110B119072E7A3EB0B05A4
:105520006D1E0DE05B4504DD4FF0000205F1010545
:1055300004E003DA4FF00002A5F10105002AECD0E7
:1055400002981199C0E90231C0E9004579E70000ED
:10555000000014400000F03F300000000000F04365
:105560000000E03F30380A2801D2012070470020B7
:10557000704700002DE9FF4F95B09B4689460646CF
:1055800000250FE2252877D100242746F84A01217B
:10559000059400E0044316F8013F203B01FA03F0B4
:1055A0001042F7D130782A2811D06FF02F033078CD
:1055B000A0F13002092A16D8059A44F0020402EB41
:1055C000820203EB42021044761C0590EFE759F883
:1055D000042B0592002A03DA504244F4005405904B
:1055E00044F00204761C30782E2816D116F8010FEC
:1055F00044F004042A280DD06FF02F023078A0F177
:105600003003092B09D807EB870302EB4303C718C4
:10561000761CF3E759F8047B761C30786C280FD0A1
:1056200006DC4C2817D068280DD06A2814D104E075
:10563000742810D07A280FD10DE044F400140AE049
:1056400044F4801401E044F440147278824202D1A0
:1056500004F58014761C761C307866280BD013DC99
:10566000582877D009DC002875D04528F6D0462880
:10567000F4D047281AD19DE118E0632835D064287A
:1056800079D0652812D195E1702873D008DC67289D
:10569000F1D069286FD06E280DD06F2806D1B5E003
:1056A00073282CD0752875D0782874D05A4617994D
:1056B00090476D1C75E1C4F30250022809D00328FD
:1056C0000DD0D9F8001004280DD00D6009F104099F
:1056D00067E1D9F80010EA17C1E90052F6E7D9F8F6
:1056E00000100D80F2E70D70F0E719F8041B8DF83B
:1056F000001000208DF80100EA46012003E059F86F
:1057000004AB4FF0FF3061074FF0000102D40DE011
:1057100008F101018846B9420FDA8045F8DB1AF832
:1057200008100029F4D108E008F1010188468142FF
:10573000FADB1AF808100029F6D105985B46A0EBB1
:10574000080721463846179A00F094FA284400EBDF
:10575000080507E04DE029E10DE01AF8010B5A4673
:1057600017999047B8F10108F7D25B4621463846B1
:10577000179A13E142E00A220092C4F302524FF05A
:10578000000A022A08D059F804CB032A4FEAEC7128
:105790000AD00DE029E02AE009F1070121F0070213
:1057A000F2E802C1914609E00FFA8CFC4FEAEC7175
:1057B000042A03D14FFA8CFC4FEAEC71002907DA76
:1057C0000A460021DCF1000C61EB02012D2202E00F
:1057D000220504D52B228DF80420012203E0E207E4
:1057E00001D02022F7E7904659E00A2102E010227A
:1057F0000DE010214FF0000A00910BE010224FF055
:10580000000A44F004040827009203E008224FF045
:10581000000A0092C4F30252022A05D059F804CBC0
:105820000021032A08D009E009F1070121F007024D
:10583000F2E802C1914605E01FFA8CFC042A01D16E
:105840000CF0FF0C4FF00008220728D5702806D076
:10585000009B83F0100353EA0A0305D00EE04022B8
:105860008DF80420012208E05CEA010206D0302213
:105870008DF804208DF8050002229046009B83F0ED
:10588000080353EA0A030AD15CEA010201D1620764
:1058900005D530228DF804204FF001087F1E5828CE
:1058A00004D034A003900EA802900DE036A0F9E7D2
:1058B00053466046009AFBF7A7F884460398825C3B
:1058C0000298401E029002705CEA0100F0D102983A
:1058D00006A9081A00F1200A600702D524F48034D2
:1058E00000E00127574502DDA7EB0A0000E0002099
:1058F00000EB0A01009005984144401A0590E0032E
:1059000006D45B462146179A059800F0B3F9054482
:10591000002706E001A85A46C05D179990476D1C04
:105920007F1C4745F6DBE0030CD55B462146179A02
:10593000059800F09FF9054404E030205A46179975
:1059400090476D1C0099481E00900029F5DC08E086
:10595000029802995A460078491C0291179990477B
:105960006D1CBAF10001AAF1010AF1DC65E1000049
:105970000928010030313233343536373839616225
:1059800063646566000000003031323334353637E9
:1059900038394142434445460000000000F058F9C0
:1059A0000544761C307800287FF4ECAD19B0284609
:1059B000BDE8F08F620700D4062709F1070222F044
:1059C000070CFCE80223E14603F000485FEA080CFC
:1059D00002D00FF2702C0DE05FEA045C02D50FF2EA
:1059E000682C07E05FEAC47C02D00FF2602C01E073
:1059F000AFF2700C4FF0FF3823F00043CDF850C0E9
:105A000065280CD006DC452809D046281DD047283B
:105A10003DD13DE0662818D067287ED138E00021CE
:105A2000112F01DB112000E0781CCDE9000106A94F
:105A30000EA8FFF7D5FCDDE90F010E9A03910021B6
:105A4000009207F1010A04914DE04FF000400097E9
:105A5000CDE9011006A90EA8FFF7C2FCDDE90F028F
:105A600003920E9B11990022DDF80CA00093049282
:105A700011B9791C00EB010AB7EB0A0004D4C0F19C
:105A8000FF3007F1010A0490AAEB0700019044E0FF
:105A9000012F00DA01270021112F01DD112000E084
:105AA0003846CDE9000106A90EA8FFF799FCDDE90B
:105AB0000F010E9A0391002104910092BA4621072A
:105AC0000CD40399514500DA8A46BAF1010F05DD7D
:105AD000009AAAF10101515C302908D0B84202DADB
