:020000040800F2
:100000009838002045010008993E00080F020008BA
:10001000953E0008C11B0008A9560008000000001A
:10002000000000000000000000000000DB4C0008A1
:10003000291F00080000000097010008ED4D00088E
:100040005F0100085F0100085F0100085F01000810
:100050005F0100085F0100085F0100085F01000800
:100060005F0100085F0100085F0100085F010008F0
:100070005F0100085F0100085F0100085F010008E0
:100080005F0100085F0100085F0100085F010008D0
:100090005F0100085F0100085F0100085F010008C0
:1000A0005F0100085F0100085F0100085F010008B0
:1000B0005F0100085F0100085F0100085F010008A0
:1000C0005F0100085F0100085F0100085F01000890
:1000D0005F010008F95100088952000861530008C7
:1000E0005F0100085F0100085F0100085F01000870
:1000F0005F0100085F0100085F0100085F01000860
:100100005F0100085F0100085F0100085F0100084F
:10011000D54F00082D5100085F0100085D4E000812
:100120005F0100085F0100085F0100085F0100082F
:10013000DFF80CD000F070FE00480047F71500080B
:10014000983800200648804706480047FEE7FEE74B
:10015000FEE7FEE7FEE7FEE7FEE7FEE7FEE7FEE777
:10016000FD4D000831010008EFF3108072B67047B2
:1001700080F310887047324A1368012B04D04FF087
:10018000010313602F4A10602F4A11602F484FF06F
:10019000805101607047EFF3108272B62848016801
:1001A00091B14FF0000101602648016829B1EFF3D9
:1001B000098121E9F00F0068016023490968096895
:1001C000B1E8F00F81F3098882F310884EF0040E35
:1001D00070471D4908601B494FF00000086018492E
:1001E0004FF0010008601A484FF47F01D0F800205A
:1001F00041EA0201016015484FF080510160154845
:100200000068006880F3088861B662B670471EF027
:10021000040F14BFEFF30880EFF3098020E9F00F1B
:1002200040F804ED14BF80F3088880F3098800B516
:1002300007F00EFB5DF804EB4EF0040E7047000073
:1002400068020020600200206402002004ED00E04B
:1002500020ED00E008ED00E040EA01039B0703D039
:1002600009E008C9121F08C0042AFAD203E011F8F5
:10027000013B00F8013B521EF9D27047D2B201E0B7
:1002800000F8012B491EFBD270470022F6E710B59B
:1002900013460A4604461946FFF7F0FF204610BDF4
:1002A00030B505462A460B4612F8010B13F8014BF0
:1002B00008B1A042F8D01CB1002802D06D1CF1E7B3
:1002C000284630BD10B5044604E00B7800F8013B29
:1002D00003B1491C521EF8D2204610BDCAB2401EBE
:1002E00010F8011F8A4202D00029F9D1002070477E
:1002F00010B5002200E0521C835C8C5CA34201D14B
:10030000002BF8D1D8B2E1B2401A10BD0FB400B53D
:100310008DB010A909900B9000914FF0FF300A901A
:1003200000200C9005480690054807906A4609A8E9
:100330000F9900F049FC0DB05DF814FBE50B0008C7
:10034000030C00082DE9FF5FD2E901A74FF0000878
:10035000916999461446DDF838B0464601988847B9
:10036000054659EA0B0005D009E0A169761C019801
:1003700088470546216A284688470028F5D1681C29
:1003800003D05FEACA7005D015E04FF0FF3004B02B
:10039000BDE8F09F2068011D2160D0F800800AE0D0
:1003A0005FEACA7001D108F8015BA169761C7F1E63
:1003B000019888470546002F1ADD681C18D0B9F14E
:1003C000000F0DD0E81705EBD060421120F01F00A0
:1003D00059F822102A1A012090400142E0D107E08A
:1003E000BBF1000FDCD1216A284688470028D7D00E
:1003F000E16901988847BBF1000F07D1002E05DDA8
:100400005FEACA7002D1002188F80010A068B842E3
:1004100003DDBBF1000F03D017B16FF00100B6E7A9
:100420003046B4E7F0B480EA0102D40F4200B2EBE8
:10043000410F02D20246084611464A0042D0C30D7F
:10044000DDB2C1F3C752AD1A202D35DAC1F3160162
:1004500041F4000204B15242C5F1200602FA06F14D
:100460002A411044B3EBD05F23D0C4B1012DA0EBDF
:10047000C35009DCF0BC4FF0004202EAC352DBB2C9
:1004800000F5000000F025BC400000F1807000EB9A
:10049000C350A0F1807040EAD170490009E04908DA
:1004A00041EAC071A0EBC35000F50000400800EB2A
:1004B000C350F0BC00F004BC6142012202EB4101D8
:1004C000001BF6E7F0BC704781F00041AAE780F01E
:1004D0000040A7E780EA010210B502F000434000A7
:1004E00022D04A001FD0010E01EB1261C0F356006A
:1004F000C2F3560240F4000042F40002A0FB0220C6
:1005000000047F39140400D0401C50EA124001D48A
:100510004000491EC2B20C0604EBD010401C40083B
:10052000802A02D003E0002010BD20F00100002945
:1005300000DA0020184310BD30B480EA010202F056
:10054000004530F0004221F0004013D090B1C30DBF
:10055000D40DC2F31601C0F31600E41A41F40001F1
:1005600040F400027D34914201D3641C00E0490054
:10057000002C02DA30BC002070474FF4000000234A
:10058000914201D3891A034340084FEA4101F7D150
:1005900051B1914202D14FF0004105E002D24FF03B
:1005A000010101E06FF0010103EBC450284430BCAD
:1005B00000F086BB2DE9FE4F804681EA0300C00FA4
:1005C0000C46009021F0004123F00045B8EB0200FA
:1005D000A94105D24046214690461C460B4602469C
:1005E00023F00040104347D0270DC7F30A00C3F3A0
:1005F0000A510290401A019040286BDAC3F31300AD
:1006000040F4801B0098924620B10023D2EB030AED
:1006100063EB0B0B01985946C0F14002504600F0C5
:100620009CFA06460D4650465946019A00F0B4FA27
:1006300010EB08006141002487EA115284EAE77355
:100640001A4340D0009A62B3019A012A4FEA075236
:1006500015DC001B61EB02014FF0004202EA075279
:10066000CDE90042001C41F5801132462B4600F0D6
:100670006DFB03B0BDE8F08F40462146F9E7001B53
:1006800061EB0201001C41F5801300185B4120184A
:10069000A2F5001747EB030140EAD570B6196D418A
:1006A00011E06D084FEA360645EAC0754FEA075279
:1006B000001B61EB0201001C41F5801149084FEA63
:1006C00030000019514132462B4603B0BDE8F04FCF
:1006D00000F02DBB0098012240000023D0EB020265
:1006E00063EBE073009821464FEAE074B8EB00003A
:1006F00061EB0401E9E783F000435BE781F000412F
:1007000058E72DE9FE4F81EA030404F0004421F08C
:10071000004100944FF0000B23F0004350EA010425
:100720005ED052EA03045BD0C3F30A54C1F30A5506
:100730002C44A4F2F3340194A0FB0254C1F313013E
:1007400041F48011C3F3130343F4801301FB02440B
:1007500000FB034E840A970A44EA815447EA835710
:10076000A4FB076802958D0A05FB07854FEA932CC9
:1007700004FB0C542705029D4FEA065847EA16373A
:10078000B5EB08056EEB070C870E920E47EA811752
:1007900042EA8312A7FB0201B6EB0B0164EB0004F3
:1007A0002B0D43EA0C335E1844EB1C50DA465146DD
:1007B000E7FB0201C5F313044FEA0B3343EA14537A
:1007C0004FEA0432019C43EA0603A4F10C040294AC
:1007D000009CCDE900B400F0B9FA03B0BDE8F08F99
:1007E00000200146F9E72DE9F04D81EA030404F009
:1007F000004B21F0004514464FF0000A23F0004161
:1008000050EA050220D054EA01021DD0C5F30A5770
:100810000246C5F31303C1F31300C1F30A5640F4B3
:10082000801543F48013A7EB0608101BD64608F288
:10083000FD3873EB050002D308F1010801E09218BE
:100840005B41B8F1000F03DA00200146BDE8F08DEE
:1008500000204FF48011064684460EE0171B73EB10
:10086000050705D3121B63EB050306434CEA010C95
:1008700049084FEA300092185B4150EA0107EDD178
:1008800052EA030012D082EA040083EA0501084319
:1008900005D0101BAB4106D20122002306E0002246
:1008A0004FF0004302E06FF0010253101AEB060014
:1008B0004CEB085110EB0A0041EB0B01BDE8F04D89
:1008C00000F035BAC10F80EAE0700844CA079623E9
:1008D000002100F0FEB996230022114600F0F9B97C
:1008E0000EB5C10F80EAE0700844CA07002140F24B
:1008F00033438DE80E000A460B4600F027FA03B09A
:1009000000BD0EB540F2334202920022CDE9002232
:10091000134600F01BFA03B000BD00F0004220F0C7
:100920000040C10DC0F3160040F400007F2901DA39
:1009300000207047962903DCC1F19601C84001E010
:1009400096398840002AF4D04042704720F0004099
:10095000C10DC0F3160040F400007F2901DA002029
:100960007047962903DCC1F19601C840704796395B
:100970008840704770B5C1F30A5201F00045002469
:10098000C1F3130140F2FF3341F480119A4201DABE
:10099000002070BD40F233439A42A2F2334203DC9E
:1009A000524200F0E9F800E090402C43F1D0404280
:1009B00070BDC1F30A5210B5C1F3130140F2FF3309
:1009C00041F480119A4201DA002010BD40F2334315
:1009D0009A42A2F2334203DC524200F0CDF810BD3D
:1009E000904010BDC1F30A52C1F3130140F2FF332E
:1009F00041F480119A4202DA00200146704740F229
:100A000033439A42A2F2334202DC524200F0B4B8BD
:100A100000F0A3B800F0004230F000400AD0C10D51
:100A200001F56071C0F3160042EA0151C2084007A7
:100A300011437047002001467047000030B5041E86
:100A400071F1000404DB4FF00044404264EB01010B
:100A5000141E73F1000405DB1C464FF000435242A4
:100A600063EB0403994208BF904230BD01F000439C
:100A700030B421F0004150EA010206D00A0DA2F57F
:100A80006072C1F31301002A02DC30BC0020704701
:100A9000440F44EAC104C100E01830BC00EBC2506E
:100AA00000F00EB9002801DBC0F10040002901DB95
:100AB000C1F1004181427047002801DBC0F10040D4
:100AC000002901DBC1F100418842704730B50B4677
:100AD000014600202022012409E021FA02F59D426E
:100AE00005D303FA02F5491B04FA02F52844151E42
:100AF000A2F10102F1DC30BD2DE9F05F05460020D6
:100B000092469B4688460646814640241BE028467E
:100B100041464746224600F02FF853465A46C01A2F
:100B2000914110D311461846224600F016F82D1AAE
:100B300067EB01084F4622460120002100F00DF826
:100B400017EB00094E41201EA4F10104DFDC4846EA
:100B500031462A464346BDE8F09F202A04DB203A6E
:100B600000FA02F1002070479140C2F1200320FA00
:100B700003F3194390407047202A04DB203A21FAFE
:100B800002F00021704721FA02F3D040C2F12002A6
:100B90009140084319467047202A06DBCB17203ABC
:100BA00041FA02F043EAE07306E041FA02F3D04072
:100BB000C2F120029140084319467047026811446F
:100BC0001378016018467047D160044951610449A7
:100BD000116200211161114600F036B9BD0B000809
:100BE0003D0E0008426842B1016811F8013B23B193
:100BF000521EC0E90012184670470121C160881ECC
:100C0000704742685AB1C368016843B983688B4230
:100C100005D0491E521CC0E90012002070474FF059
:100C2000FF3070470FB4002300B589B00CA90091C4
:100C30000B996FF00042CB601E4B06931E4B07933F
:100C40000423CDE901321D4A089202466B4600207A
:100C500000F024FB09B05DF814FB70B586B00646C1
:100C60004FF0FF300091CDE90101002015460C4600
:100C700004903246694604A8FFF7D4FF0246049860
:100C8000211825B108B1084600E0204628600498E4
:100C900000280DD0002A02DD0098884208D0081BE9
:100CA0000094CDE901043246694604A8FFF7BAFF73
:100CB00006B070BDE50B0008030C00083D0E0008EF
:100CC0000029A8BF7047401C490008BF20F0010060
:100CD000704710B4B0FA80FC00FA0CF050EA01043E
:100CE00004BF10BC704749B1CCF1200421FA04F4D0
:100CF00011FA0CF118BF012121430843A3EB0C01A9
:100D0000CB1D4FEA00614FEA102042BF002010BC0B
:100D1000704700EBC35010440029A4BF10BC7047BB
:100D2000401C490008BF20F0010010BC704710B5FE
:100D3000141E73F1000408DA401C41F100019218FE
:100D40005B411A4301D120F0010010BD2DE9F04DA7
:100D500092469B4611B1B1FA81F202E0B0FA80F2FC
:100D600020329046FFF7F9FE04460F4640EA0A009B
:100D700041EA0B0153465A46084313D0114653EA41
:100D8000010019D0C8F140025046FFF7F5FE0546B4
:100D90000E46504659464246FFF7DFFE084305D04F
:100DA000012004E020463946BDE8F08D00200543CF
:100DB00046EAE0762C4337430A986305E40AA0EB41
:100DC00008000022FD0A44EA47540A3002D50020F8
:100DD0000146E9E7010510196941DDE908450019F7
:100DE0006941BDE8F04DA2E770B521F0004303432F
:100DF0000CD0C1F30A550024D5EB040564EB0403C1
:100E0000D617AD1AB34102DB0020014670BD201891
:100E100041EB025170BD0000064C074D06E0E06852
:100E200040F0010394E8070098471034AC42F6D331
:100E3000FFF782F9A09A0008C09A0008C0B24FF4E8
:100E4000F05100F099BB00002DE9F34F8BB04FF04B
:100E5000000801F10C000C464FF0010B46460DF165
:100E6000080A01906269012101989047051E2DD062
:100E7000252D2CD0216A8847C0B1626901210198D3
:100E80009047216A88470028F7D1411E626901987E
:100E9000904700E0761CA1690B988847216A884733
:100EA0000028F7D1E1690B988847DBE7A1690B9827
:100EB00088470746A84201D1761CD3E7E1690B9821
:100EC00088477F1C02D1B8F1000F6FD046E10027A0
:100ED00062693D463946019890472A2804D16269E3
:100EE0000121019890470125DFF884926269012170
:100EF00001989047A0F130010A290AD24F45E5DC5C
:100F000007EB870100EB4107303FDFD445F01005C8
:100F1000ECE7E90601D46FF000476C280AD04C28B2
:100F200014D0682815D06A280DD074281CD07A28CF
:100F30001AD01DE062690121019890476C2802D007
:100F400045F0040514E045F002050DE045F02005EC
:100F50000AE06269012101989047682802D045F0B3
:100F6000080505E045F40065626901210198904794
:100F7000C4E9015765283DD019DC58287AD00CDC2B
:100F8000452837D004DC252826D0412831D131E04E
:100F900046282FD047282CD12CE05B2877D0612819
:100FA00028D063287CD0642823D15AE0D0E06F2871
:100FB00048D008DC66281DD067281BD0692821D0BE
:100FC0006E2816D127E0702845D0732868D0752880
:100FD00047D078280DD14DE0A1690B988847054688
:100FE00025283FF469AFE1690B9888476D1C3FF4F1
:100FF0006AAFB3E023466A466FF001000B9900F038
:101000004DF99EE045F040006060A80723464FF090
:10101000000236D43EE0E8077FF447AF2068011DA8
:1010200021600068290501D506701BE7290701D555
:10103000068017E7A90703D5F117C0E9006111E79A
:1010400006600FE745F040006060A80723464FF0B8
:10105000080216D41EE040F60E0125EA0100606089
:1010600016E045F040006060A80723464FF00A02F2
:1010700007D40FE045F040006060A80708D523467C
:1010800010226FF001000B99AFF3008059E007E0E8
:10109000234610226FF001000B99AFF3008050E05F
:1010A0004FF000094F464B46632802D05B2806D01C
:1010B00040E0E80601D40120A06001273AE062691F
:1010C0000121019890475E2805D14FF0010962691E
:1010D000494601989047216939B900210A4653468B
:1010E00043F82120491C0829FADBB0B3216969B90A
:1010F000C11700EBD16253110AEB830122F01F02EA
:10110000821A01200B68904003430B606269012141
:10111000019890475D28E8D1B9F1000F09D000206F
:10112000514651F82020D24341F82020401C082885
:10113000F7DB02AB224600976FF001000B99FFF737
:1011400001F900280CDA401C08D1BBF1000F05D0D2
:101150004FF0FF300DB0BDE8F08FFFE74046F9E7F4
:10116000E90701D108F1010806444FF0000B79E6C8
:10117000CCCCCC0C2DE9FF4F087883B09946FF28E2
:1011800005D0491C2D2804D00024002008E00020B0
:101190000BE00124F9E700EB800003EB4000491C61
:1011A0000B78FF2BF7D104B140420023029314784F
:1011B00019461D462D2C01D02B2C04D1521C2D2C50
:1011C00013D000240294AA461478FF2C0FD00A25CD
:1011D000A3FB057801FB05814FF0000C03FB0C110C
:1011E000521CE3194AEB0101EEE70124EAE78144CE
:1011F00053EA010002D019F5C87F06DA03980021EE
:10120000C0E9001107B0BDE8F08F0025AE4E2F46B3
:10121000DFF8B8821846FFF774FBCDE90001B9F199
:10122000000002DAC9F1000400E004460023A74AE6
:101230001AEB030B42EB045A12E0E00707D02A46F0
:10124000334638464146FFF75CFA074688462A4649
:10125000334610461946FFF754FA05460E46641009
:10126000002CEAD1DDE90001B9F1000F5A465346DE
:1012700006DAFFF7B8FA3A464346FFF7B4FA05E054
:10128000FFF73FFA3A464346FFF73BFA029A0AB1A4
:1012900081F00041039AC2E90001B3E72DE9FF4F55
:1012A0001F468DB0D7E901464FF0FF382E20454646
:1012B0004FF000090B90B9696D1C0E988847396A88
:1012C000824688470028F6D1BAF1FF3F0AD024F4BD
:1012D000D064002E11DDBAF12B0F08D0BAF12D0F1A
:1012E0000BD102E0404611B08DE744F48064B96947
:1012F0006D1C0E9888478246761E6946600501D5AA
:101300002D2000E02B208DF8000001F1010B0DF1E4
:10131000200809E0B9696D1C0E98884782460F982D
:1013200044F40074761E0560002E02DDBAF1300F21
:10133000F0D00B998A453ED144F0800406E00F9925
:10134000681CA9F1010944F400740860B9696D1CB6
:10135000761E0E98884782463028F0D02BE00B99F5
:101360008A4505D1200603D444F08004761E18E097
:10137000504604F06DFB08B30DF11301761E44F4E2
:1013800000748B4508D2AAF130000BF8010B20063F
:1013900007D5A9F1010003E0200602D409F10100FC
:1013A0008146A00502D50F99681C0860B9696D1CBB
:1013B0000E9888478246002ED1DC53E0002E51DD86
:1013C000BAF1650F02D0BAF1450F4BD1A00549D54E
:1013D000B9696D1C24F44074761E0E9888478246C5
:1013E000002E0CDD2B2804D0BAF12D0F07D144F4C8
:1013F0008074B9696D1C0E9888478246761EE00598
:1014000001D52D2100E02B2108F8011BCDF82C80FF
:1014100021E00DF12901761E44F4007488450CD2B8
:10142000AAF1300010F0FF0088F8000002D10B99FB
:10143000884509D908F1010806E0E00501D52448EE
:1014400001E042F20F708146B9696D1C0E98884721
:1014500082460F980560002E04DD504604F0F8FA2D
:101460000028D6D1F9690E988847FF208BF8000034
:1014700088F800000020069007904B466A4608A9AD
:1014800006A8FFF777FEA00502D46FF001002AE757
:1014900014F0240F0AD0E00714D1DDE906123868F1
:1014A000031D3B600068C0E900120BE0DDE90601A6
:1014B000FFF7DCFA0146E00704D13868021D3A6004
:1014C0000068016028460EE7000014400000F03F6D
:1014D000F1D8FFFF2DE9F04D00231A461B1A8A416F
:1014E00003DB00200146BDE8F08DC1F30A52C1F3D1
:1014F000130141F480154FF0000BD10702D1001801
:101500006D41521E0027044640F2FF11384601EBA0
:10151000620A3E468046024600204FF48011FFF7E3
:101520002BFBC2197141BB1846EB0100B4EB030C55
:1015300075EB000C04D3E41A65EB000517460E4664
:10154000241908F101006D4180463428E3DDF919C2
:1015500046EB0600091BA84103D24FF0FF321346A9
:1015600001E0002213461BEB070046EB0A51BDE8E1
:10157000F04DFFF7DCBB00007F2801D9002208E016
:10158000064A02EB5002C007127800D1120902F09D
:101590000F02012090400840704700004895000865
:1015A00070B58C1810F8015B15F0070301D110F825
:1015B000013B2A1106D110F8012B03E010F8016B52
:1015C00001F8016B5B1EF9D12B0705D40023521ED5
:1015D0000DD401F8013BFAE710F8013BCB1A921C3D
:1015E00003E013F8015B01F8015B521EF9D5A1423B
:1015F000D8D3002070BD10B5FEF7B6FD07F07CF91A
:10160000002010BDCA430260704721B1826842F0D9
:101610000102826003E0826822F00102826070476A
:1016200010B504461248844208D10121401503F048
:101630008BF90021601503F087F917E00D4884420B
:1016400008D10121001503F07FF90021201503F0D6
:101650007BF90BE00848844208D10121C80303F05C
:1016600073F900214FF4004003F06EF910BD000043
:101670000024014000280140003C014001460020B8
:101680008A6802F004020AB1012000E000207047DD
:101690000146C86C80B270470246002013680B40B8
:1016A0000BB1012000E000207047014600208A684D
:1016B00002F008020AB1012000E00020704700009B
:1016C00030B502460020002350680F4C20400D79B1
:1016D0000C6844EA05242043506090680B4C20407D
:1016E000D1E902542C434D7944EA450420439060EB
:1016F000D06A20F470000C7C641EE4B2234340EAFC
:101700000350D06230BD0000FFFEF0FFFDF7F1FF97
:10171000F0B504460D4600200021092D11DDE068DA
:10172000A5F10A0606EB4607072606FA07F18843E5
:10173000A5F10A0606EB460603FA06F10843E06047
:101740000CE0206905EB4507072606FA07F18843F8
:1017500005EB450603FA06F108432061072A0FDA74
:10176000606B561E06EB86071F2606FA07F18843B4
:10177000561E06EB860605FA06F10843606322E072
:101780000D2A0FDA206BD61F06EB86071F2606FAF6
:1017900007F18843D61F06EB860605FA06F10843D3
:1017A000206310E0E06AA2F10D0606EB86071F2613
:1017B00006FA07F18843A2F10D0606EB860605FA44
:1017C00006F10843E062F0BD816841F008018160E4
:1017D000704721B1826842F4A002826003E082680F
:1017E00022F4A00282607047816841F004018160A8
:1017F000704700002DE9F04F8FB0002406200D90B7
:101800009D48D0E90E5600BF53E0C4F10A00FFF72F
:1018100067F802460B46CDE902010020974904F023
:101820009DFFCDE9060128463146FFF76AF8CDE96C
:101830000401DDE90623FEF7D6FF07460022904BA0
:10184000FEF7B8FE8246FFF7B4F88E490855C4F19A
:101850000A00FFF745F8824652460B4600208749AA
:1018600004F07CFF074688468649095DA1F13000F7
:10187000FFF736F83A464346CDE90001FEF741FF4F
:10188000CDE9040128463146FFF73BF8CDE90201D6
:10189000DDE90423FEF72FFFCDE90601FFF7A2F8EB
:1018A00005460E467748015DE01C774A1154601CDE
:1018B000C4B20B2CA9DB142108A8FEF7E6FC714A80
:1018C00072A108A803F002FF73488078012807D0AE
:1018D0007148C078012803D06F48407801287DD135
:1018E0006E48007938B36C488078012803D06A4884
:1018F000C07801281FD14FF48041694800F018FEDC
:1019000065488078012809D16448407830B9634837
:10191000807818B90020604988700CE05E48C07873
:10192000012808D15D48407828B95C48807810B912
:1019300000205949C8705948407848B34FF40051C5
:10194000584800F0F3FD4FF40041554800F0EEFD1B
:1019500051488078012806D15048807818B9002075
:101960004D49887014E04C48C078012806D14B4896
:10197000807818B900204849C87009E04648407886
:10198000012805D14548807810B9002042494870A7
:101990004248807800286BD03F48807801280DD1DC
:1019A00000203D49887040A1364802F02FF94FF4DD
:1019B000FA7004F027FD00F093F924E03648C0786F
:1019C00001280FD100203449C87040A12D4802F0F1
:1019D0001DF94FF4FA7004F015FD00E030E000F05E
:1019E0007FF910E02C48407801280CD100202A49CA
:1019F00048703EA1234802F009F94FF4FA7004F050
:101A000001FD00F06DF908A803F050FE16E04FF458
:101A10000041234800F08CFD01F08EF93AA13C48CA
:101A2000FEF73EFC814600F063FBB9F1000F05D0E4
:101A300038A003F025FE00F053F900E0E7E717E0D7
:101A400015488078A0B91448C07888B94FF480410F
:101A5000134800F06BFD1048407848B94FF400512E
:101A6000104800F065FD4FF400410D4800F060FDA6
:101A70000FB0BDE8F08F00000801002000002440F6
:101A800000004840680100207401002041544425B2
:101A9000733B0D0A00000000480000206000002099
:101AA00000100140000C01405468657265206973A4
:101AB00020616E206F70656E20666C616D652069B7
:101AC0006E2074686520726F6F6D0000536D6F6BD0
:101AD00065206F7220676173206C65616B7320698C
:101AE0006E2074686520686F6D650000546865201D
:101AF000686F7573652077617320747265737061A8
:101B0000737365640000000043414C4C000000000A
:101B1000472F0020CDA8BBB0D2D1BEADBDE1CAF8E1
:101B20000D0A000010B500F0E3FA01F005F9FFF727
:101B300061FE01F001F90948807850B90748C07882
:101B400038B90648407820B90548006806F06EFAB2
:101B500003E00448006806F069FA10BD4800002060
:101B60003800002034000020002400F08BFA08E048
:101B70004FF0FF310348006806F075FA0CB9FFF723
:101B8000D1FFF5E73400002008B50121102002F054
:101B9000CBFE4FF40040ADF8000010208DF803009C
:101BA00003208DF802006946044800F02BFC4FF436
:101BB0000041024800F0BCFC08BD000000100140DC
:101BC00000BFFEE72DE9F04104460D460821202024
:101BD00003F008F802F0E2FF0646370C1FFA86F819
:101BE0002760C5F80080BDE8F08100002DE9F04FC6
:101BF00087B082468B4600200590049004AA05A970
:101C0000442003F00DF8BDF81400FEF764FE0190C7
:101C1000FEF700FF064600222A4BFEF772FD002267
:101C2000294BCDE90201FEF7DEFD04460022274BD9
:101C3000FEF761FD8046FEF719FFCAF80000BDF807
:101C40001000FEF748FE0390FEF7E4FE80460022F7
:101C50001F4BFEF756FD064600221B4BFEF7C3FD49
:101C60000446FEF703FFCBF800001A49DAF800003B
:101C7000FEF722FF1AD81849DAF80000FEF712FF23
:101C800014D80021DBF80000FEF716FF0ED8134928
:101C9000DBF80000FEF706FF08D8DAF80000CAF803
:101CA0000000DBF80000CBF8000004E00020CAF8D8
:101CB0000000CBF8000000200490059007B0BDE8BC
:101CC000F08F000000E06540E0FFEF4000804640FC
:101CD000000059400000A0C10000FA420000C842C4
:101CE00010B5094803F0CCFC002404E000200649AC
:101CF0000855601C84B2B4F5A56FF7DD00200349D8
:101D0000088001F019F810BD472F0020380300208B
:101D100010B5002404E0002006490855601C84B278
:101D2000B4F5A56FF7DD00200349088001F004F841
:101D300010BD0000472F00203803002070B500249C
:101D400029E00121154800F0F3FB4FF48C7004F0FA
:101D50009BFB01211248FFF73CFD00BF0221104808
:101D6000FFF79AFC0128F9D10D48FFF791FC0546D1
:101D700000F0EEFA02210A48FFF744FC132004F0B9
:101D800083FB0121054800F0D1FB42F2D05004F062
:101D90007BFB601CC4B2142CD3DB70BD001001406F
:101DA0000028014026480078F4283FD12448407894
:101DB000F3283BD122488078F22837D12048C078D8
:101DC000F12833D11E48C079AA2826D11C48407C6E
:101DD000552822D11A48007A1A4908701848407AC2
:101DE0001749897A00EB0120164948701448C07AD7
:101DF00088701348007B1249497B00EB0120114990
:101E0000C8700F48807B08710D48C07B0C49097C65
:101E100000EB01200B49487110E0002009490870CF
:101E200048708870C8700871487107E00020054943
:101E3000087048708870C870087148717047000059
:101E4000301F00203223002010B53548407801288B
:101E500065D10020324948700846007901280CD12C
:101E60000020C8712F48C079132858D12D48007A16
:101E7000002854D104F01CFC51E0294800790228C4
:101E800013D100202649C87126488079042809D139
:101E90002448C079122805D12248007A10B904F0EC
:101EA00019FC3CE004F018FC39E01D4800790328D7
:101EB00010D100201A49C8711A48807902282ED101
:101EC0001848C07920282AD11648007A38BB04F077
:101ED000DDFB24E012480079042810D100201049CD
:101EE000C87110488079022819D10E48C07921287C
:101EF00015D10C48007A90B904F0B6FB0FE0084801
:101F00000079062803D100200549C87107E004487C
:101F10000079072803D100200149C87100BF10BD16
:101F2000EA020020DE290020704710B500F004F816
:101F300000F06CF810BD000008B50121102002F07F
:101F4000F3FC0820ADF8000000208DF8030003200A
:101F50008DF802006946024800F054FA08BD0000FE
:101F6000001001402DE9F05F14210D2000F036F83B
:101F70000446FEF7B0FC82465046FEF74BFD804615
:101F80000022074BFEF72FFC06460022054BFEF70A
:101F9000B8FB0446FEF76AFD83465846BDE8F09F4D
:101FA0000000B04000C8A94010B504460723012234
:101FB00021460948FFF7ACFB01210748FFF709FC60
:101FC00000BF02210448FFF767FB0028F9D0024850
:101FD000FFF75EFB10BD0000003C01402DE9F04121
:101FE00007460C460025002608E03846FFF7DCFFD0
:101FF0000544052004F006FA701CC6B2A642F4DBC4
:10200000B5FBF4F080B2BDE8F081000000B585B00A
:102010000121C80302F088FC002000908DF8040024
:102020008DF805004FF460200290002003900120FD
:102030008DF8100069461248FFF742FB4FF440400C
:1020400002F046FC052301220D210D48FFF760FB3D
:1020500001210B48FFF7D9FA0948FFF7B5FB00BF8C
:102060000748FFF722FB0028FAD10548FFF7BCFB21
:1020700000BF0348FFF702FB0028FAD105B000BDFE
:10208000003C014010B500F057FF01F05BFF122249
:1020900002212D2002F020F813220221412002F01B
:1020A0001BF8162204210F2002F016F81722042133
:1020B000232002F011F818220421372002F00CF836
:1020C000192204214B2002F007F81A2204215F2074
:1020D00002F002F8012004F0CBF901F033FF00F028
:1020E0002BFE0248006805F0A1FF10BD340000205F
:1020F00010B501F029FE37494861FFF733FF354934
:10210000886135480078087788693449FEF7D4FC3F
:1021100004D2012032498870887403E000203049DD
:10212000887088742B4948692E49FEF7C5FC04D293
:1021300001202B49C870C87403E000202849C870EA
:10214000C8742448007F012807D02248007F022855
:1021500003D02048007F032804D1012020490870C3
:10216000087406E01B48007F18B900201C4908705D
:1021700008741D48407901280BD100F043FAFFF79D
:1021800063FE0020184948710846007A401C087216
:102190001EE01548807901280BD100F01DFAFFF7E9
:1021A00053FE0020104988710846407A401C48724E
:1021B0000EE00D48C07901280AD100F039FAFFF786
:1021C00043FE00200849C8710846807A401C887286
:1021D00010BD0000AC1A002032230020000048434C
:1021E000480000200000C8425D01002010B5FFF744
:1021F0008FFD01F037FA01F07FFBFFF789FD5022D8
:1022000002490348FEF728F810BD0000B80000207E
:102210000801002010B50A49081FFFF7D3FC084940
:102220000C39081FFFF7E2FC00F0A8F80449103948
:1022300088600448407808620248C078486210BD4F
:10224000BC1A00203223002010B500F05BF800F02B
:102250009DF810BD2DE9F04F87B00025002405E062
:10226000214830F814000544601CC4B2142CF7DB7C
:102270002846FEF730FB83461C49FEF75DF982468F
:10228000FEF7C8FB00221A4BCDE90201FEF7ABFABC
:1022900007460022174BFEF734FACDE90401FEF79A
:1022A000E5FB06463046FEF7B5FB07460022124B1B
:1022B000FEF799FA114A124BCDE90001FEF721FA17
:1022C00000221346CDE90201FEF715FA82460022EC
:1022D000094BFEF716FACDE90401FEF7C7FB81466C
:1022E000484607B0BDE8F08F703400200000A041E0
:1022F0000000B04000C8A94000408F40C74B37895C
:102300004160C53F08B50121102002F00DFB0220FD
:10231000ADF8000000208DF8030003208DF80200C6
:1023200069460A4800F06EF80120ADF80000102060
:102330008DF8030003208DF802006946034800F081
:1023400061F80121014800F0F1F808BD00100140DA
:102350000849094A127821F8120007490978491CEE
:10236000054A117011460978142901D10021117014
:1023700070470000703400203A03002010B5FFF7CA
:10238000DDFCFFF767FF0446204610BD00B585B0B1
:102390000121880202F0C8FA002000908DF80400A4
:1023A0008DF805004FF4602002900020039001207A
:1023B0008DF8100069461248FFF782F94FF440404B
:1023C00002F086FA052301220B210D48FFF7A0F940
:1023D00001210B48FFF719F90948FFF7F5F900BF8C
:1023E0000748FFF762F90028FAD10548FFF7FCF922
:1023F00000BF0348FFF742F90028FAD105B000BD3D
:10240000002801402DE9F041024600250026002069
:1024100000230024002791F803C00CF00F0591F869
:1024200003C00CF0100CBCF1000F03D091F802C0F7
:102430004CEA050591F800C0BCF1000F31D01468DA
:1024400000202BE04FF0010C0CFA00F3B1F800C0B3
:102450000CEA03069E4220D183004FF00F0C0CFAC9
:1024600003F7BC4305FA03FC4CEA040491F803C0EB
:10247000BCF1280F06D14FF0010C0CFA00FCC2F899
:1024800014C00AE091F803C0BCF1480F05D14FF029
:10249000010C0CFA00FCC2F810C0401C0828D1D373
:1024A0001460B1F800C0BCF1FF0F34DD54680020A7
:1024B0002EE000F1080C4FF0010808FA0CF3B1F817
:1024C00000C00CEA03069E4221D183004FF00F0C9E
:1024D0000CFA03F7BC4305FA03FC4CEA040491F838
:1024E00003C0BCF1280F05D100F1080C08FA0CF864
:1024F000C2F8148091F803C0BCF1480F07D100F175
:10250000080C4FF0010808FA0CF8C2F81080401CC3
:102510000828CED35460BDE8F081024600209368BD
:102520000B400BB1012000E0002070474161704773
:102530000161704710B5044607230122214609486E
:10254000FFF7E6F801210748FFF743F900BF022132
:102550000448FFF7A1F80028F9D00248FFF798F8DF
:1025600010BD0000002401402DE9F04107460C4653
:102570000025002608E03846FFF7DCFF054405206B
:1025800003F040FF701CC6B2A642F4DBB5FBF4F0CA
:1025900080B2BDE8F081000010B532210B48FDF794
:1025A00074FE32210A48FDF770FE00200749888634
:1025B000074988860C2007490870002048708870F9
:1025C000C8700871C8718871487110BDA8290020B1
:1025D000DE290020EA02002010B5FFF7DDFF0A2007
:1025E0000649087004200871054800F0A3F800BFF0
:1025F000024840780028FBD010BD0000EA0200200D
:102600008B02002010B5FFF7C7FF0C2006490870A9
:1026100001200871054800F09BF800BF024840788F
:102620000028FBD010BD0000EA0200207902002043
:1026300010B5FFF7B1FF0C200649087002200871A1
:10264000054800F085F800BF024840780028FBD01C
:1026500010BD0000EA0200207102002010B50446FF
:10266000EF2C03D02F480078012859D101202D49A3
:1026700008702D48818E2D480078401E81422AD056
:102680002948808E28490C540846808E401C888634
:102690000846007A012817D00846007A062813D089
:1026A0000846007A07280FD00846007A08280BD081
:1026B0000846007A092807D00846007A0A2803D07D
:1026C0000846007A03282BD10120184948700020C1
:1026D0001449087024E01448818E14480078401E84
:1026E00081421DD11048808E0F490C543221104870
:1026F000FDF7CBFD0C48828E01460D48FDF7ACFD81
:102700000948808E0A4988860020064908700649D3
:10271000888632210448FDF7B8FD0120034948703E
:1027200010BD0000F2020020A8290020EA020020CB
:10273000DE29002070B50446002500BF05E014F82E
:10274000010B02F061FE681CC5B20A2DF7DB70BDFB
:1027500070B50446002500BF05E014F8010B02F037
:1027600053FE681CC5B2082DF7DB70BD10B502F032
:10277000B7F940210D48FFF7D9FE022003F084FE8F
:1027800080210A48FFF7D2FE022003F07DFE40219F
:102790000648FFF7CDFE022003F076FE40210348F5
:1027A000FFF7C4FE012003F06FFE10BD000C0140D6
:1027B00010B540210B48FFF7B9FE02F07FF98021E8
:1027C0000848FFF7B3FE142003F05EFE40210548E1
:1027D000FFF7AEFE142003F057FE40210148FFF73B
:1027E000A5FE10BD00100140002001E0411CC8B250
:1027F0000A28FBDB7047000008B50121102002F019
:1028000093F84020ADF8000010208DF8030003205D
:102810008DF8020069460848FFF7F4FD402106489C
:10282000FFF786FE69460448FFF7ECFD8021024869
:10283000FFF77EFE08BD00000010014008B5012131
:10284000082002F071F84020ADF8000010208DF84B
:10285000030003208DF8020069460848FFF7D2FD07
:1028600040210648FFF764FE69460448FFF7CAFDA9
:1028700080210248FFF75CFE08BD0000000C01400B
:1028800010B502F02DF940210D48FFF74FFE022050
:1028900003F0FAFD80210A48FFF74AFE022003F008
:1028A000F3FD40210648FFF743FE022003F0ECFD54
:1028B00040210348FFF73AFE012003F0E5FD10BD7B
:1028C000000C014010B540210B48FFF72FFE02F02D
:1028D000F5F880210848FFF72BFE142003F0D4FD03
:1028E00040210548FFF724FE142003F0CDFD4021D0
:1028F0000148FFF71BFE10BD0010014070B5002419
:1029000002F0CAF8012003F0BFFD002518E04021C5
:102910000F48FFF70BFE022003F0B6FD40210C48E4
:10292000FFF706FE6006040E80210948FFF7F5FD5B
:1029300008B144F00104012003F0A6FD681CC5B2F3
:10294000082DE4DB40210248FFF7F0FD204670BD72
:10295000000C014070B50546002402F08BF80026FB
:102960001AE040211148FFF7E1FD142003F08CFD2F
:1029700040210E48FFF7DCFD4FF6FF7000EA4404EB
:1029800080210A48FFF7C9FD08B1601C84B21420F9
:1029900003F07AFD701CC6B2082EE2DB15B9FFF712
:1029A00091FF01E0FFF704FF204670BD00100140D9
:1029B00070B50446002523E004F0800020B180219A
:1029C0001148FFF7B5FD03E080210F48FFF7AEFD8A
:1029D000FFF70AFF20210C48FFF7AAFDFFF704FFCD
:1029E00020210948FFF7A2FD072D03D180210648C9
:1029F000FFF79EFD6006040EFFF7F6FE681CC5B2E9
:102A0000082DD9DB70BD00000008014070B50446F8
:102A100002F066F840211448FFF788FD002520E009
:102A200004F0800020B180210F48FFF781FD03E012
:102A300080210D48FFF77AFD6006040E022003F0A6
:102A400023FD40210848FFF773FD022003F01CFD21
:102A500040210548FFF76AFD022003F015FD681CC0
:102A6000C5B2082DDCDB70BD000C014070B504461A
:102A700002F024F840211548FFF758FD00251FE01B
:102A8000E00920B180211148FFF752FD03E08021C9
:102A90000E48FFF74BFD6006040E142003F0F4FC13
:102AA00040210A48FFF744FD142003F0EDFC4021CB
:102AB0000648FFF73BFD142003F0E6FC681CC5B296
:102AC000082DDDDB142003F0DFFC70BD0010014099
:102AD00010B580210A48FFF72BFD20210848FFF799
:102AE00027FDFFF781FE80210548FFF71FFDFFF757
:102AF0007BFE20210248FFF719FDFFF775FE10BD90
:102B00000008014010B501F0D9FF80210A48FFF705
:102B10000FFD40210848FFF70BFD142003F0B4FC23
:102B200080210548FFF702FD142003F0ADFC402191
:102B30000148FFF7FBFC10BD0010014010B501F08B
:102B4000CFFF80210A48FFF7F3FC40210848FFF738
:102B5000EFFC042003F098FC80210548FFF7E6FC19
:102B6000042003F091FC40210148FFF7DFFC10BD79
:102B7000000C014010B580210648FFF7D7FC20214A
:102B80000448FFF7D5FCFFF72FFE80210148FFF72F
:102B9000CFFC10BD0008014010B501F08FFF4021AF
:102BA0000A48FFF7C3FC80210848FFF7BFFC142048
:102BB00003F06AFC40210548FFF7BAFC8021034876
:102BC000FFF7B6FC142003F05FFC10BD00100140BD
:102BD00010B501F085FF40210C48FFF7A7FC8021CC
:102BE0000A48FFF7A3FC042003F04EFC40210748ED
:102BF000FFF79EFC042003F047FC80210348FFF709
:102C000097FC042003F040FC10BD0000000C0140C4
:102C100010B580210D48FFF78BFCFFF7E5FD202163
:102C20000A48FFF785FCFFF7DFFD80210748FFF723
:102C300074FC08B1012400E0002420210348FFF7C0
:102C400075FCFFF7D1FD204610BD000000080140D3
:102C500010B5002401F00EFF80211148FFF768FC39
:102C60000A2003F011FC40210D48FFF761FC0A2007
:102C700003F00AFC07E0601CC4B2FA2C03DDFFF786
:102C80008BFF012010BD80210548FFF746FC00287E
:102C9000F1D140210248FFF749FC0020F2E7000093
:102CA0000010014010B5C82401F01AFF80211D4812
:102CB000FFF73EFC012003F0E7FB40211948FFF736
:102CC00035FC012003F0E0FB01F0E6FE012003F0FB
:102CD000DBFB0EE0601EC4B2012003F0D5FB2CB973
:102CE00040211048FFF722FC012010BD012003F015
:102CF000CBFB80210B48FFF710FC0028EAD1012014
:102D000003F0C2FB40210748FFF712FC012003F04B
:102D1000BBFB40210348FFF709FC012003F0B4FB93
:102D20000020E2E7000C01404CF6CC40014908606D
:102D3000704700000030004010B500F013F810BDDF
:102D400070B505460C4645F2555000F01FF8284670
:102D500000F010F8204600F013F800F003F8FFF739
:102D6000E3FF70BD4AF6AA200149086070470000E1
:102D700000300040014948607047000000300040CA
:102D80000149886070470000003000400149086038
:102D9000704700000030004010B54FF4E13005F0FE
:102DA0009BFE482003F004FB4FF4A06001F0C0F844
:102DB00002202B49887000F089F8FEF7E5FE01F04B
:102DC0003DFE01F019F901F0BDF8122202212D207B
:102DD00001F082F913220221412001F07DF9142231
:102DE00004210F2001F078F915220421232001F09D
:102DF00073F916220421372001F06EF917220421FD
:102E00004B2001F069F9182204215F2001F064F9D8
:102E100001F002FF01F0BAFEFFF716FA00F04AFFD8
:102E200047214FF47A7002F02DF8FFF77EF802F098
:102E3000C1FA02F033F94FF47A3005F0EDFD4FF4AA
:102E4000E13005F095FD4FF4FA7003F0DBFA40F243
:102E5000E2410620FFF774FFFFF76EFF10BD000090
:102E60008801002010B5FFF7C1F9FFF765FFFFF7F4
:102E70003FF9FFF761FFFEF7BDFCFFF75DFF01F0D3
:102E800001FB03F025FAFFF733F9FFF755FFFEF7D3
:102E9000B1FCFFF751FF01F0F5FA01F00BFCFFF771
:102EA0004BFF0248006805F0C1F810BD3400002057
:102EB000002408E04FF0FF310348006805F0D3F824
:102EC0000CB9FFF7CFFFF5E73C00002008B5012162
:102ED000082001F029FD4FF40050ADF8000010204B
:102EE0008DF8030003208DF8020069461148FFF7B2
:102EF00089FA4FF48040ADF8000069460D48FFF7AD
:102F000081FA4FF40040ADF8000069460948FFF728
:102F100079FA4FF400510748FFF70AFB4FF480415C
:102F20000448FFF705FB4FF400410248FFF700FBA0
:102F300008BD0000000C014010B500F01DF84FF472
:102F4000967003F05FFA00F023F94FF4FA7003F083
:102F500059FA00F001FA4FF4FA7003F053FA00F056
:102F600015FB4FF4FA7003F04DFA00F0F5FB4FF447
:102F7000FA7003F047FA10BD10B552A002F080FBC2
:102F80004FF4967003F03EFA57A002F08FFB4FF417
:102F9000967003F037FA56A15648FDF781F9564965
:102FA0000860FEF79DFE0EE0FEF79AFE4EA002F0CE
:102FB0007DFB4FF4967003F025FA4DA14D48FDF7C7
:102FC0006FF94D4908604C4800680028ECD04BA0D0
:102FD00002F06CFB4FF4967003F014FA4AA002F072
:102FE00065FB4FF4967003F00DFA4AA14148FDF7D6
:102FF00057F941490860FEF773FE0EE0FEF770FED8
:1030000041A002F053FB4FF4967003F0FBF941A18D
:103010003848FDF745F93849086037480068002806
:10302000ECD03DA002F042FB4FF4967003F0EAF9B9
:10303000FEF756FE3FA002F039FB4FF4967003F006
:10304000E1F9FEF74DFE3FA002F030FB4FF4967021
:1030500003F0D8F9FEF744FE41A002F027FB4FF43D
:10306000967003F0CFF9FEF73BFE40A002F01EFB86
:103070004FF4967003F0C6F93FA11E48FDF710F912
:103080001D490860FEF72CFE0EE0FEF729FE37A072
:1030900002F00CFB4FF4967003F0B4F936A115481A
:1030A000FDF7FEF814490860134800680028ECD0CA
:1030B00034A002F0FBFA4FF4967003F0A3F9FEF788
:1030C0000FFE10BDB1BEB4CEB2E2CAD4CAC7B7A219
:1030D000CAFDBEDDB5BD4D515454B7FECEF1C6F7A5
:1030E000B9A6C4DC0D0A000041540D0A000000001E
:1030F0004F4B0000472F0020F8020020415445307C
:1031000026570D0A0000000041542B43494D490D3C
:103110000A0000003436300041542B434744434FEB
:103120004E543D322C224950222C22434D4E4554C0
:10313000220D0A0041542B43474143543D312C3169
:103140000D0A000041542B435354543D22434D4E2D
:103150004554222C22222C2222200D0A000000009D
:1031600041542B43494943520D0A000041542B431B
:10317000474154543F0D0A002B43474154543A31C0
:103180000000000041542B4353510D0A0000000081
:1031900010B54CA002F074FA50A002F087FA4FF478
:1031A000FA7003F02FF94DA002F080FA4FF4FA7094
:1031B00003F028F94BA14C48FDF772F84B49086021
:1031C0000EE0FEF78DFD45A002F070FA4FF4FA70A4
:1031D00003F018F943A14448FDF762F84349086039
:1031E000424800680028ECD041A002F05FFA4FF49A
:1031F000FA7003F007F9FEF773FD3FA002F056FAEC
:103200004FF4FA7003F0FEF83EA002F04FFA4FF4CC
:10321000FA7003F0F7F83EA13348FDF741F833495F
:1032200008600EE0FEF75CFD36A002F03FFA4FF4B6
:10323000FA7003F0E7F836A12B48FDF731F82B4977
:1032400008602A4800680028ECD0FEF749FD34A049
:1032500002F02CFA4FF4FA7003F0D4F834A002F024
:1032600025FA4FF4FA7003F0CDF834A11E48FDF7AB
:1032700017F81E49086034A11B48FDF711F83549BD
:10328000086014E0FEF72CFD29A002F00FFA4FF4BD
:10329000FA7003F0B7F829A11348FDF701F81349B4
:1032A000086029A11048FCF7FBFF2A4908600F4875
:1032B000006818B9274800680028E3D0FEF710FD21
:1032C00010BD0000B1BEB4CEB2E2CAD4CAC7B4F2D7
:1032D000B5E7BBB0B9A6C4DC0D0A000041540D0A25
:1032E000000000004F4B0000472F0020000300208B
:1032F000415445300D0A000041542B4353510D0AEF
:103300000000000041542B4350494E3F0D0A00007D
:103310002B4350494E3A2052454144590000000089
:1033200041542B5149434C4F53453D300D0A000049
:1033300041542B435245473F0D0A00002B43524551
:10334000473A20302C3100002B435245473A203079
:103350002C3500000403002010B556A002F090F9AF
:103360004FF4967003F04EF85AA002F09FF94FF414
:10337000967003F047F859A15948FCF791FF594955
:103380000860FEF7ADFC0EE0FEF7AAFC51A002F0CB
:103390008DF94FF4967003F035F850A15048FCF7C2
:1033A0007FFF504908604F4800680028ECD04EA0CD
:1033B00002F07CF94FF4967003F024F84DA002F06F
:1033C00075F94FF4967003F01DF84EA002F06EF9F7
:1033D0004FF4967003F016F84DA14148FCF760FFDA
:1033E00040490860FEF77CFC0EE0FEF779FC45A042
:1033F00002F05CF94FF4967003F004F844A13848E9
:10340000FCF74EFF37490860364800680028ECD0CA
:1034100040A002F04BF94FF4967002F0F3FFFEF774
:103420005FFC43A002F042F94FF4967002F0EAFF0D
:10343000FEF756FC42A002F039F94FF4967002F004
:10344000E1FFFEF74DFC45A002F030F94FF4967015
:1034500002F0D8FFFEF744FC43A002F027F94FF436
:10346000967002F0CFFF43A11D48FCF719FF1D49DC
:103470000860FEF735FC0EE0FEF732FC3AA002F0E1
:1034800015F94FF4967002F0BDFF3AA11448FCF70D
:1034900007FF14490860134800680028ECD038A0E2
:1034A00002F004F94FF4967002F0ACFFFEF718FC3E
:1034B00010BD0000B1BEB4CEB2E2CAD4CAC7B7A232
:1034C000CBCDD3A2CEC4B6CCD0C5B9A6C4DC0D0A30
:1034D0000000000041540D0A000000004F4B0000A6
:1034E000472F0020080300204154453026570D0A7D
:1034F0000000000041542B4D4950434C4F53453D73
:10350000310D0A0041542B43494D490D0A0000007A
:103510003436300041542B434744434F4E543D31E1
:103520002C224950222C22434D4E4554220D0A0094
:1035300041542B43474143543D312C320D0A000086
:1035400041542B435354543D22434D4E4554222C59
:1035500022222C2222200D0A0000000041542B437D
:10356000494943520D0A000041542B4347415454EA
:103570003F0D0A002B43474154543A3100000000EC
:1035800041542B4353510D0A0000000010B51AA0FE
:1035900002F08CF84FF4967002F034FF1AA002F09B
:1035A00085F84FF4967002F02DFF1B4A1BA11E48B0
:1035B00002F07CF84FF4967002F024FFFEF790FBC7
:1035C0001AA002F073F84FF4967002F01BFF1FA1CF
:1035D0002248FCF765FE2249086005E01BA11F4850
:1035E000FCF75EFE1E4908601D4800680028F5D003
:1035F000FEF776FB10BD000041542B4D515454444E
:103600004953430D0A00000041542B4D515454447A
:10361000454C0D0A00000000109A00084D4C333054
:10362000325F4D5154540000C099000841542B4D55
:103630005154544F50454E3D312C312C302C302CB0
:10364000302C22222C22220D0A0000002B4D515436
:10365000544F50454E3A4F4B00000000472F00207A
:10366000F802002010B5054802F020F84FF49670DB
:1036700002F0C8FE024802F003F810BD8895000869
:10368000472F00202DE9FF4F9BB00C4691469A46EC
:10369000DDF8A0B0DDE930564846FDF7BBF9074636
:1036A00088462046FDF7B6F9CDE918011B98FDF7CD
:1036B000B1F9CDE91601DDE93423DDE93610CDE9B4
:1036C0001223CDE91410DDE93201CDE90E56CDE922
:1036D0001001DDE92C23DDE92E10CDE90923CDE928
:1036E0000B10DDE929212B9802ABA3E8800DCDE971
:1036F00006210890DDE91801CDE900010F48DDE958
:10370000162301F0D3FF4FF4967002F07BFE0CA15C
:103710000F48FCF7C5FD0F49086005E008A10C48FB
:10372000FCF7BEFD0B4908600A4800680028F5D088
:10373000FEF7D6FA1FB0BDE8F08F0000D49600085F
:103740002B4D51545450554241434B3A30000000E8
:10375000472F0020F802002010B529A22BA12EA08F
:1037600001F0A4FF3AA13E48FCF79AFD3D490860EC
:1037700005E037A13A48FCF793FD3A49086039481B
:1037800000680028F5D0FEF7ABFA1DA21FA136A0F5
:1037900001F08CFF2EA13248FCF782FD3149086010
:1037A00005E02BA12E48FCF77BFD2E4908602D4833
:1037B00000680028F5D0FEF793FA11A213A13AA0F1
:1037C00001F074FF22A12648FCF76AFD2549086034
:1037D00005E01FA12248FCF763FD2249086021484B
:1037E00000680028F5D0FEF77BFA3FA001F05EFFED
:1037F0004FF4967002F006FEFEF772FA10BD00005C
:103800004D4C3330325F4D515454000055684D4E8D
:1038100057707741624B000041542B4D5154545323
:1038200055423D22247379732F25732F25732F74EE
:1038300068696E672F70726F70657274792F706F20
:1038400073742F7265706C79222C300D0A000000A1
:103850002B4D51545453554241434B3A0000000004
:10386000472F00201C03002041542B4D515454532A
:1038700055423D22247379732F25732F25732F749E
:1038800068696E672F70726F70657274792F6465E6
:1038900073697265642F6765742F7265706C792225
:1038A0002C300D0A0000000041542B4D515454534C
:1038B00055423D22247379732F25732F25732F745E
:1038C00068696E672F70726F70657274792F6465A6
:1038D00073697265642F64656C6574652F726570B9
:1038E0006C79222C300D0A0041542B4D5154545305
:1038F00055423F0D0A00000010B59AB096A19A48B3
:10390000FCF7CEFC9949086093A19748FCF7C8FCE6
:1039100097490860974A98A194480068FCF7F6FC1C
:1039200011E08DA19048FCF7BBFC904908608AA18A
:103930008D48FCF7B5FC8E4908608E4A8EA18B48F5
:103940000068FCF7E3FC8EA18A48FCF7D1FC002854
:10395000E7D18BA18748FCF7CBFC00287ED1FFF78D
:10396000EBF98BA182480068FCF79AFC8A49086051
:1039700000208A49086010E087480068007888497C
:10398000864A1268885485480068401C834908604C
:1039900081480068401C804908607F4800680078C2
:1039A0000028E9D17E497D4A126888547DA17C486F
:1039B000FCF776FC7D4908600846006800F0C0FE10
:1039C0007B4908607BA17648FCF76AFC7749086070
:1039D0000846006800F0B4FE7549486076A170485A
:1039E000FCF75EFC714908600846006800F0A8FE1C
:1039F0006F49886072A16A48FCF752FC6B49086005
:103A00000846006800F09CFE0446FCF79FFF6849EA
:103A1000C8606DA16248FCF743FC64490860084631
:103A2000006800F08DFE0446FCF790FF60490861D5
:103A300067A15B48FCF734FC5C49086008460068F5
:103A400000F07EFE0446FCF781FF594981F8290009
:103A500060A15348FCF724FC544900E079E0086079
:103A60000846006800F06CFE0446FCF76FFF504902
:103A700081F82A0059A14A48FCF712FC4B4908601A
:103A80000846006800F0B4FE494AC2E90E0155A19B
:103A90004348FCF705FC454908600846006800F00B
:103AA0004FFE0446FCF752FF414981F844004EA105
:103AB0003B48FCF7F5FB3D4908600846006800F00C
:103AC0003FFE0446FCF742FF394981F8450047A113
:103AD0003348FCF7E5FB354908600846006800F00C
:103AE0002FFE0446FCF732FF314981F8460041A120
:103AF0002B48FCF7D5FB2D4908600846006800F00C
:103B00001FFE0446FCF722FF294981F84700642183
:103B100001A8FCF7BAFB264890F8442037A101A879
:103B200001F0D4FD01A801F0ABFD214890F844005C
:103B3000012804D181033448FEF7F8FC08E01C4852
:103B400090F8440020B94FF480412F48FEF7F0FC74
:103B500000BF1AB010BD00002B4D515454505542B7
:103B60004C4953483A000000472F0020240300200E
:103B700020030020142A0020255B5E3A5D0000002F
:103B80002B4D5154545055424C49534800000000AD
:103B900022646174612200002803002030030020A9
:103BA0001E2A002074656D70000000002C030020A8
:103BB000B800002068756D00647573740000000023
:103BC000434F74776F00000054564F4300000000CD
:103BD0004C45440072656C617900000070686F6E3E
:103BE0006500000041535200534C41004D4C43418D
:103BF000540000004F4C4544000000004C4544B5C3
:103C0000C63A2025640D0A00000C014070B5044638
:103C10000D461BA001F04AFD4FF4967002F0F2FB36
:103C200021461AA001F042FD4FF4967002F0EAFB23
:103C300029461AA001F03AFD4FF4967002F0E2FB1B
:103C400000BF1748008800F040000028F9D01A2073
:103C50001349091D088013A11448FCF721FB1449DE
:103C6000086005E00FA11148FCF71AFB1049086035
:103C70000F4800680028F5D0FEF732F870BD00004C
:103C800041542B434D47463D310D0A0041542B43CF
:103C90004D47533D222573220D0A00002573000075
:103CA000004400402B434D47533A0000472F00206B
:103CB0000803002000B587B001214FF4047000F024
:103CC00033FE4FF4004000F003FE0420ADF8040082
:103CD00000208DF8070003208DF8060001A9184880
:103CE000FEF790FB1748FDF79BFC002002908DF833
:103CF0000C008DF80D004FF460200490002005901A
:103D000001208DF8180002A90E48FDF7D9FC012109
:103D10000C48FDF77AFC0B48FDF756FD00BF09483B
:103D2000FDF7C3FC0028FAD10648FDF75DFD00BF92
:103D30000448FDF7A3FC0028FAD107B000BD00003D
:103D400000100140002401402DE9FF5F4348007846
:103D500030B90121424801F0C4F801203F49087000
:103D600014210C20FEF700FC03900398FCF7B3FD30
:103D700006463C49FCF7AEFB05464FF08B41FCF78D
:103D8000DBFB04462046FCF745FE0746364A374B28
:103D9000FCF710FC05460022354BFCF7B2FCCDE9E0
:103DA0000001FCF7E7FD8346FCF78CFD31490290EA
:103DB000FCF7C2FB044621462A48FCF785FB064671
:103DC0002146FCF7B9FB05462B49FCF783FB8146EE
:103DD0002A48006840F6B831884217D20022284BA2
:103DE0004FF08040274902F0B9FC05460E46484690
:103DF000FCF710FE2A463346CDE90001FCF7F3FC40
:103E00000746FCF733FE2049086009E01B480068BC
:103E100040F6B831884203D90021114801F061F819
:103E2000194801684846FCF787FB8346FCF7F2FD1A
:103E300005464FF08042154B02F090FC07464FF0CC
:103E40008042134BFCF75DFCCDE90001FCF70EFE50
:103E50008246504604B0BDE8F09F000044030020B5
:103E600000140040333353407B14AE47E17A743F73
:103E7000000059400000C8420000A040400300205C
:103E8000B6DBDEBF24AEA03F3C0300208D9700C010
:103E9000332F834000BFFEE7704708B54FF4A060A2
:103EA00000F046F835208DF8000001208DF8010063
:103EB0008DF802008DF80300684600F001F808BD97
:103EC00070B5002100230F22C47804B3154C246878
:103ED00004F4E064C4F5E064210AC1F10403CA40BB
:103EE000447804FA03F184781440214309010E4C0C
:103EF0000678A155047804F01F050124AC4005782C
:103F00006D11AD0005F1E025C5F8004109E0047828
:103F100004F01F050124AC40044D0678761145F8E5
:103F2000264070BD0CED00E000E400E080E100E020
:103F300002490143024A1160704700000000FA057F
:103F40000CED00E010B5002000F001F810BD70B5D8
:103F50000646002415E004F1B001C8B200F084FA6E
:103F6000002000F081FA102000F07EFA002504E025
:103F7000304600F080FA681CC5B2802DF8DB601C6A
:103F8000C4B2082CE7DB70BD08B50121042000F0A5
:103F9000CBFCA020ADF8000003208DF80200142017
:103FA0008DF8030069460348FEF72CFAFEF7E2FDA0
:103FB00008BD00000008014070B505460C46FEF73C
:103FC00087FD7820FEF7F4FCFEF722FE00B110E03A
:103FD0002846FEF7EDFCFEF71BFE00B109E0204687
:103FE000FEF7E6FCFEF714FE00B102E0FEF7C2FDAC
:103FF00000BFFEF7BFFD70BD10B5FFF7C5FF012084
:1040000002F036FAAE2000F02FFA202000F02CFA51
:10401000102000F029FAB02000F026FAC82000F0A5
:1040200023FA002000F020FA102000F01DFA4020B2
:1040300000F01AFA812000F017FAFF2000F014FABD
:10404000A12000F011FAA62000F00EFAA82000F03E
:104050000BFA3F2000F008FAA42000F005FAD32064
:1040600000F002FA002000F0FFF9D52000F0FCF982
:10407000F02000F0F9F9D92000F0F6F9222000F044
:10408000F3F9DA2000F0F0F9122000F0EDF9DB206E
:1040900000F0EAF9202000F0E7F98D2000F0E4F9C3
:1040A000142000F0E1F9AF2000F0DEF910BD70B58A
:1040B00004460D4605F1B001C8B200F0D5F9102153
:1040C00041EA141000F0D0F904F00F0141F00100B2
:1040D00000F0CAF970BD00002DE9F04180460E469F
:1040E000174600247D0131464046FFF7E0FF00BF40
:1040F00006E00D49485D00F0BEF96D1C601CC4B2BD
:10410000102CF6DB701CC1B24046FFF7D0FF002434
:1041100006E00549485D00F0AEF96D1C601CC4B2B4
:10412000102CF6DBBDE8F081450300202DE9F047B7
:1041300007460E469046994600250024A8F1200027
:10414000C5B27F2F02DD0027B01CC6B2B9F1100F37
:1041500022D131463846FFF7AAFF002407E004EBDE
:104160000511174A505C00F086F9601CC4B2082C97
:10417000F5DB701CC1B23846FFF799FF002408E058
:1041800004EB051108310E4A505C00F074F9601C14
:10419000C4B2082CF4DB11E031463846FFF787FF44
:1041A000002409E005EB4501064A02EB4101085DE8
:1041B00000F061F9601CC4B2062CF3DBBDE8F087A7
:1041C000C28E00089A8C00082DE9FF5F07469146D1
:1041D0001E460E9D4FF0000A002435E0301B401EA5
:1041E000C1B20A2002F035FAB9FBF0F00A21B0FBA7
:1041F000F1F201FB1208BAF1000F14D1701EA042B7
:1042000011DDB8F1000F0CD1AB4605EBDB714910A5
:1042100001FB0471C8B22B4620220199FFF786FFEB
:1042200010E04FF0010AAB4605EBDB71491001FBD2
:104230000471C8B208F13001CAB22B460199FFF7E8
:1042400075FF00BF601CC4B2B442C7DBBDE8FF9F6E
:104250002DE9F0470646894617469A464FF0000872
:1042600000240025BAF1010F03D0BAF1020F5ED18C
:1042700025E020E0785D203800F0FF087E2E04DD88
:10428000002609F1010000F0FF0949463046FFF71A
:104290000EFF002409E008EB4801264A02EB410129
:1042A000085D00F0E8F8601CC4B2062CF3DBB01D1A
:1042B000C6B2681CC5B2785D0028DBD137E032E0B9
:1042C000785D203800F0FF08782E04DD002609F123
:1042D000010000F0FF0949463046FFF7E8FE0024E0
:1042E00007E004EB0811144A505C00F0C4F8601CAD
:1042F000C4B2082CF5DB09F10100C1B23046FFF76A
:10430000D6FE002408E004EB081108310A4A505C8C
:1043100000F0B1F8601CC4B2082CF4DB06F1080010
:10432000C6B2681CC5B2785D0028C9D100BF00BF05
:10433000BDE8F0879A8C0008C28E00082DE9FF4F77
:1043400087B0074690461E46DDE914954FF0000AF7
:1043500000200690834605904046FCF7DEFA83462F
:10436000002434E0301B401EC1B20A2002F071F973
:10437000BBFBF0F00A21B0FBF1F201FB120A069838
:10438000A0B9701EA04211DDBAF1000F0CD105EBEF
:10439000D571491001FB0471C8B22B462022049547
:1043A0000899FFF7C3FE10E00120069005EBD571D8
:1043B000491001FB0471C8B20AF13001CAB22B46A0
:1043C00004950899FFF7B2FE00BF601CC4B2B44266
:1043D000C8DB05EBD571491001FB0671C8B22B464D
:1043E0002E2204950899FFF7A1FE49460A2002F003
:1043F00030F90190FCF76FFA03905846FCF762FA27
:1044000041460190FCF763F802900399FCF762F8CB
:104410000490FCF782FA0590002420E0A9EB040048
:10442000401EC1B20A2002F014F90599B1FBF0F068
:104430000A21B0FBF1F201FB120A05EBD57149101C
:10444000A31901FB0371491DC8B20AF13001CAB2B8
:104450002B4604950899FFF769FE601CC4B24C45D1
:10446000DCDB0BB0BDE8F08F10B504462146002020
:10447000FFF7A2FD10BD10B5044621464020FFF70E
:104480009BFD10BD1CB58548C07801287DD1FFF784
:1044900059FD002201210F20FFF71EFE02220121FB
:1044A0002320FFF719FE012204210F20FFF714FE3D
:1044B000022204212320FFF70FFE10200221CDE964
:1044C000001077480B46012102683C20FFF736FFB9
:1044D000112201216420FFF7FFFD10200221CDE908
:1044E00000106F480B46042142683C20FFF726FF6E
:1044F00002236CA204216920FFF7AAFEFDF78AFEC1
:10450000FEF71AFCFDF7F4FDFEF716FCFDF772F955
:10451000FEF712FC02F00EFEFEF70EFCFDF7E8FDC2
:10452000FEF70AFCFDF766F9FEF706FCFFF70AFD49
:10453000072200211E20FFF7CFFD08220021322094
:10454000FFF7CAFD0F2200214620FFF7C5FD10220C
:1045500000215A20FFF7C0FD10200090504804238E
:10456000022102691E20FFF72FFE02234EA21946E8
:104570004620FFF76DFE02234CA204212320FFF703
:1045800067FE0F220421462000E081E0FFF7A4FD32
:10459000102204215A20FFF79FFD10200090404870
:1045A00004230621C2681E20FFF70EFE022340A24C
:1045B00006214620FFF74CFEFDF72CFEFEF7BCFB64
:1045C000FDF796FDFEF7B8FBFDF714F9FEF7B4FB17
:1045D00002F0B0FDFEF7B0FBFDF78AFDFEF7ACFB85
:1045E000FDF708F9FEF7A8FBFFF7ACFC0922002154
:1045F0002820FFF771FD0A2200213C20FFF76CFD07
:104600000B2200215020FFF767FD0C2202210F2012
:10461000FFF762FD0D2202212320FFF75DFD0E2230
:1046200002213720FFF758FD0F2202214B20FFF710
:1046300053FD102202215F20FFF74EFD10200221C2
:10464000CDE9001016480323052182681420FFF7E6
:1046500075FE022316A205214620FFF7F9FDFDF79E
:10466000D9FDFEF769FBFDF743FDFEF765FBFDF79E
:10467000C1F8FEF761FB02F05DFDFEF75DFBFDF7A3
:1046800037FDFEF759FBFDF7B5F8FEF755FB04E0E3
:104690000248C07808B9FFF755FC1CBD6000002037
:1046A000AC1A00202500000070706400434F3200F7
:1046B00070706D0010B590B0FDF72AFB1F4890F8A0
:1046C00047001E4991F846101C4A92F845201B4BA2
:1046D00093F84430CDE90C32CDE90E10174890F82C
:1046E0002A00164991F82910CDE90A101349D1E999
:1046F0000E01CDE90801114890F843000F4991F8E7
:1047000042100E4A92F841200C4B93F84030CDE90C
:104710000432CDE906100948426A016A007F074B5E
:104720001B69064CCDE90030CDE90212E368A268AE
:1047300061682068FEF7A6FF10B010BD6800002079
:104740002DE9F04389B0814613A14846FBF7A8FD47
:10475000044614B913A000F093FF08347D212046CD
:10476000FBF7BCFD054615B919A000F089FF202113
:1047700001A8FBF78AFD2A1B214601A8FBF7A2FD31
:1047800001A801F08FFD0746FCF770F90646304698
:1047900009B0BDE8F08300002276616C7565223AAD
:1047A000000000005468657265206973206E6F20F8
:1047B0002276616C756522206669656C6420696E7D
:1047C000204A534F4E20737472696E670A000000CE
:1047D000556E657870656374656420656E64206FDE
:1047E00066204A534F4E20737472696E670A000048
:1047F0002DE9F04F89B081461FA14846FBF750FDD7
:10480000044614B91FA000F03BFF08347D21204668
:10481000FBF764FD074617B925A000F031FF202102
:1048200001A8FBF732FD3A1B214601A8FBF74AFD20
:104830004FF0000800252E4600BF14E001A810F834
:10484000080030380A234FF0000BAC46ACFB032EB7
:1048500006FB03E305FB0B33851843EBE07608F119
:10486000010000F0FF08B8F10B0FE7DB28463146E6
:1048700009B0BDE8F08F00002276616C7565223AC0
:10488000000000005468657265206973206E6F2017
:104890002276616C756522206669656C6420696E9C
:1048A000204A534F4E20737472696E670A000000ED
:1048B000556E657870656374656420656E64206FFD
:1048C00066204A534F4E20737472696E670A000067
:1048D00001460020034A506820F4404008435060DD
:1048E000704700000010024029B1064AD269024315
:1048F000044BDA6104E0034AD2698243014BDA6176
:10490000704700000010024029B1064A12690243B4
:10491000044B1A6104E0034A12698243014B1A6195
:10492000704700000010024029B1064A9269024314
:10493000044B9A6104E0034A92698243014B9A61F5
:10494000704700000010024029B1064AD2680243B5
:10495000044BDA6004E0034AD2688243014BDA6018
:10496000704700000010024030B5002100220024F2
:1049700000232D4D6D6805F00C0121B1042905D0EF
:10498000082923D105E0294D056022E0274D056067
:104990001FE0254D6D6805F47012234D6D6805F418
:1049A0008034022505EB92421CB9214D5543056028
:1049B0000BE01D4D6D6805F400351DB11C4D5543D0
:1049C000056002E0194D5543056002E0174D056092
:1049D00000BF00BF144D6D6805F0F0010909154DC9
:1049E0006B5C0568DD4045600F4D6D6805F4E06166
:1049F000090A104D6B5C4568DD4085600A4D6D68A5
:104A000005F46051C90A0B4D6B5C4568DD40C5601B
:104A1000054D6D6805F44041890B074D6B5CC56819
:104A2000B5FBF3F5056130BD0010024000127A00BD
:104A300000093D00140000202400002008B50121D9
:104A40001020FFF771FF4FF48040ADF800001020F8
:104A50008DF8030003208DF8020069460448FDF735
:104A6000D1FC4FF480410248FDF760FD08BD000015
:104A70000010014008B58020ADF8000001208DF83D
:104A8000020004208DF8030069460248FDF7BAFCD5
:104A900008BD00000010014008B58020ADF80000FE
:104AA00048208DF8030003208DF802006946024873
:104AB000FDF7A8FC08BD0000000C014008B58020EF
:104AC000ADF8000010208DF8030003208DF80200DF
:104AD00069460248FDF796FC08BD00000010014041
:104AE00008B58020ADF8000010208DF803000320E9
:104AF0008DF8020069460248FDF784FC08BD0000FD
:104B0000000C014010B5FDF785FBFEF715F9FDF728
:104B1000EFFAFEF711F9FCF76DFEFEF70DF902F062
:104B200009FBFEF709F9FDF7E3FAFEF705F9FCF7D3
:104B300061FEFEF701F9FFF7A5FCFEF7FDF8094855
:104B4000807850B90748C07838B90648407820B90D
:104B50000548006803F06AFA03E00448006803F0BF
:104B600065FA10BD480000203C0000203400002001
:104B7000002408E04FF0FF310348006803F073FAA7
:104B80000CB9FFF7BFFFF5E73800002010B5FDF7BF
:104B900033FE0321202000F025F810BD70B5FDF78D
:104BA000B1FFB120FDF762FFFEF752F80120FDF7DB
:104BB000D1FE044624020120FDF7CCFE044401206E
:104BC000FDF7C8FEC5B200BF24020120FDF7C2FEFA
:104BD000044424020020FDF7BDFE0444FDF7DCFF81
:104BE000204670BD70B505460C46FDF78BFFB02022
:104BF000FDF73CFFFEF72CF82846FDF737FFFEF7E0
:104C000027F82046FDF732FFFEF722F8FDF7C4FF34
:104C1000642001F0F7FB70BD10B5FDF70FFE10BD6D
:104C2000FEB504460D461646FDF788FF002141EA11
:104C30004401C8B2FDF7EAFEFEF734F82C20FDF778
:104C4000E5FEFEF72FF80620FDF7E0FEFEF72AF856
:104C5000FDF7BEFF322001F0D5FBFDF76FFF01210C
:104C600001EB4401C8B2FDF7D1FEFEF71BF828BBEB
:104C7000FDF744FEADF80000FDF778FDFDF73EFEC0
:104C8000ADF80200FDF772FDFDF738FEADF8040047
:104C9000FDF76CFDFDF732FEADF80600FDF766FD91
:104CA000FDF72CFEADF80800FDF760FDFDF726FED0
:104CB000ADF80A00FDF7E4FDFDF78AFFBDF802003C
:104CC000BDF8001040EA01202880BDF80800BDF8BA
:104CD000061040EA01203080FEBD704710B500F09C
:104CE00001F810BD0CB50020019000903348006819
:104CF00040F480303149086000BF3048006800F45B
:104D0000003000900198401C0190009818B901985B
:104D1000B0F5A06FF1D12948006800F4003010B15F
:104D20000120009001E0002000900098012843D16C
:104D30002348006840F010002149086008460068D8
:104D400020F0030008600846006840F00200086098
:104D50001A48406819494860084640684860084653
:104D6000406840F4806048600846406820F47C1049
:104D700048600846406840F4E8104860084600680B
:104D800040F08070086000BF0C48006800F00070C0
:104D90000028F9D00948406820F00300074948601E
:104DA0000846406840F00200486000BF0348406881
:104DB00000F00C000828F9D10CBD000000100240E2
:104DC00000200240042808D14FF0E021096941F099
:104DD00004014FF0E022116107E04FF0E021096982
:104DE00021F004014FF0E0221161704710B502F08C
:104DF00055FE03F04BFC02F061FE10BD10B51348E8
:104E0000006840F0010011490860084640681049F8
:104E100008400E494860084600680E4908400B49A2
:104E200008600846006820F4802008600846406852
:104E300020F4FE0048604FF41F008860FFF74EFF2B
:104E40004FF000600449086010BD000000100240EF
:104E50000000FFF8FFFFF6FE08ED00E010B50121AD
:104E6000064800F04AF840B10121044800F036F845
:104E700003480068401C0249086010BD001400404F
:104E8000400300207FB505460C4601212020FFF796
:104E90002BFDA8B2ADF80400ADF800400020ADF83D
:104EA0000600ADF8020069460B4800F041F8012207
:104EB0001146094800F032F837208DF80C00002028
:104EC0008DF80D0002208DF80E0001208DF80F00E6
:104ED00003A8FEF7F5FF7FBD00140040CA4302821D
:104EE000704721B1028842F00102028004E002888A
:104EF0004FF6FE731A400280704730B5024600201C
:104F000000230024158A05EA0103958905EA0104B6
:104F100013B10CB1012000E0002030BD1AB183892B
:104F20000B43838102E083898B43838170470000B8
:104F3000002202881D4B98420ED01D4B98420BD088
:104F4000B0F1804F08D01B4B984205D01A4B9842C5
:104F500002D01A4B984204D14FF68F731A404B88F7
:104F60001A43174B984207D0164B984204D04FF67D
:104F7000FF431A40CB881A4302808B8883850B88B5
:104F800003850A4B98420BD0094B984208D00E4B30
:104F9000984205D00D4B984202D00D4B984201D15A
:104FA0000B7A03860123838270470000002C0140A6
:104FB000003401400004004000080040000C0040A4
:104FC0000010004000140040004001400044014037
:104FD0000048014010B540F225512C4800F08BFAF2
:104FE00000283BD0294800F041FBC4B2F42C03D088
:104FF00027480078012831D1012025490870F52C77
:105000000BD02448B0F82E0122490C540846B0F8C1
:105010002E01401CA1F82E0120E0F52C1ED11D48C8
:10502000B0F82E011B490C544FF480611A48FBF76D
:105030002CF91848B0F82E2101461748FBF70CF957
:105040001448B0F82E011449A1F8000400201049BA
:1050500008701049A1F82E01FCF7A4FE40F224418B
:105060000A4800F048FA78B1084800F0FFFAC4B2E4
:105070000848B0F82E0138B1064890F82C0118B94C
:105080000120044981F82C0110BD0000004C0040B3
:1050900070020020001E0020301F002000B585B0E7
:1050A00001213020FFF740FC01210805FFF71CFC1F
:1050B0004FF48050ADF8100018208DF81300032035
:1050C0008DF8120004A91648FDF79CF90420ADF8EC
:1050D00010008DF8130004A91248FDF793F94FF45E
:1050E000165000900020ADF80400ADF80600ADF8B1
:1050F0000800ADF80C000C20ADF80A0069460A481B
:1051000000F048FAFEF7C9FE012240F22551064898
:1051100000F01BFA0121044800F086F905B000BD3B
:1051200000100140001401400050004010B540F252
:1051300025512E4800F0DFF9002856D02B4800F00A
:1051400095FAC4B22146294800F095FA312C04D1D1
:105150004FF400412648FDF7E9F9322C04D14FF411
:1051600000412348FDF7E4F9332C02D10120214905
:105170000870342C02D100201E490870352C02D151
:1051800001201C494870362C02D100201949487072
:10519000372C02D1012017498870382C02D1002009
:1051A00014498870392C02D101201249C870402C52
:1051B00002D100200F49C870412C02D101200D49B5
:1051C0000871422C02D100200A490871432C02D1F7
:1051D000012008494871442C02D1012005498871F9
:1051E000452C02D101200349C87110BD0050004078
:1051F000000C01405D01002010B502F01DFA40F2E4
:1052000025511E4800F077F910B31C4800F02EFA23
:10521000C4B21B48008800F40040C8B91848008890
:1052200000F4804060B10A2C03D0002014490880AB
:1052300020E01348008840F400401149088019E03C
:105240000D2C06D10E48008840F480400C4908809F
:1052500010E00B480088C0F30D000A490C540848C0
:105260000088401C0649088008460088C72801DDE0
:105270000020088002F0F0F910BD00000038014065
:105280009A010020D81A002010B540F225510D488F
:1052900000F031F9A0B10B4800F0E8F9C1B20A48BA
:1052A00002880088401C084B188008488154184622
:1052B000008840F22951884202DD0020194608800A
:1052C00010BD00000044004038030020472F00209C
:1052D0001FB5134800F0B4F84FF4E13000900020FF
:1052E000ADF80400ADF80600ADF80800ADF80C000C
:1052F0000C20ADF80A006946094800F04BF901227C
:1053000040F22551064800F020F9012240F22441E4
:10531000034800F01AF90121014800F085F81FBD8B
:105320000048004008B54FF40060ADF800000420CC
:105330008DF8030069460948FDF764F84FF4806072
:10534000ADF8000003208DF8020018208DF803004E
:1053500069460248FDF756F808BD0000000C014000
:1053600010B5002440F22551104800F0C4F830B1C7
:105370000E4800F07BF9C4B22046FDF76FF940F209
:1053800024410A4800F0B7F870B1084800F06EF9FF
:10539000C4B20748808E38B1054890F8320018B979
:1053A0000120034981F8320010BD00000048004090
:1053B000A829002010B500F01DF8FFF7B3FFFFF794
:1053C00087FF00F003F8FDF7E7F810BD08B52720C8
:1053D0008DF8000003208DF80100054880788DF8D5
:1053E000020001208DF803006846FEF769FD08BD44
:1053F0008801002010B501210820FFF795FA01214E
:105400008804FFF771FA10BD10B50446214605481F
:1054100000F031F900BF8021024800F05FF8002859
:10542000F9D010BD0048004021B1828942F40052F9
:10543000828104E082894DF6FF731A4082817047B1
:1054400010B504462048844209D101218803FFF7A2
:105450007BFA00214FF48040FFF776FA32E01B48D8
:10546000844209D101214804FFF74EFA00214FF48C
:105470000030FFF749FA25E01548844209D101219F
:105480008804FFF741FA00214FF48020FFF73CFA2F
:1054900018E01048844209D10121C804FFF734FA0A
:1054A00000214FF40020FFF72FFA0BE00A48844256
:1054B00008D101210805FFF727FA00214FF48010D9
:1054C000FFF722FA10BD0000003801400044004000
:1054D00000480040004C00400050004002460020C0
:1054E000B1F5007F00D100BF13880B400BB1012044
:1054F00000E00020704770B502460024002300251C
:10550000002040F66A16B14200D100BFC1F3421537
:1055100001F01F03012606FA03F3012D02D196893B
:10552000334006E0022D02D1168A334001E0968A0C
:1055300033400C12012606FA04F41688344013B1E5
:105540000CB1012000E0002070BDF0B5034600243E
:1055500000260025002040F66A17B94200D100BF9E
:105560001846C1F3421401F01F06012707FA06F599
:10557000012C01D10C3004E0022C01D1103000E0EC
:1055800014301AB107682F43076002E00768AF4381
:105590000760F0BD2DE9F04786B005460E460024B1
:1055A000A24600BFA1460027B08900B100BF2F4628
:1055B0002C8A4CF6FF700440F08804432C82AC899E
:1055C0004EF6F3100440B0883189084371890843CE
:1055D0000443AC81AC8A4FF6FF400440B0890443D9
:1055E000AC8201A8FFF7C0F91F48874202D1DDF85D
:1055F00010A001E0DDF80CA0A88900F4004040B143
:105600000AEBCA0000EB0A1031684900B0FBF1F860
:1056100007E00AEBCA0000EB0A1031688900B0FB12
:10562000F1F86420B8FBF0F004012009642101FBCB
:105630001089A88900F4004040B1322000EBC90075
:10564000B0FBF1F000F00700044308E0322000EB6B
:1056500009106421B0FBF1F000F00F0004432C812D
:1056600006B0BDE8F0870000003801400146888898
:10567000C0F308007047C1F3080282807047000041
:105680000BE000BF0749098801F040010029F9D06B
:105690000178044A121D1180401C01780029F0D1C4
:1056A000704700000038014000BFFEE70FB4054B13
:1056B00010B503A9044A029800F0D2F910BC5DF8B5
:1056C00014FB0000E1640008340300200FB4084B11
:1056D00010B504A902AA039800F0C2F9044602A971
:1056E000002000F0DAFD204610BC5DF814FB00003D
:1056F0009B6200087CB5044600201D461646002922
:105700000BD0491ECDE90041044B6A46294630467C
:1057100000F0A6F9009A002111707CBD8562000896
:10572000490050EAC12018BF04204A0D18BF40F0BC
:10573000010040F2FF72B2EB515F08BF40F002007F
:10574000012808BF052070472DE9F0414F1E00EBEE
:10575000C7010446D1E9000115461E4637F006028E
:105760000DD02A463346FAF7CCFF7F1E04EBC70361
:10577000D3E90023FAF71EFF37F00602F1D1022F1A
:1057800025D0042F13D0062F18BFBDE8F0812A467C
:105790003346FAF7B6FFD4E90A23FAF70BFF2A4695
:1057A0003346FAF7AEFFD4E90823FAF703FF2A4697
:1057B0003346FAF7A6FFD4E90623FAF7FBFE2A469A
:1057C0003346FAF79EFFD4E90423FAF7F3FE2A469C
:1057D0003346FAF796FFD4E90223FAF7EBFE2A469E
:1057E0003346FAF78EFFD4E90023BDE8F041FAF71B
:1057F000E1BE00000022134610460149FAF7F3BF4C
:105800000000F03FFAF7D6BE0022134610461146BC
:10581000FAF7E9BF40F2013200204FF0E041FBF718
:10582000E3BA0000024A00201107FBF7DDBA0000CE
:1058300001FDFFFF0148006870470000A80A002032
:10584000014609B900207047C8B220B1C8B20E4A5B
:10585000105C401CF7E701F47F4028B10A48C1F30F
:105860000722805C0930EEE701F47F0028B106488A
:10587000C1F30742805C1130E5E7034800EB11609B
:1058800000781930DFE70000788B000802E008C8D4
:10589000121F08C1002AFAD170477047002001E0AA
:1058A00001C1121F002AFBD17047000001490860A6
:1058B00070470000A80A00202DE9FF5F82B0002198
:1058C000DDE90430020DDDF840B0034318D044F6A2
:1058D0001050A2F2FF3242431514119801281FD034
:1058E000A5EB0B00401C5FEA000A4FF000064E4F8C
:1058F000DFF83891B046504615D5CAF1000413E0E0
:10590000119801244AA3012801D16FEA0B010298E2
:10591000119AC0E90031C0E9024206B0BDE8F09F2B
:10592000CBF10000DFE704460021404A491842EB72
:105930000450CDE9001012E0E00707D032463B46A4
:1059400040464946FAF7DDFE8046894632463B46E8
:1059500010461946FAF7D5FE06460F466410002C8D
:10596000EAD1DDE90401DDE90023BAF1000F06DA2E
:10597000FAF7C7FE42464B46FAF7C3FE05E0FAF7D0
:1059800032FF42464B46FAF72EFF04460E460022EF
:10599000284BFBF753F803D84FF0FF30014607E0E0
:1059A0000022254B20463146FAF704FEFBF71AF891
:1059B000102409E0002C0ADB0A220023FBF79CF8E4
:1059C000039B30321A55641E50EA0102F2D1641C66
:1059D000039AC4F111031444119A012A03D001223D
:1059E00008430DD10AE0084304D000204FF0110B0A
:1059F000119072E7A3EB0B056D1E0DE05B4504DD16
:105A00004FF0000205F1010504E003DA4FF0000257
:105A1000A5F10105002AECD002981199C0E90231E4
:105A2000C0E9004579E70000000014400000F03FA5
:105A3000300000000000F0430000E03F0349086828
:105A4000884201D0012070470020FCE74C02002072
:105A500030380A2801D2012070470020704700002A
:105A60002DE9FF4F95B09B468946064600250FE27B
:105A7000252877D100242746F84A0121059400E023
:105A8000044316F8013F203B01FA03F01042F7D11E
:105A900030782A2811D06FF02F033078A0F130022F
:105AA000092A16D8059A44F0020402EB820203EB9D
:105AB00042021044761C0590EFE759F8042B05923A
:105AC000002A03DA504244F40054059044F00204E2
:105AD000761C30782E2816D116F8010F44F00404F5
