:020000040800F2
:100000000027002045010008513500080F020008B4
:100010004D35000867130008554B0008000000002C
:100020000000000000000000000000008F400008F9
:10003000A51600080000000097010008A141000873
:100040005F0100085F0100085F0100085F01000810
:100050005F0100085F010008A91600085F010008A1
:100060005F0100085F0100085F0100085F010008F0
:100070005F0100085F0100085F0100085F010008E0
:100080005F0100085F0100085F0100085F010008D0
:100090005F0100085F0100085F0100085F010008C0
:1000A0005F0100085F0100085F0100085F010008B0
:1000B000114200085F0100085F0100085F010008AD
:1000C0005F0100085F0100085F0100085F01000890
:1000D0005F010008E9450008794600084D4700081F
:1000E000C51600085F0100085F0100085F010008F5
:1000F0005F0100085F0100085F0100085F01000860
:100100005F0100085F0100085F0100085F0100084F
:1001100049440008A14500085F010008C5420008E5
:100120005F0100085F0100085F0100085F0100082F
:10013000DFF80CD000F0DAFD004800476B11000832
:10014000002700200648804706480047FEE7FEE7F4
:10015000FEE7FEE7FEE7FEE7FEE7FEE7FEE7FEE777
:10016000B141000831010008EFF3108072B670470A
:1001700080F310887047324A1368012B04D04FF087
:10018000010313602F4A10602F4A11602F484FF06F
:10019000805101607047EFF3108272B62848016801
:1001A00091B14FF0000101602648016829B1EFF3D9
:1001B000098121E9F00F0068016023490968096895
:1001C000B1E8F00F81F3098882F310884EF0040E35
:1001D00070471D4908601B494FF00000086018492E
:1001E0004FF0010008601A484FF47F01D0F800205A
:1001F00041EA0201016015484FF080510160154845
:100200000068006880F3088861B662B670471EF027
:10021000040F14BFEFF30880EFF3098020E9F00F1B
:1002200040F804ED14BF80F3088880F3098800B516
:1002300006F0A8FB5DF804EB4EF0040E70470000DA
:10024000C8010020C0010020C401002004ED00E02E
:1002500020ED00E008ED00E040EA01039B0703D039
:1002600009E008C9121F08C0042AFAD203E011F8F5
:10027000013B00F8013B521EF9D27047D2B201E0B7
:1002800000F8012B491EFBD270470022F6E710B59B
:1002900013460A4604461946FFF7F0FF204610BDF4
:1002A00030B505462A460B4612F8010B13F8014BF0
:1002B00008B1A042F8D01CB1002802D06D1CF1E7B3
:1002C000284630BD421C10F8011B0029FBD1801AC2
:1002D000704710B5002200E0521C835C8C5CA34286
:1002E00001D1002BF8D1D8B2E1B2401A10BD000004
:1002F0000FB400B58DB010A909900B9000914FF08C
:10030000FF300A9000200C900548069005480790A1
:100310006A4609A80F9900F0E7FB0DB05DF814FBE1
:10032000050B0008230B00082DE9FF5FD2E901A7A8
:100330004FF00008916999461446DDF838B04646FA
:1003400001988847054659EA0B0005D009E0A169E4
:10035000761C019888470546216A28468847002868
:10036000F5D1681C03D05FEACA7005D015E04FF0E4
:10037000FF3004B0BDE8F09F2068011D2160D0F877
:1003800000800AE05FEACA7001D108F8015BA16948
:10039000761C7F1E019888470546002F1ADD681CD1
:1003A00018D0B9F1000F0DD0E81705EBD06042115D
:1003B00020F01F0059F822102A1A01209040014213
:1003C000E0D107E0BBF1000FDCD1216A2846884765
:1003D0000028D7D0E16901988847BBF1000F07D109
:1003E000002E05DD5FEACA7002D1002188F80010F6
:1003F000A068B84203DDBBF1000F03D017B16FF066
:100400000100B6E73046B4E7F0B480EA0102D40F49
:100410004200B2EB410F02D20246084611464A00A2
:1004200042D0C30DDDB2C1F3C752AD1A202D35DA6B
:10043000C1F3160141F4000204B15242C5F1200695
:1004400002FA06F12A411044B3EBD05F23D0C4B1C5
:10045000012DA0EBC35009DCF0BC4FF0004202EAD2
:10046000C352DBB200F5000000F075BB400000F1A4
:10047000807000EBC350A0F1807040EAD170490059
:1004800009E0490841EAC071A0EBC35000F5000043
:10049000400800EBC350F0BC00F054BB61420122A5
:1004A00002EB4101001BF6E7F0BC704781F0004110
:1004B000AAE780F00040A7E780EA010210B502F049
:1004C0000043400022D04A001FD0010E01EB126110
:1004D000C0F35600C2F3560240F4000042F400029A
:1004E000A0FB022000047F39140400D0401C50EA15
:1004F000124001D44000491EC2B20C0604EBD010D9
:10050000401C4008802A02D003E0002010BD20F0EB
:100510000100002900DA0020184310BD30B480EA41
:10052000010202F0004530F0004221F0004013D0FB
:1005300090B1C30DD40DC2F31601C0F31600E41A36
:1005400041F4000140F400027D34914201D3641C67
:1005500000E04900002C02DA30BC002070474FF464
:1005600000000023914201D3891A034340084FEA57
:100570004101F7D151B1914202D14FF0004105E064
:1005800002D24FF0010101E06FF0010103EBC45012
:10059000284430BC00F0D6BA2DE9FE4F804681EAEF
:1005A0000300C00F0C46009021F0004123F00045ED
:1005B000B8EB0200A94105D24046214690461C46B0
:1005C0000B46024623F00040104347D0270DC7F3E7
:1005D0000A00C3F30A510290401A019040286BDAD6
:1005E000C3F3130040F4801B0098924620B100230F
:1005F000D2EB030A63EB0B0B01985946C0F14002A2
:10060000504600F03AFA06460D4650465946019AC1
:1006100000F052FA10EB08006141002487EA115201
:1006200084EAE7731A4340D0009A62B3019A012A20
:100630004FEA075215DC001B61EB02014FF000424C
:1006400002EA0752CDE90042001C41F58011324612
:100650002B4600F0BDFA03B0BDE8F08F40462146BE
:10066000F9E7001B61EB0201001C41F58013001843
:100670005B412018A2F5001747EB030140EAD57053
:10068000B6196D4111E06D084FEA360645EAC075AE
:100690004FEA0752001B61EB0201001C41F580117B
:1006A00049084FEA30000019514132462B4603B049
:1006B000BDE8F04F00F07DBA009801224000002311
:1006C000D0EB020263EBE073009821464FEAE0743E
:1006D000B8EB000061EB0401E9E783F000435BE75E
:1006E00081F0004158E72DE9FE4F81EA030404F050
:1006F000004421F0004100944FF0000B23F0004330
:1007000050EA01045ED052EA03045BD0C3F30A54FA
:10071000C1F30A552C44A4F2F3340194A0FB025413
:10072000C1F3130141F48011C3F3130343F48013A5
:1007300001FB024400FB034E840A970A44EA8154F9
:1007400047EA8357A4FB076802958D0A05FB0785D6
:100750004FEA932C04FB0C542705029D4FEA0658E0
:1007600047EA1637B5EB08056EEB070C870E920EBD
:1007700047EA811742EA8312A7FB0201B6EB0B019D
:1007800064EB00042B0D43EA0C335E1844EB1C5061
:10079000DA465146E7FB0201C5F313044FEA0B3377
:1007A00043EA14534FEA0432019C43EA0603A4F1DE
:1007B0000C040294009CCDE900B400F009FA03B0E7
:1007C000BDE8F08F00200146F9E72DE9F04D81EA00
:1007D000030404F0004B21F0004514464FF0000ADA
:1007E00023F0004150EA050220D054EA01021DD056
:1007F000C5F30A570246C5F31303C1F31300C1F34F
:100800000A5640F4801543F48013A7EB0608101B2A
:10081000D64608F2FD3873EB050002D308F1010853
:1008200001E092185B41B8F1000F03DA00200146A5
:10083000BDE8F08D00204FF48011064684460EE09E
:10084000171B73EB050705D3121B63EB0503064368
:100850004CEA010C49084FEA300092185B4150EA1B
:100860000107EDD152EA030012D082EA040083EAC4
:100870000501084305D0101BAB4106D2012200231D
:1008800006E000224FF0004302E06FF00102531037
:100890001AEB06004CEB085110EB0A0041EB0B0180
:1008A000BDE8F04D00F085B9C10F80EAE070084462
:1008B000CA079623002100F04EB996230022114664
:1008C00000F049B900F0004220F00040C10DC0F333
:1008D000160040F400007F2901DA002070479629B5
:1008E00003DCC1F19601C84001E096398840002A36
:1008F000F4D04042704770B5C1F30A5201F0004590
:100900000024C1F3130140F2FF3341F480119A42F5
:1009100001DA002070BD40F233439A42A2F2334222
:1009200003DC524200F0B8F800E090402C43F1D0D4
:10093000404270BD00F0004230F000400AD0C10DCE
:1009400001F56071C0F3160042EA0151C208400788
:1009500011437047002001467047000030B5041E67
:1009600071F1000404DB4FF00044404264EB0101EC
:10097000141E73F1000405DB1C464FF00043524285
:1009800063EB0403994208BF904230BD01F000437D
:1009900030B421F0004150EA010206D00A0DA2F560
:1009A0006072C1F31301002A02DC30BC00207047E2
:1009B000440F44EAC104C100E01830BC00EBC2504F
:1009C00000F0C0B8002801DBC0F10040002901DBC5
:1009D000C1F1004181427047002801DBC0F10040B5
:1009E000002901DBC1F100418842704730B50B4658
:1009F000014600202022012409E021FA02F59D424F
:100A000005D303FA02F5491B04FA02F52844151E22
:100A1000A2F10102F1DC30BD2DE9F05F05460020B6
:100A200092469B4688460646814640241BE028465F
:100A300041464746224600F02FF853465A46C01A10
:100A4000914110D311461846224600F016F82D1A8F
:100A500067EB01084F4622460120002100F00DF807
:100A600017EB00094E41201EA4F10104DFDC4846CB
:100A700031462A464346BDE8F09F202A04DB203A4F
:100A800000FA02F1002070479140C2F1200320FAE1
:100A900003F3194390407047202A04DB203A21FADF
:100AA00002F00021704721FA02F3D040C2F1200287
:100AB0009140084319467047202A06DBCB17203A9D
:100AC00041FA02F043EAE07306E041FA02F3D04053
:100AD000C2F1200291400843194670470268114450
:100AE0001378016018467047D16004495161044988
:100AF000116200211161114600F010B9DD0A0008F1
:100B0000110D0008426842B1016811F8013B23B1A0
:100B1000521EC0E90012184670470121C160881EAC
:100B2000704742685AB1C368016843B983688B4211
:100B300005D0491E521CC0E90012002070474FF03A
:100B4000FF3070470029A8BF7047401C490008BF0C
:100B500020F00100704710B4B0FA80FC00FA0CF0ED
:100B600050EA010404BF10BC704749B1CCF1200425
:100B700021FA04F411FA0CF118BF012121430843B2
:100B8000A3EB0C01CB1D4FEA00614FEA102042BFDE
:100B9000002010BC704700EBC35010440029A4BFD4
:100BA00010BC7047401C490008BF20F0010010BC79
:100BB000704710B5141E73F1000408DA401C41F1AF
:100BC000000192185B411A4301D120F0010010BDD1
:100BD0002DE9F04D92469B4611B1B1FA81F202E047
:100BE000B0FA80F220329046FFF747FF04460F46E6
:100BF00040EA0A0041EA0B0153465A46084313D023
:100C0000114653EA010019D0C8F140025046FFF7DF
:100C100043FF05460E46504659464246FFF72DFF14
:100C2000084305D0012004E020463946BDE8F08D98
:100C30000020054346EAE0762C4337430A986305D3
:100C4000E40AA0EB08000022FD0A44EA47540A30F7
:100C500002D500200146E9E7010510196941DDE9E7
:100C6000084500196941BDE8F04DA2E770B521F0D3
:100C7000004303430CD0C1F30A550024D5EB04050F
:100C800064EB0403D617AD1AB34102DB0020014622
:100C900070BD201841EB025170BD0EB5C10F80EA46
:100CA000E0700844CA07002140F233438DE80E008B
:100CB0000A460B46FFF78CFF03B000BDC1F30A5292
:100CC000C1F3130140F2FF3341F480119A4202DA7A
:100CD00000200146704740F233439A42A2F2334269
:100CE00002DC5242FFF7D8BEFFF7C7BE064C074DE5
:100CF00006E0E06840F0010394E8070098471034EC
:100D0000AC42F6D3FFF718FAF48B0008148C0008F5
:100D1000C0B24FF4F05100F0E9B900002DE9F34FF3
:100D20008BB04FF0000801F10C000C464FF0010BA6
:100D300046460DF1080A0190626901210198904729
:100D4000051E2DD0252D2CD0216A8847C0B162699F
:100D5000012101989047216A88470028F7D1411E58
:100D600062690198904700E0761CA1690B9888475A
:100D7000216A88470028F7D1E1690B988847DBE7AB
:100D8000A1690B9888470746A84201D1761CD3E792
:100D9000E1690B9888477F1C02D1B8F1000F6FD032
:100DA00046E1002762693D463946019890472A2866
:100DB00004D162690121019890470125DFF88492EE
:100DC0006269012101989047A0F130010A290AD2F5
:100DD0004F45E5DC07EB870100EB4107303FDFD4EF
:100DE00045F01005ECE7E90601D46FF000476C28E8
:100DF0000AD04C2814D0682815D06A280DD0742841
:100E00001CD07A281AD01DE0626901210198904710
:100E10006C2802D045F0040514E045F002050DE011
:100E200045F020050AE06269012101989047682891
:100E300002D045F0080505E045F40065626901212E
:100E400001989047C4E9015765283DD019DC58281E
:100E50007AD00CDC452837D004DC252826D0412860
:100E600031D131E046282FD047282CD12CE05B2807
:100E700077D0612828D063287CD0642823D15AE019
:100E8000D0E06F2848D008DC66281DD067281BD02A
:100E9000692821D06E2816D127E0702845D0732804
:100EA00068D0752847D078280DD14DE0A1690B98FE
:100EB0008847054625283FF469AFE1690B988847C4
:100EC0006D1C3FF46AAFB3E023466A466FF0010041
:100ED0000B99AFF300809EE045F040006060A807EA
:100EE00023464FF0000236D43EE0E8077FF447AFD8
:100EF0002068011D21600068290501D506701BE7E7
:100F0000290701D5068017E7A90703D5F117C0E91E
:100F1000006111E706600FE745F040006060A80738
:100F200023464FF0080216D41EE040F60E0125EAD3
:100F30000100606016E045F040006060A8072346AD
:100F40004FF00A0207D40FE045F040006060A807A8
:100F500008D5234610226FF001000B99AFF30080F3
:100F600059E007E0234610226FF001000B99AFF320
:100F7000008050E04FF000094F464B46632802D0F6
:100F80005B2806D040E0E80601D40120A0600127DC
:100F90003AE062690121019890475E2805D14FF03F
:100FA00001096269494601989047216939B90021D0
:100FB0000A46534643F82120491C0829FADBB0B3FE
:100FC000216969B9C11700EBD16253110AEB8301A2
:100FD00022F01F02821A01200B68904003430B602D
:100FE00062690121019890475D28E8D1B9F1000FAD
:100FF00009D00020514651F82020D24341F820204A
:10100000401C0828F7DB02AB224600976FF0010076
:101010000B99FFF789F900280CDA401C08D1BBF1C5
:10102000000F05D04FF0FF300DB0BDE8F08FFFE7A7
:101030004046F9E7E90701D108F1010806444FF0FD
:10104000000B79E6CCCCCC0C2DE9F04D00231A46F0
:101050001B1A8A4103DB00200146BDE8F08DC1F375
:101060000A52C1F3130141F480154FF0000BD10770
:1010700002D100186D41521E0027044640F2FF11B4
:10108000384601EB620A3E468046024600204FF495
:101090008011FFF701FDC2197141BB1846EB010039
:1010A000B4EB030C75EB000C04D3E41A65EB0005FC
:1010B00017460E46241908F101006D418046342878
:1010C000E3DDF91946EB0600091BA84103D24FF0F6
:1010D000FF32134601E0002213461BEB070046EBEC
:1010E0000A51BDE8F04DFFF764BD00007F2801D92B
:1010F000002208E0064A02EB5002C007127800D135
:10110000120902F00F0201209040084070470000D1
:10111000A086000870B58C1810F8015B15F0070365
:1011200001D110F8013B2A1106D110F8012B03E080
:1011300010F8016B01F8016B5B1EF9D12B0705D488
:101140000023521E0DD401F8013BFAE710F8013BD1
:10115000CB1A921C03E013F8015B01F8015B521EED
:10116000F9D5A142D8D3002070BD10B5FEF7FCFF21
:1011700006F05CFC002010BDCA430260704721B13C
:10118000826842F00102826003E0826822F001027C
:101190008260704710B504461248844208D101218C
:1011A000401502F0D5FC0021601502F0D1FC17E0DB
:1011B0000D48844208D10121001502F0C9FC00212C
:1011C000201502F0C5FC0BE00848844208D101213B
:1011D000C80302F0BDFC00214FF4004002F0B8FC4F
:1011E00010BD00000024014000280140003C0140E7
:1011F000014600208A6802F004020AB1012000E0E2
:10120000002070470146C86C80B27047024600203B
:1012100013680B400BB1012000E00020704701462D
:1012200000208A6802F008020AB1012000E00020D4
:101230007047000030B502460020002350680F4C74
:1012400020400D790C6844EA0524204350609068E2
:101250000B4C2040D1E902542C434D7944EA45041B
:1012600020439060D06A20F470000C7C641EE4B2CD
:10127000234340EA0350D06230BD0000FFFEF0FF80
:10128000FDF7F1FFF0B504460D4600200021092DC1
:1012900011DDE068A5F10A0606EB4607072606FA07
:1012A00007F18843A5F10A0606EB460603FA06F1A4
:1012B0000843E0600CE0206905EB4507072606FAC5
:1012C00007F1884305EB450603FA06F10843206160
:1012D000072A0FDA606B561E06EB86071F2606FAF2
:1012E00007F18843561E06EB860605FA06F1084309
:1012F000606322E00D2A0FDA206BD61F06EB86070B
:101300001F2606FA07F18843D61F06EB860605FA64
:1013100006F10843206310E0E06AA2F10D0606EB37
:1013200086071F2606FA07F18843A2F10D0606EB91
:10133000860605FA06F10843E062F0BD816841F0D7
:1013400008018160704721B1826842F4A002826086
:1013500003E0826822F4A00282607047816841F055
:1013600004018160704700BFFEE72DE9F0410446AB
:101370000D460821202002F0CFFD02F0A9FD06460F
:10138000370C1FFA86F82760C5F80080BDE8F081A9
:101390002DE9F04F87B082468B46002005900490DF
:1013A00004AA05A9442002F015FEBDF81400FFF7B9
:1013B00084FA0190FFF7BEFA064600222A4BFFF797
:1013C00092F90022294BCDE90201FFF7FEF904460C
:1013D0000022274BFFF781F98046FFF7D7FACAF8BA
:1013E0000000BDF81000FFF768FA0390FFF7A2FABB
:1013F000804600221F4BFFF776F9064600221B4B62
:10140000FFF7E3F90446FFF7C1FACBF800001A49E9
:10141000DAF80000FFF7E0FA1AD81849DAF8000005
:10142000FFF7D0FA14D80021DBF80000FFF7D4FA58
:101430000ED81349DBF80000FFF7C4FA08D8DAF831
:101440000000CAF80000DBF80000CBF8000004E060
:101450000020CAF80000CBF800000020049005909E
:1014600007B0BDE8F08F000000E06540E0FFEF400E
:1014700000804640000059400000A0C10000FA4230
:101480000000C84210B5094803F0F0FA002404E057
:10149000002006490855601C84B2B92CF8DB0020F6
:1014A0000349088000F068FE10BD000040220020C3
:1014B000BC02002010B5002404E0002005490855B6
:1014C000601C84B2B92CF8DB00200349088000F0CE
:1014D00053FE10BD40220020BC02002070B5002445
:1014E0002BE04FF40071164800F0ACFB4FF48C7009
:1014F00004F00EFA01211348FFF725FF00BF022177
:101500001048FFF783FE0128F9D10E48FFF77AFE55
:10151000054600F087FA02210A48FFF72DFE132046
:1015200004F0F6F94FF40071054800F089FB42F22F
:10153000D05004F0EDF9601CC4B2142CD1DB70BDA6
:10154000001001400028014026480078F4283FD1CF
:1015500024484078F3283BD122488078F22837D1BC
:101560002048C078F12833D11E48C079AA2826D156
:101570001C48407C552822D11A48007A1A49087024
:101580001848407A1749897A00EB012016494870BB
:101590001448C07A88701348007B1249497B00EBDD
:1015A00001201149C8700F48807B08710D48C07B2D
:1015B0000C49097C00EB01200B49487110E0002028
:1015C0000949087048708870C8700871487107E050
:1015D00000200549087048708870C870087148710B
:1015E0007047000044170020461B002010B52B4810
:1015F0004078012851D100202849487008460079D8
:1016000001280CD10020C8712548C079132844D185
:101610002348007A002840D104F094FA3DE01F48A6
:101620000079022810D100201C49C8711C4880791B
:10163000042832D11A48C07912282ED11848007ACD
:1016400058BB04F091FA28E014480079032810D11F
:1016500000201249C8711248807902281DD1104813
:10166000C079202819D10E48007AB0B904F058FA90
:1016700013E00A48007904280FD100200749C871F7
:1016800007488079022808D10548C079212804D16B
:101690000348007A08B904F031FA10BD5202002064
:1016A000861B00207047000010B5012000F020F8D4
:1016B00020B101200249087000F014F810BD0000AC
:1016C000F700002010B54FF4005000F011F828B1D9
:1016D000012003490870400300F004F810BD000029
:1016E000F800002001490860704700001404014020
:1016F000014600200022074B1B6803EA0102054B4C
:1017000014331B680B4013B10AB1012000E0002024
:101710007047000000040140002123498279002A1B
:101720003AD00A46126803689A430B461A600A1DAB
:10173000126803689A430B1D1A60027911440A6803
:1017400003681A430A60184A0832126803689A4309
:10175000154B08331A601A1D126803689A43124B1E
:101760000C331A604279102A0ED11A1F12680368CE
:101770001A430D4B08331A601A1D126803681A4386
:10178000094B0C331A600DE00749427911440A688D
:1017900003681A430A6005E0027911440A68036885
:1017A0009A430A6070470000000401400EB5012111
:1017B000052002F0BDF90121112002F0B9F901F074
:1017C000C8FE0120ADF8080004208DF80B0002A926
:1017D000194800F0A1F90021084600F07DF9012028
:1017E000009000208DF8040008208DF805000120ED
:1017F0008DF806006846FFF78FFF4FF40050ADF8F4
:10180000080004208DF80B0002A90C4800F084F9B0
:101810000D21022000F060F94FF4005000900020EC
:101820008DF804000C208DF8050001208DF80600CD
:101830006846FFF771FF0EBD00080140001001402F
:1018400010B51448007801280AD100F08FFAFFF78C
:10185000CDFE022004F050F800200E49087015E07B
:101860000D48007801280AD100F06AFAFFF7BEFEA1
:10187000022004F041F800200749087006E000F05B
:101880008BFAFFF7B3FE022004F036F800F074FC88
:1018900010BD0000F7000020F800002010B500F097
:1018A00025F800F001F810BD0EB50121084602F040
:1018B0001FF940F2E730ADF804004720ADF8000012
:1018C0000020ADF80600ADF802008DF8080069466A
:1018D0004FF0804002F066FD0121880702F036FDDE
:1018E00001221146900702F054FD0EBD08B54FF4D9
:1018F000E06001F093FE1C208DF8000000208DF8C0
:10190000010003208DF8020001208DF803006846D5
:1019100001F04CFE08BD10B500F05CF800F0A0F836
:1019200010BD00002DE9F04F87B00025002405E030
:10193000214830F814000544601CC4B2142CF7DBB5
:101940002846FEF7BAFF83461C49FEF7E7FD8246AC
:10195000FEF7F0FF00221A4BCDE90201FEF735FF3A
:1019600007460022174BFEF7BEFECDE90401FFF744
:101970000DF806463046FEF7DDFF07460022124B03
:10198000FEF723FF114A124BCDE90001FEF7ABFE33
:1019900000221346CDE90201FEF79FFE8246002297
:1019A000094BFEF7A0FECDE90401FEF7EFFF8146EB
:1019B000484607B0BDE8F08FEC1500200000A041BC
:1019C0000000B04000C8A94000408F40C74B378995
:1019D0004160C53F08B50121102002F0A9F8082098
:1019E000ADF8000000208DF8030003208DF8020000
:1019F00069460B4800F090F84FF40070ADF8000015
:101A000010208DF8030003208DF802006946044879
:101A100000F082F84FF40071014800F011F908BDA0
:101A2000001001400849094A127821F812000749BC
:101A30000978491C054A117011460978142901D109
:101A40000021117070470000EC150020D801002023
:101A500010B5FFF743FDFFF765FF0446204610BDB4
:101A600000B585B00121880202F062F800200090E4
:101A70008DF804008DF805004FF4602002900020DE
:101A8000039001208DF8100069461248FFF7D2FB41
:101A90004FF4404002F020F8052301220D210D48AB
:101AA000FFF7F0FB01210B48FFF769FB0948FFF73F
:101AB00045FC00BF0748FFF7B2FB0028FAD10548F4
:101AC000FFF74CFC00BF0348FFF792FB0028FAD158
:101AD00005B000BD0028014030B500228B071C0F67
:101AE0000F2303FA04F20B4B8C1053F8243093436A
:101AF000084C8D1044F8253023468C1053F82430C0
:101B00008C07240F00FA04F42343024C8D1044F890
:101B1000253030BD080001402DE9F0410246002586
:101B20000026002000230024002791F803C00CF0B9
:101B30000F0591F803C00CF0100CBCF1000F03D09E
:101B400091F802C04CEA050591F800C0BCF1000F05
:101B500031D0146800202BE04FF0010C0CFA00F398
:101B6000B1F800C00CEA03069E4220D183004FF07A
:101B70000F0C0CFA03F7BC4305FA03FC4CEA04040F
:101B800091F803C0BCF1280F06D14FF0010C0CFAFC
:101B900000FCC2F814C00AE091F803C0BCF1480F81
:101BA00005D14FF0010C0CFA00FCC2F810C0401C2B
:101BB0000828D1D31460B1F800C0BCF1FF0F34DDA8
:101BC000546800202EE000F1080C4FF0010808FADC
:101BD0000CF3B1F800C00CEA03069E4221D1830049
:101BE0004FF00F0C0CFA03F7BC4305FA03FC4CEA68
:101BF000040491F803C0BCF1280F05D100F1080CD2
:101C000008FA0CF8C2F8148091F803C0BCF1480F30
:101C100007D100F1080C4FF0010808FA0CF8C2F8DF
:101C20001080401C0828CED35460BDE8F0810246E5
:101C3000002093680B400BB1012000E000207047AA
:101C4000416170470161704710B5044607230122C6
:101C500021460948FFF716FB01210748FFF773FBF0
:101C600000BF02210448FFF7D1FA0028F9D002484A
:101C7000FFF7C8FA10BD0000002401402DE9F04133
:101C800007460C460025002608E03846FFF7DCFF33
:101C90000544052003F0FAFD701CC6B2A642F4DB31
:101CA000B5FBF4F080B2BDE8F081000010B503F0A0
:101CB00095FD11480068114908600F484068486068
:101CC0000D48006908610C48406948610A4880680D
:101CD00088600948C068C8600748407E4876064862
:101CE000807E88760448C069C8610348006A08623B
:101CF00000F042FA10BD0000C800002040000020A3
:101D000010B532210B48FEF7C0FA32210A48FEF71F
:101D1000BCFA002007498886074988860C200749B5
:101D20000870002048708870C8700871C871887188
:101D3000487110BD501B0020861B0020520200205D
:101D400010B5FFF7DDFF0A2006490870042008716E
:101D5000054800F0A3F800BF024840780028FBD0F7
:101D600010BD000052020020F301002010B5FFF763
:101D7000C7FF0C200649087001200871054800F0D3
:101D80009BF800BF024840780028FBD010BD00003F
:101D900052020020E101002010B5FFF7B1FF0C2036
:101DA0000649087002200871054800F085F800BF58
:101DB000024840780028FBD010BD000052020020ED
:101DC000D901002010B50446EF2C03D02F4800782D
:101DD000012859D101202D4908702D48818E2D48A8
:101DE0000078401E81422AD02948808E28490C5410
:101DF0000846808E401C88860846007A012817D045
:101E00000846007A062813D00846007A07280FD023
:101E10000846007A08280BD00846007A092807D01F
:101E20000846007A0A2803D00846007A03282BD1F6
:101E300001201849487000201449087024E0144813
:101E4000818E14480078401E81421DD11048808E3A
:101E50000F490C5432211048FEF717FA0C48828EB5
:101E600001460D48FEF7F8F90948808E0A49888630
:101E70000020064908700649888632210448FEF78A
:101E800004FA01200349487010BD00005A020020E6
:101E9000501B002052020020861B002070B5044613
:101EA000002500BF05E014F8010B02F0A3FC681C3C
:101EB000C5B20A2DF7DB70BD70B50446002500BF22
:101EC00005E014F8010B02F095FC681CC5B2082D62
:101ED000F7DB70BD10B502F06BF800200C4908600C
:101EE000022003F015FD00200A49C1F89C010220E0
:101EF00003F00EFD012006490860022003F008FDF2
:101F000000200449C1F89801012003F001FD10BD33
:101F1000988121420080214210B502F049F800204A
:101F20000C490860022003F0F3FC01200A49C1F8C3
:101F30009C01022003F0ECFC01200649086002200D
:101F400003F0E6FC00200449C1F89801012003F0E9
:101F5000DFFC10BD988121420080214270B5002431
:101F600001F0F4FF012003F0D3FC002516E000206F
:101F70000E490860022003F0CBFC01200C49C1F897
:101F800098016006040E09487C38006808B144F0E6
:101F90000104012003F0BCFC681CC5B2082DE6DB7F
:101FA000002002490860204670BD0000988121424F
:101FB0000080214270B5044601F0FAFF0020134969
:101FC000086000251FE004F0800020B101200F49C7
:101FD000091D086003E000200C49091D0860600627
:101FE000040E022003F094FC01200849086002203E
:101FF00003F08EFC00200649C1F89801022003F08E
:1020000087FC681CC5B2082DDDDB70BD98812142BC
:102010000080214210B501F0CBFF01200949086082
:102020000949C1F89801042003F072FC0020054919
:102030000860042003F06CFC00200349C1F89801FB
:1020400010BD00009C8121420080214210B520215A
:102050000748FFF7F7FD80210548FFF7F3FD8021D2
:102060000348FFF7EDFD20210148FFF7E9FD10BD12
:102070000008014010B501F09BFF00200A490860EC
:102080000A49C1F89C01042003F042FC01200649E2
:102090000860042003F03CFC01200449C1F89C01C5
:1020A000042003F035FC10BD9881214200802142BC
:1020B00010B520210548FFF7C5FD80210348FFF733
:1020C000BFFD80210148FFF7BDFD10BD00080140A4
:1020D00010B520210348FFF7B5FD20210148FFF787
:1020E000AFFD10BD0008014010B5C82401F060FF2D
:1020F00001201B49086003F00BFC00201949C1F8BE
:102100009801012003F004FC01F020FF012003F0FE
:10211000FFFB0EE0601EC4B2012003F0F9FB2CB9F6
:1021200000200F49091F0860012010BD012003F0A5
:10213000EFFB0B48803800680028EBD1012003F04A
:10214000E7FB01200649091F086003F0E1FB0020BE
:102150000449C1F89801012003F0DAFB0020E4E70C
:102160009C812142008021424CF6CC40014908600C
:10217000704700000030004010B500F013F810BDAB
:1021800070B505460C4645F2555000F01FF828463C
:1021900000F010F8204600F013F800F003F8FFF705
:1021A000E3FF70BD4AF6AA200149086070470000AD
:1021B0000030004001494860704700000030004096
:1021C0000149886070470000003000400149086004
:1021D000704700000030004010B54FF4E13005F0CA
:1021E00027FD482003F028FB4FF4A06001F016FA09
:1021F00002201749887002F0D3FAFFF7D7FA00F0EF
:1022000029F8FFF788FB01F0CDF847214FF47A70E9
:1022100002F06CF801F02CFA01F00AFA01F0A8FEC5
:1022200001F04EFEFFF73AFB02F072F94FF47A30FC
:1022300005F09EFC4FF4E13005F046FC4FF4FA70D7
:1022400003F024FB40F629110620FFF799FF10BD8B
:10225000F000002008B50121082001F069FC2020D1
:10226000ADF8000010208DF8030003208DF8020067
:1022700069460F48FFF750FC0120ADF800006946A1
:102280000B48FFF749FC0220ADF8000069460848FA
:10229000FFF742FC20210648FFF7D4FC0121044847
:1022A000FFF7D0FC02210248FFF7CCFC08BD00007C
:1022B000000C014010B501F0BBF9102318A2012158
:1022C000084601F009FB00F04BF84FF4967003F05C
:1022D000DDFA00F053F94FF4FA7003F0D7FA00F08A
:1022E00031FA4FF4FA7003F0D1FA00F045FB4FF4E5
:1022F000FA7003F0CBFA00F077FC4FF4FA7003F0B9
:10230000C5FA01F095F910230CA20121084601F04D
:10231000E3FA642003F0BAFA01F08AF910BD000074
:102320004D4C333032206973206265696E672069D5
:102330006E697469616C697A656400004D4C333074
:102340003220696E697469616C697A6174696F6E53
:1023500020697320636F6D706C6574650000000008
:1023600010B5FFF7A7F852A002F080FB4FF496706B
:1023700003F08CFA57A002F045FC4FF4967003F07E
:1023800085FA56A15648FDF78BFF56490860FFF7BE
:1023900079F80EE0FFF776F84EA002F033FC4FF428
:1023A000967003F073FA4DA14D48FDF779FF4D4942
:1023B00008604C4800680028ECD04BA002F022FCDA
:1023C0004FF4967003F062FA4AA002F01BFC4FF43F
:1023D000967003F05BFA4AA14148FDF761FF41495D
:1023E0000860FFF74FF80EE0FFF74CF841A002F04D
:1023F00009FC4FF4967003F049FA41A13848FDF703
:102400004FFF38490860374800680028ECD03DA0ED
:1024100002F0F8FB4FF4967003F038FAFFF732F849
:102420003FA002F0EFFB4FF4967003F02FFAFFF796
:1024300029F83FA002F0E6FB4FF4967003F026FA6D
:10244000FFF720F841A002F0DDFB4FF4967003F097
:102450001DFAFFF717F840A002F0D4FB4FF4967076
:1024600003F014FA3FA11E48FDF71AFF1D4908604A
:10247000FFF708F80EE0FFF705F837A002F0C2FBFF
:102480004FF4967003F002FA36A11548FDF708FFE5
:1024900014490860134800680028ECD034A002F00A
:1024A000B1FB4FF4967003F0F1F9FEF7EBFF10BDAE
:1024B000B1BEB4CEB2E2CAD4CAC7B7A2CAFDBEDDAD
:1024C000B5BD4D515454B7FECEF1C6F7B9A6C4DC24
:1024D0000D0A000041540D0A000000004F4B00009F
:1024E00040220020600200204154453026570D0A4A
:1024F0000000000041542B43494D490D0A000000E3
:102500003436300041542B434744434F4E543D3200
:102510002C224950222C22434D4E4554220D0A00B4
:1025200041542B43474143543D312C310D0A0000A7
:1025300041542B435354543D22434D4E4554222C79
:1025400022222C2222200D0A0000000041542B439D
:10255000494943520D0A000041542B43474154540A
:102560003F0D0A002B43474154543A31000000000C
:1025700041542B4353510D0A0000000010B54CA0EC
:1025800002F074FA50A002F03DFB4FF4FA7003F031
:102590007DF94DA002F036FB4FF4FA7003F076F9A6
:1025A0004BA14C48FDF77CFE4B4908600EE0FEF75E
:1025B00069FF45A002F026FB4FF4FA7003F066F9BC
:1025C00043A14448FDF76CFE434908604248006857
:1025D0000028ECD041A002F015FB4FF4FA7003F094
:1025E00055F9FEF74FFF3FA002F00CFB4FF4FA70D5
:1025F00003F04CF93EA002F005FB4FF4FA7003F033
:1026000045F93EA13348FDF74BFE334908600EE023
:10261000FEF738FF36A002F0F5FA4FF4FA7003F037
:1026200035F936A12B48FDF73BFE2B4908602A48B7
:1026300000680028ECD0FEF725FF34A002F0E2FA93
:102640004FF4FA7003F022F934A002F0DBFA4FF4F1
:10265000FA7003F01BF934A11E48FDF721FE1E4954
:10266000086034A11B48FDF71BFE3549086014E0E3
:10267000FEF708FF29A002F0C5FA4FF4FA7003F044
:1026800005F929A11348FDF70BFE1349086029A19C
:102690001048FDF705FE2A4908600F48006818B980
:1026A000274800680028E3D0FEF7ECFE10BD0000CC
:1026B000B1BEB4CEB2E2CAD4CAC7B4F2B5E7BBB0B9
:1026C000B9A6C4DC0D0A000041540D0A0000000048
:1026D0004F4B00004022002068020020415445304A
:1026E0000D0A000041542B4353510D0A0000000015
:1026F00041542B4350494E3F0D0A00002B43504993
:102700004E3A2052454144590000000041542B519B
:1027100049434C4F53453D300D0A000041542B4373
:102720005245473F0D0A00002B435245473A20309F
:102730002C3100002B435245473A20302C35000005
:102740006C02002010B556A002F090F94FF496707C
:1027500003F09CF85AA002F055FA4FF4967003F07B
:1027600095F859A15948FDF79BFD59490860FEF7B6
:1027700089FE0EE0FEF786FE51A002F043FA4FF408
:10278000967003F083F850A15048FDF789FD504939
:1027900008604F4800680028ECD04EA002F032FAE2
:1027A0004FF4967003F072F84DA002F02BFA4FF43C
:1027B000967003F06BF84EA002F024FA4FF4967076
:1027C00003F064F84DA14148FDF76AFD40490860F7
:1027D000FEF758FE0EE0FEF755FE45A002F012FA95
:1027E0004FF4967003F052F844A13848FDF758FDB5
:1027F00037490860364800680028ECD040A002F055
:1028000001FA4FF4967003F041F8FEF73BFE43A047
:1028100002F0F8F94FF4967003F038F8FEF732FE44
:1028200042A002F0EFF94FF4967003F02FF8FEF794
:1028300029FE45A002F0E6F94FF4967003F026F861
:10284000FEF720FE43A002F0DDF94FF4967003F08E
:102850001DF843A11D48FDF723FD1D490860FEF743
:1028600011FE0EE0FEF70EFE3AA002F0CBF94FF497
:10287000967003F00BF83AA11448FDF711FD1449C6
:102880000860134800680028ECD038A002F0BAF9BC
:102890004FF4967002F0FAFFFEF7F4FD10BD000051
:1028A000B1BEB4CEB2E2CAD4CAC7B7A2CBCDD3A20E
:1028B000CEC4B6CCD0C5B9A6C4DC0D0A0000000059
:1028C00041540D0A000000004F4B00004022002040
:1028D000700200204154453026570D0A00000000C8
:1028E00041542B4D4950434C4F53453D310D0A0047
:1028F00041542B43494D490D0A0000003436300045
:1029000041542B434744434F4E543D312C224950B0
:10291000222C22434D4E4554220D0A0041542B4394
:10292000474143543D312C320D0A000041542B43A2
:102930005354543D22434D4E4554222C22222C22E6
:1029400022200D0A0000000041542B434949435204
:102950000D0A000041542B43474154543F0D0A00D7
:102960002B43474154543A310000000041542B435B
:1029700053510D0A0000000010B5FEF79BFD1AA090
:1029800002F040F94FF4967002F080FF1AA002F0B6
:1029900039F94FF4967002F079FF1B4A1BA11EA073
:1029A00002F030F94FF4967002F070FFFEF76AFD06
:1029B00029A002F027F94FF4967002F067FF2EA1CC
:1029C0003148FDF76DFC3149086005E02AA12E4829
:1029D000FDF766FC2D4908602C4800680028F5D0FA
:1029E000FEF750FD10BD000041542B4D515454448E
:1029F0004953430D0A00000041542B4D5154544497
:102A0000454C0D0A000000007C8B000853544D33E8
:102A1000325F4D4C3330320041542B4D51545443AE
:102A200046473D223138332E3233302E34302E3962
:102A300036222C313838332C222573222C36302C78
:102A400022353738393237222C222573222C312C6B
:102A500022222C300D0A000041542B4D5154544F6A
:102A600050454E3D312C312C302C302C302C222234
:102A70002C22220D0A0000002B4D5154544F50457A
:102A80004E3A4F4B00000000402200206002002020
:102A90002DE9FF4F95B00C4691469A46DDF88CB073
:102AA0005046FDF747FF05460E464846FDF742FFF4
:102AB000074688462046FDF73DFFCDE912011598EF
:102AC000FDF738FFCDE91001DDE92723DDE9291005
:102AD000CDE90B23CDE90D10DDE924212698CDE9C0
:102AE00007B2CDE909102298CDE90278CDE9045664
:102AF0000690DDE91201CDE900010F48DDE9102360
:102B000002F080F84FF4967002F0C0FE0BA10F485F
:102B1000FDF7C6FB0E49086005E008A10B48FDF76C
:102B2000BFFB0B4908600A4800680028F5D0FEF793
:102B3000A9FC19B0BDE8F08FE08600082B4D515478
:102B40005450554241434B3A30000000402200208F
:102B5000600200202DE9F04F8BB004460D4616466A
:102B60009946DDE914ABDDE91878DDE91B23DDE9E1
:102B70001D10CDE90723CDE909101A98CDE9047895
:102B80000690169833462A4621468DE8000E03909B
:102B90000E4802F037F84FF4967002F077FE0CA161
:102BA0000F48FDF77DFB0F49086005E008A10C48C0
:102BB000FDF776FB0B4908600A4800680028F5D04D
:102BC000FEF760FC0BB0BDE8F08F00003089000814
:102BD0002B4D51545450554241434B3A3000000064
:102BE000402200206002002010B5FEF763FC11A215
:102BF00013A115A002F006F81EA12248FDF750FB14
:102C00002149086005E01BA11E48FDF749FB1E494C
:102C100008601D4800680028F5D0FEF733FC1BA0B3
:102C200001F0F0FF4FF4967002F030FEFEF72AFC40
:102C300010BD000053544D33325F4D4C33303200E1
:102C4000353738393237000041542B4D51545453E5
:102C500055423D22247379732F25732F25732F63DB
:102C60006D642F726571756573742F2B222C300D76
:102C70000A0000002B4D51545453554241434B3AE6
:102C800000000000402200208402002041542B4D0F
:102C90005154545355423F0D0A00000070B5F6A13F
:102CA000F948FDF7FDFAF9490860F3A1F648FDF788
:102CB000F7FAF7490860F74AF7A1F4480068FDF70A
:102CC00017FB0020F64908600121880701F044FB4A
:102CD0001BE0E9A1EC48FDF7E3FAEC490860E6A146
:102CE000E948FDF7DDFAEA490860EA4AEAA1E7485F
:102CF0000068FDF7FDFAEA48006843F2C8218842FF
:102D000003D10020E649086005E0E6A1E148FDF7AF
:102D1000E0FA0028DDD100BF00214FF0804001F033
:102D20001BFBDB48006801F0A1FEDEA1D948FDF7DE
:102D3000D0FA00287DD1FFF71FFAD548006864302B
:102D4000DC490860084600681730DB49086008461F
:102D500000681C30D9490860D94800210160818091
:102D6000D8480160416081600020D74908702EE09A
:102D7000D1480068D4490978405C612806DBCE4818
:102D80000068D1490978405C7A280DDDCA4800689E
:102D9000CD490978405C412814DBC7480068CA491E
:102DA0000978405C5A280DDCC3480068C649097898
:102DB000405CC349C54A12788854C4480078401C16
:102DC000C2490870C0480078401CBF490870BA4822
:102DD0000068FDF777FABC4909788842C8D8002016
:102DE000BA490870B849087020E0B4480068B6498C
:102DF0000978405C302814DBB0480068B249097893
:102E0000405C39280DDCAD480068AF490978405C6A
:102E1000AC49AE4A12788854AC480078401CAB49A3
:102E20000870A9480078401CA7490870A3480068AA
:102E300000E0AAE2FDF746FAA34909788842D4D80F
:102E40000020A24908709E480078742830D19C4820
:102E5000407865282CD19A4880786D2828D19848E8
:102E6000C078702824D100209749087011E0954857
:102E700095490978405C30389549096801EB810132
:102E800000EB4100924908608F480078401C8E4951
:102E900008708C48FDF716FA8B4909788842E6D805
:102EA0008B4800688B49086000208949086064E20B
:102EB0008348007868282CD181484078752828D12B
:102EC0007F4880786D2824D100207F49087011E068
:102ED0007C487D490978405C30387D49496801EB80
:102EE000810100EB41007A49486077480078401C36
:102EF000754908707348FDF7E5F973490978884208
:102F0000E6D87348406873494860002070494860BB
:102F100033E26B480078642830D1694840787528DE
:102F20002CD167488078732828D16548C0787428E8
:102F300024D100206449087011E062486249097890
:102F4000405C30386249896801EB810100EB410047
:102F50005F4988605C480078401C5B4908705948AC
:102F6000FDF7B0F9584909788842E6D85848806892
:102F700058498860002056498860FEE15048007832
:102F80004D282CD14E484078512828D14C48807883
:102F9000732824D100204C49087011E049484A495F
:102FA0000978405C30384A49C96801EB810100EB7F
:102FB00041004749C86044480078401C42490870B5
:102FC0004048FDF77FF9404909788842E6D84048F3
:102FD000C0684049C86000203D49C860CDE138481C
:102FE0000078542830D13648407856282CD13448BF
:102FF00080784F2828D13248C078432824D1002037
:103000003149087011E02F482F490978405C303869
:103010002F49096901EB810100EB41002C4908614E
:1030200029480078401C284908702648FDF74AF9CD
:10303000254909788842E6D825480069254908616C
:1030400000202349086198E11D480078432864D195
:103050001B4840784F2860D11948807874285CD18B
:103060001748C078772858D1154800796F2854D16F
:1030700000201549087041E02B4D515454505542E1
:103080004C4953483A000000402200208C020020A6
:1030900088020020BC1B0020255B5E3A5D0000001A
:1030A000900200202B4D5154545055424C495348E6
:1030B0000000000094020020980200209C020020E2
:1030C000A0020020C61B0020A6020020A7020020AC
:1030D0009800002068000020AD48AE490978405CA7
:1030E0003038AD49496901EB810100EB4100AA4943
:1030F0004861A8480078401CA6490870A448FDF71C
:10310000E1F8A44909788842E6D8A3484069A34970
:1031100048610020A04948612FE1A148007870284B
:1031200042D19F48407868283ED19D4880786F28DA
:103130003AD19B48C0786E2836D1994800796528E5
:1031400032D10020934908701CE09349D1E908016D
:103150000A230024A0FB032501FB035100FB0414F8
:103160008B488C490978405CA0F13001CB1751188D
:1031700044EB0300884AC2E9081086480078401CE6
:10318000844908708248FDF79DF882490978884291
:10319000DBD88148D0E90810804AC2E90810002035
:1031A0007D4A10625062E8E07D480078722824D1A0
:1031B0007B484078652820D1794880786C281CD1DC
:1031C0007748C078612818D175480079792814D1DA
:1031D0006F480078302803D06D480078312804D13A
:1031E0006B48007830386C4908766B48007E6B4934
:1031F0000876002068490876BFE0694800784128D1
:1032000020D16748407853281CD1654880785228DF
:1032100018D15F480078302803D05D480078312805
:1032200005D15B48007830385B4981F82A005A485C
:1032300090F82A00594981F82A000020564981F85F
:103240002A009AE0564800784C2820D1544840780B
:1032500045281CD152488078442818D14C48007821
:10326000302803D04A480078312805D148480078F2
:103270003038494981F82800474890F828004749E4
:1032800081F828000120444981F8280075E044486D
:103290000078422824D142484078452820D140482F
:1032A000807845281CD13E48C078502818D138482D
:1032B0000078302803D036480078312805D13448CA
:1032C00000783038344981F82900334890F82900D3
:1032D000324981F8290000202F4981F829004CE06B
:1032E0002F4800784D2820D12D4840784C281CD1FB
:1032F0002B488078472818D125480078302803D0FB
:1033000023480078312805D12148007830382249F7
:1033100081F82B00204890F82B00204981F82B00E1
:1033200000201D4981F82B0027E01D4800784F2818
:1033300023D11B4840784C281FD119488078452854
:103340001BD11748C078442817D11148007830287D
:1033500003D00F480078312805D10D480078303867
:103360000D4981F82C000C4890F82C000B4981F88D
:103370002C000020084981F82C0009480021016038
:1033800081800348016041608160FEF793F870BD61
:10339000C61B0020A6020020980000206800002024
:1033A000A002002000B587B001214FF4047000F0A6
:1033B000BFFB4FF4004000F08FFB0420ADF8040089
:1033C00000208DF8070003208DF8060001A9184899
:1033D000FEF7A2FB1748FDF7DDFE002002908DF8F6
:1033E0000C008DF80D004FF4602004900020059033
:1033F00001208DF8180002A90E48FDF71BFF0121DE
:103400000C48FDF7BCFE0B48FDF798FF00BF0948CC
:10341000FDF705FF0028FAD10648FDF79FFF00BF22
:103420000448FDF7E5FE0028FAD107B000BD000012
:1034300000100140002401402DE9FF5F14210C2001
:10344000FEF71CFC03900398FDF737FA0646334954
:10345000FDF732F805464FF08B41FDF75FF8044663
:103460002046FDF767FA07462D4A2E4BFDF794F8E4
:10347000054600222C4BFDF736F98246FDF73BFA54
:103480000090FDF711FA29490190FDF747F804462D
:1034900021462248FDF70AF806462146FDF73EF888
:1034A00005462349FDF708F802902248006840F6D7
:1034B000B831884215D200221F4B4FF080401F497F
:1034C00002F0A0FB05460E460298FDF733FA0746C8
:1034D0002A463346FDF779F98246FDF757FA18492F
:1034E0000860174801680298FDF718F80190FDF789
:1034F00021FA07464FF08042124B02F083FB05464B
:103500004FF08042104BFDF7EEF88246FDF73EFA91
:103510008146484604B0BDE8F09F00003333534075
:103520007B14AE47E17A743F000059400000C84266
:103530000000A040B0020020B6DBDEBF24AEA03FFA
:10354000AC0200208D9700C0332F834000BFFEE700
:10355000704708B54FF4C06000F060F806208DF8A1
:10356000000001208DF801008DF802008DF80300A5
:10357000684600F01BF828208DF80000684600F02F
:1035800015F808BD08B54FF4A06000F047F83520E5
:103590008DF8000001208DF801008DF802008DF8F3
:1035A0000300684600F002F808BD000070B5002175
:1035B00000230F22C47804B3154C246804F4E0649B
:1035C000C4F5E064210AC1F10403CA40447804FA56
:1035D00003F184781440214309010E4C0678A1556B
:1035E000047804F01F050124AC4005786D11AD008E
:1035F00005F1E025C5F8004109E0047804F01F0555
:103600000124AC40044D0678761145F8264070BD83
:103610000CED00E000E400E080E100E0024901433D
:10362000024A1160704700000000FA050CED00E04E
:1036300070B5002418E004F1B000002100F0F9F9A1
:103640000021084600F0F5F90021102000F0F1F902
:10365000002505E00121002000F0EBF9681CC5B24F
:10366000802DF7DB601CC4B2082CE4DB70BD0000C9
:1036700008B50121042000F05BFAA020ADF800009D
:1036800010208DF8030003208DF8020069463C48A5
:10369000FEF742FAA0213A48FEF7D4FA4FF44870F8
:1036A00002F0F4F80021AE2000F0C3F90021084632
:1036B00000F0BFF90021102000F0BBF900214020EC
:1036C00000F0B7F90021B02000F0B3F9002181200B
:1036D00000F0AFF90021FF2000F0ABF90021A1209C
:1036E00000F0A7F90021A62000F0A3F90021A820EE
:1036F00000F09FF900213F2000F09BF90021C82035
:1037000000F097F90021D32000F093F9002108463A
:1037100000F08FF90021D52000F08BF900218020E6
:1037200000F087F90021D82000F083F9002105205E
:1037300000F07FF90021D92000F07BF90021F12071
:1037400000F077F90021DA2000F073F9002112204F
:1037500000F06FF90021DB2000F06BF90021302030
:1037600000F067F900218D2000F063F9002114209A
:1037700000F05FF90021AF2000F05BF908BD000008
:103780000008014070B504460D4605F1B000002167
:1037900000F04FF9102141EA1410002100F049F91E
:1037A00004F00F00002100F044F970BD2DE9F0474E
:1037B00007460E469046994600250024A8F12000B1
:1037C000C5B27F2F02DD0027B01CC6B2B9F1100FC1
:1037D00024D131463846FFF7D5FF002408E004EB3A
:1037E0000511194A505C012100F023F9601CC4B294
:1037F000082CF4DB701CC1B23846FFF7C3FF00246D
:1038000009E004EB051108310F4A505C012100F07A
:1038100010F9601CC4B2082CF3DB12E031463846C4
:10382000FFF7B0FF00240AE005EB4501074A02EB71
:103830004101085D012100F0FCF8601CC4B2062CB7
:10384000F2DBBDE8F08700001A800008F27D000876
:103850002DE9FF5F074691461E460E9D4FF0000A78
:10386000002435E0301B401EC1B20A2002F03BF9B3
:10387000B9FBF0F00A21B0FBF1F201FB1208BAF13A
:10388000000F14D1701EA04211DDB8F1000F0CD151
:10389000AB4605EBDB71491001FB0471C8B22B4646
:1038A00020220199FFF782FF10E04FF0010AAB469A
:1038B00005EBDB71491001FB0471C8B208F130015E
:1038C000CAB22B460199FFF771FF00BF601CC4B25A
:1038D000B442C7DBBDE8FF9F2DE9F04104460F4627
:1038E0001546984600260FE0AA5D43463946204615
:1038F000FFF75CFF04F10800C4B2782C02DD00245D
:10390000B81CC7B2701CC6B2A85D0028ECD1BDE8D7
:10391000F0812DE9FF4F87B0074691461E46DDE94D
:1039200014A54846FCF7CEFF0590002435E0301B77
:10393000401EC1B20A2002F0D6F80599B1FBF0F0A2
:103940000A21B0FBF1F201FB12080698A0B9701E23
:10395000A04211DDB8F1000F0CD105EBD571491073
:1039600001FB0471C8B22B46202204950899FFF789
:103970001DFF10E00120069005EBD571491001FBF9
:103980000471C8B208F13001CAB22B4604950899F7
:10399000FFF70CFF00BF601CC4B2B442C7DB05EBED
:1039A000D571491001FB0671C8B22B462E22049531
:1039B0000899FFF7FBFE51460A2002F094F80190A7
:1039C000FCF77BFF03900598FCF76EFF49460190DA
:1039D000FCF76FFD02900399FCF76EFD0490FCF775
:1039E00071FF834600241FE0AAEB0400401EC1B211
:1039F0000A2002F078F8BBFBF0F00A21B0FBF1F2EC
:103A000001FB120805EBD5714910A31901FB0371E5
:103A1000491DC8B208F13001CAB22B460495089975
:103A2000FFF7C4FE601CC4B25445DDDB0BB0BDE83B
:103A3000F08F70B504460D461DB1E0B201F0CCF830
:103A400002E0E0B201F0B2F870BD00001CB5FFF773
:103A5000EFFD102000901F48042300214269084612
:103A6000FFF7F6FE102000901A4804230321026994
:103A70000020FFF7EDFE10200221CDE900101548CF
:103A80000B46002102682320FFF743FF102002218C
:103A9000CDE900100F480B46032142682320FFF7B1
:103AA00038FF10200221CDE900100A48032300212D
:103AB000C2685020FFF72DFF10200221CDE9001031
:103AC00004480323194682685020FFF722FFFEF7BF
:103AD00053FB1CBD4000002001460020034A5068F3
:103AE00020F440400843506070470000001002403E
:103AF00029B1064AD2690243044BDA6104E0034A61
:103B0000D2698243014BDA61704700000010024025
:103B100029B1064A12690243044B1A6104E0034AC0
:103B200012698243014B1A61704700000010024085
:103B300029B1064A92690243044B9A6104E0034AA0
:103B400092698243014B9A61704700000010024065
:103B500029B1064AD2680243044BDA6004E0034A02
:103B6000D2688243014BDA607047000000100240C7
:103B700030B500210022002400232D4D6D6805F092
:103B80000C0121B1042905D0082923D105E0294DD4
:103B9000056022E0274D05601FE0254D6D6805F4A6
:103BA0007012234D6D6805F48034022505EB9242B6
:103BB0001CB9214D554305600BE01D4D6D6805F4A2
:103BC00000351DB11C4D5543056002E0194D5543AC
:103BD000056002E0174D056000BF00BF144D6D6821
:103BE00005F0F0010909154D6B5C0568DD40456085
:103BF0000F4D6D6805F4E061090A104D6B5C456876
:103C0000DD4085600A4D6D6805F46051C90A0B4DB1
:103C10006B5C4568DD40C560054D6D6805F440414D
:103C2000890B074D6B5CC568B5FBF3F5056130BDCD
:103C30000010024000127A0000093D00140000202C
:103C40002400002008B58020ADF8000001208DF888
:103C5000020004208DF8030069460248FDF75CFF6E
:103C600008BD00000010014008B58020ADF800003C
:103C700010208DF8030003208DF8020069460248E9
:103C8000FDF74AFF08BD00000010014008B5012102
:103C90001020FFF74DFF4020ADF8000010208DF8F8
:103CA000030003208DF8020069460548FDF734FF44
:103CB0008020ADF8000069460148FDF72DFF08BDE2
:103CC0000010014010B500200A490860FFF7CCFF42
:103CD00000200949C1F89C01142001F019FE0120BF
:103CE00004490860142001F013FE00200249C1F8C5
:103CF000980110BD980122420000224210B5002018
:103D00000A490860FFF7B0FF01200949C1F89C018A
:103D1000142001F0FDFD012004490860142001F089
:103D2000F7FD00200249C1F8980110BD9801224218
:103D30000000224270B505460024FFF783FF0026ED
:103D400019E0002011490860142001F0E1FD012074
:103D50000F49C1F898014FF6FF7000EA4404802132
:103D60000C48FDF764FF08B1601C84B2142001F018
:103D7000CFFD701CC6B2082EE3DB15B9FFF7BEFFFE
:103D800001E0FFF79FFF204670BD0000980122422E
:103D9000000022420010014070B50446FFF764FFA6
:103DA00000201449086000251EE0E00920B1012030
:103DB0001049091D086003E000200E49091D086034
:103DC0006006040E142001F0A3FD012009490860DB
:103DD000142001F09DFD00200749C1F8980114202E
:103DE00001F096FD681CC5B2082DDEDB142001F041
:103DF0008FFD70BD980122420000224210B5FFF7EE
:103E000033FF0120094908600949C1F898011420CD
:103E100001F07EFD002005490860142001F078FDC6
:103E200000200349C1F8980110BD00009C01224206
:103E30000000224210B5FFF717FF00200849086074
:103E40000849C1F89C01142001F062FD01200449D9
:103E500008600449C1F89C01142001F059FD10BD0F
:103E6000980122420000224210B50024FFF7EAFE2A
:103E70000120104908600A2001F04AFD01200E4986
:103E8000C1F898010A2001F043FD07E0601CC4B2AC
:103E9000FA2C03DDFFF7CEFF012010BD802107487B
:103EA000FDF7C5FE0028F1D10249091F086000BFD7
:103EB000F3E700009C012242000022420010014072
:103EC00010B5FFF7E3FE0321202000F025F810BD18
:103ED00070B5FFF793FFB120FFF75EFFFFF7C4FF58
:103EE0000120FFF727FF044624020120FFF722FFED
:103EF00004440120FFF71EFFC5B200BF24020120C9
:103F0000FFF718FF044424020020FFF713FF0444C6
:103F1000FFF790FF204670BD70B505460C46FFF7D1
:103F20006DFFB020FFF738FFFFF79EFF2846FFF731
:103F300033FFFFF799FF2046FFF72EFFFFF794FFAF
:103F4000FFF778FF642001F0A1FC70BD08B5802068
:103F5000ADF8000048208DF8030003208DF8020022
:103F600069460248FDF7D8FD08BD0000000C01407D
:103F700008B501210820FFF7DBFDC020ADF80000E7
:103F800010208DF8030003208DF8020069460548D3
:103F9000FDF7C2FD0120044908600449C1F89C01F5
:103FA00008BD0000000C01409881214200802142A0
:103FB00008B58020ADF8000010208DF80300032024
:103FC0008DF8020069460248FDF7A6FD08BD000015
:103FD000000C0140FEB504460D461646FEF71AF8E1
:103FE000002141EA4401C8B2FDF7E4FFFEF77CF886
:103FF0002C20FDF7DFFFFEF777F80620FDF7DAFF4C
:10400000FEF772F8FEF736F8322001F03FFCFEF7BB
:1040100001F8012101EB4401C8B2FDF7CBFFFEF727
:1040200063F828BBFDF79AFFADF80000FDF752FFDB
:10403000FDF794FFADF80200FDF74CFFFDF78EFF92
:10404000ADF80400FDF746FFFDF788FFADF8060068
:10405000FDF740FFFDF782FFADF80800FDF73AFFDE
:10406000FDF77CFFADF80A00FDF756FFFEF702F8FA
:10407000BDF80200BDF8001040EA01202880BDF81C
:104080000800BDF8061040EA01203080FEBD7047F0
:1040900010B500F001F810BD0CB5002001900090A3
:1040A0003348006840F480303149086000BF304830
:1040B000006800F4003000900198401C01900098C6
:1040C00018B90198B0F5A06FF1D12948006800F443
:1040D000003010B10120009001E000200090009815
:1040E000012843D12348006840F0100021490860AE
:1040F0000846006820F0030008600846006840F0A9
:10410000020008601A48406819494860084640683B
:1041100048600846406840F480604860084640684F
:1041200020F47C1048600846406840F4E81048607D
:104130000846006840F08070086000BF0C480068C6
:1041400000F000700028F9D00948406820F0030012
:10415000074948600846406840F00200486000BFD8
:104160000348406800F00C000828F9D10CBD00009D
:104170000010024000200240042808D14FF0E02146
:10418000096941F004014FF0E022116107E04FF0AE
:10419000E021096921F004014FF0E022116170472C
:1041A00010B502F015FD03F00BFB02F021FD10BD70
:1041B00010B51348006840F0010011490860084636
:1041C0004068104908400E494860084600680E499A
:1041D00008400B4908600846006820F48020086009
:1041E0000846406820F4FE0048604FF41F008860D5
:1041F000FFF74EFF4FF000600449086010BD00005B
:10420000001002400000FFF8FFFFF6FE08ED00E09E
:1042100010B50121880700F0ABF8002848D02548E8
:104220000068401C234908600121880700F091F8CC
:1042300020480068152811D01E48006840F6CD318E
:1042400088420BD01B48006841F28571884205D036
:104250001848006842F23D31884203D11648006890
:1042600002F07EFF1348006840F2F151884211D0FD
:104270001048006841F2A91188420BD00D4800682F
:1042800041F66151884205D00A48006842F619118A
:10429000884203D10948006802F062FF05480068BF
:1042A00042F6F561884203D10548006802F058FFE4
:1042B00010BD000090020020380000203C000020CB
:1042C0003400002010B50121064800F051F840B13B
:1042D0000121044800F03DF803480068401C0249F1
:1042E000086010BD00140040B00200207FB50546F4
:1042F0000C4601212020FFF7FBFBA8B2ADF804001B
:10430000ADF800400020ADF80600ADF802006946A7
:104310000D4800F047F8012211460B4800F039F82B
:104320000121094800F018F837208DF80C00002012
:104330008DF80D0002208DF80E0001208DF80F0081
:1043400003A8FFF733F97FBD00140040CA4302827F
:104350007047CA430282704721B1028842F00102CD
:10436000028004E002884FF6FE731A400280704714
:1043700030B50246002000230024158A05EA010317
:10438000958905EA010413B10CB1012000E0002079
:1043900030BD1AB183890B43838102E083898B434B
:1043A00083817047002202881D4B98420ED01D4B1E
:1043B00098420BD0B0F1804F08D01B4B984205D0EB
:1043C0001A4B984202D01A4B984204D14FF68F7381
:1043D0001A404B881A43174B984207D0164B984205
:1043E00004D04FF6FF431A40CB881A4302808B88D3
:1043F00083850B8803850A4B98420BD0094B984262
:1044000008D00E4B984205D00D4B984202D00D4B70
:10441000984201D10B7A0386012383827047000002
:10442000002C01400034014000040040000800401E
:10443000000C00400010004000140040004001400B
:10444000004401400048014010B540F225512C487D
:1044500000F047FA00283BD0294800F0FDFAC4B22A
:10446000F42C03D027480078012831D101202549B8
:104470000870F52C0BD02448B0F82E0122490C54BA
:104480000846B0F82E01401CA1F82E0120E0F52CC2
:104490001ED11D48B0F82E011B490C544FF4806109
:1044A0001A48FBF7F2FE1848B0F82E2101461748CB
:1044B000FBF7D2FE1448B0F82E011449A1F800040D
:1044C0000020104908701049A1F82E01FDF73CF8B2
:1044D00040F224410A4800F004FA78B1084800F09C
:1044E000BBFAC4B20848B0F82E0138B1064890F8BB
:1044F0002C0118B90120044981F82C0110BD0000DD
:10450000004C0040B4020020141600204417002084
:1045100000B585B001213020FFF70AFB0121080515
:10452000FFF7E6FA4FF48050ADF8100018208DF830
:10453000130003208DF8120004A91648FDF7ECFAC9
:104540000420ADF810008DF8130004A91248FDF7FF
:10455000E3FA4FF4165000900020ADF80400ADF8D7
:104560000600ADF80800ADF80C000C20ADF80A000C
:1045700069460A4800F004FAFFF704F8012240F205
:104580002551064800F0D7F90121044800F042F90E
:1045900005B000BD00100140001401400050004073
:1045A00010B520210E48FDF74BFB40F225510D4878
:1045B00000F097F998B10B4800F04EFAC4B22146CA
:1045C000084800F04EFA312C03D120210448FDF7B1
:1045D00037FB322C03D120210148FDF733FB10BDFE
:1045E000000C01400050004010B502F0BFF840F24E
:1045F00025511E4800F075F910B31C4800F02CFA44
:10460000C4B21B48008800F40040C8B918480088AC
:1046100000F4804060B10A2C03D0002014490880C7
:1046200020E01348008840F400401149088019E058
:104630000D2C06D10E48008840F480400C490880BB
:1046400010E00B480088C0F30D000A490C540848DC
:104650000088401C0649088008460088C72801DDFC
:104660000020088002F092F810BD000000380140E0
:10467000D60100202415002010B540F225510C4829
:1046800000F02FF990B10A4800F0E6F9C1B20948EC
:1046900002880088401C074B188007488154184640
:1046A0000088B92802DD00201946088010BD0000EE
:1046B00000440040BC020020402200201FB51348E7
:1046C00000F0B4F84FF4E13000900020ADF80400A1
:1046D000ADF80600ADF80800ADF80C000C20ADF800
:1046E0000A006946094800F04BF9012240F22551C1
:1046F000064800F020F9012240F22441034800F06E
:104700001AF90121014800F085F81FBD004800405A
:1047100008B54FF40060ADF8000004208DF80300E8
:1047200069460948FDF7F8F94FF48060ADF80000DC
:1047300003208DF8020018208DF803006946024816
:10474000FDF7EAF908BD0000000C014010B5002497
:1047500040F22551104800F0C4F830B10E4800F086
:104760007BF9C4B22046FDF72DFB40F224410A48F4
:1047700000F0B7F870B1084800F06EF9C4B207480D
:10478000808E38B1054890F8320018B901200349ED
:1047900081F8320010BD000000480040501B00208E
:1047A00010B500F01DF8FFF7B3FFFFF787FF00F02B
:1047B00003F8FDF7A5FA10BD08B527208DF8000015
:1047C00003208DF80100054880788DF80200012053
:1047D0008DF803006846FEF7E9FE08BDF0000020F2
:1047E00010B501210820FFF7A3F901218804FFF784
:1047F0007FF910BD10B504462146054800F031F997
:1048000000BF8021024800F05FF80028F9D010BDF9
:104810000048004021B1828942F40052828104E0C4
:1048200082894DF6FF731A408281704710B50446A5
:104830002048844209D101218803FFF789F900212A
:104840004FF48040FFF784F932E01B48844209D1DD
:1048500001214804FFF75CF900214FF40030FFF715
:1048600057F925E01548844209D101218804FFF752
:104870004FF900214FF48020FFF74AF918E0104863
:10488000844209D10121C804FFF742F900214FF405
:104890000020FFF73DF90BE00A48844208D10121CE
:1048A0000805FFF735F900214FF48010FFF730F9C4
:1048B00010BD0000003801400044004000480040A6
:1048C000004C00400050004002460020B1F5007F3F
:1048D00000D100BF13880B400BB1012000E0002085
:1048E000704770B50246002400230025002040F6E2
:1048F0006A16B14200D100BFC1F3421501F01F0397
:10490000012606FA03F3012D02D19689334006E011
:10491000022D02D1168A334001E0968A33400C12F0
:10492000012606FA04F41688344013B10CB10120B4
:1049300000E0002070BDF0B50346002400260025ED
:10494000002040F66A17B94200D100BF1846C1F3F3
:10495000421401F01F06012707FA06F5012C01D1C8
:104960000C3004E0022C01D1103000E014301AB1F8
:1049700007682F43076002E00768AF430760F0BD98
:104980002DE9F04786B005460E460024A24600BF3A
:10499000A1460027B08900B100BF2F462C8A4CF6F3
:1049A000FF700440F08804432C82AC894EF6F3106B
:1049B0000440B08831890843718908430443AC81BD
:1049C000AC8A4FF6FF400440B0890443AC8201A892
:1049D000FFF7CEF81F48874202D1DDF810A001E0B2
:1049E000DDF80CA0A88900F4004040B10AEBCA0031
:1049F00000EB0A1031684900B0FBF1F807E00AEB60
:104A0000CA0000EB0A1031688900B0FBF1F864209D
:104A1000B8FBF0F004012009642101FB1089A8898A
:104A200000F4004040B1322000EBC900B0FBF1F0CF
:104A300000F00700044308E0322000EB0910642175
:104A4000B0FBF1F000F00F0004432C8106B0BDE88C
:104A5000F08700000038014001468888C0F3080054
:104A60007047C1F308028280704700000BE000BF6E
:104A70000749098801F040010029F9D00178044A6A
:104A8000121D1180401C01780029F0D170470000F0
:104A90000038014010B58AB0144890F82500134939
:104AA00091F82410114A126A104BDB69CDE90532E6
:104AB000CDE907100D48807E0C49497E0B4A127ED5
:104AC0000A4B1B69CDE90132CDE903100748406963
:104AD000064C0090E368A26861682068FDF7D8FF83
:104AE000FEF7DCF8FDF748FB0AB010BD40000020DF
:104AF00010B58CB0164890F82C00154991F82B1081
:104B0000134A92F82920124B93F82830CDE9073246
:104B1000CDE909100E4890F82A0006900C48416A29
:104B2000006ACDE904010A48017E4069084A126919
:104B3000074CCDE900200291E368A2686168206813
:104B4000FEF708F8FEF7AAF8FDF716FB0CB010BD4B
:104B50006800002000BFFEE72DE9F04105462C4625
:104B600020211148FDF76CF8002619E0274607F0D0
:104B70008007802F04D180210B48FDF763F803E004
:104B800080210948FDF75CF86006040E20210648E4
:104B9000FDF758F820210448FDF752F8701CC6B202
:104BA000082EE3DBBDE8F0810008014010B50446A3
:104BB000FDF74CFA7820FFF7CFFFFDF789FA0020C8
:104BC000FFF7CAFFFDF784FA2046FFF7C5FFFDF7A0
:104BD0007FFAFDF76DFA10BD10B50446FDF736FA01
:104BE0007820FFF7B9FFFDF773FA4020FFF7B4FF15
:104BF000FDF76EFA2046FFF7AFFFFDF769FAFDF704
:104C000057FA10BD0FB4054B10B503A9044A02981A
:104C100000F0B0F910BC5DF814FB00006959000801
:104C2000B80200207CB5044600201D461646002927
:104C30000BD0491ECDE90041044B6A462946304657
:104C400000F098F9009A002111707CBD9957000876
:104C5000490050EAC12018BF04204A0D18BF40F097
:104C6000010040F2FF72B2EB515F08BF40F002005A
:104C7000012808BF052070472DE9F0414F1E00EBC9
:104C8000C7010446D1E9000115461E4637F0060269
:104C90000DD02A463346FBF726FD7F1E04EBC703E3
:104CA000D3E90023FBF778FC37F00602F1D1022F9D
:104CB00025D0042F13D0062F18BFBDE8F0812A4657
:104CC0003346FBF710FDD4E90A23FBF765FC2A46BF
:104CD0003346FBF708FDD4E90823FBF75DFC2A46C1
:104CE0003346FBF700FDD4E90623FBF755FC2A46C3
:104CF0003346FBF7F8FCD4E90423FBF74DFC2A46C6
:104D00003346FBF7F0FCD4E90223FBF745FC2A46C7
:104D10003346FBF7E8FCD4E90023BDE8F041FBF79C
:104D20003BBC00000022134610460149FBF74DBD75
:104D30000000F03FFBF730BC00221346104611463E
:104D4000FBF743BD40F2013200204FF0E041FBF79A
:104D50008DBF0000024A00201107FBF787BF00004B
:104D600001FDFFFF014609B900207047C8B220B11C
:104D7000C8B20E4A105C401CF7E701F47F4028B12E
:104D80000A48C1F30722805C0930EEE701F47F0096
:104D900028B10648C1F30742805C1130E5E70348BB
:104DA00000EB116000781930DFE70000D07C0008CC
:104DB00002E008C8121F08C1002AFAD170477047E4
:104DC000002001E001C1121F002AFBD17047000042
:104DD0000149086070470000C00200202DE9FF5F14
:104DE00082B00021DDE90430020DDDF840B003435C
:104DF00018D044F61050A2F2FF3242431514119815
:104E000001281FD0A5EB0B00401C5FEA000A4FF001
:104E100000064E4FDFF83891B046504615D5CAF11E
:104E2000000413E0119801244AA3012801D16FEA7C
:104E30000B010298119AC0E90031C0E9024206B0A4
:104E4000BDE8F09FCBF10000DFE704460021404AB7
:104E5000491842EB0450CDE9001012E0E00707D0FA
:104E600032463B4640464946FBF73DFC8046894674
:104E700032463B4610461946FBF735FC06460F46C0
:104E80006410002CEAD1DDE90401DDE90023BAF168
:104E9000000F06DAFBF727FC42464B46FBF723FCE4
:104EA00005E0FBF792FC42464B46FBF78EFC0446BE
:104EB0000E460022284BFBF751FD03D84FF0FF3080
:104EC000014607E00022254B20463146FBF764FBF4
:104ED000FBF7F4FE102409E0002C0ADB0A22002371
:104EE000FBF79AFD039B30321A55641E50EA01020B
:104EF000F2D1641C039AC4F111031444119A012ADB
:104F000003D0012208430DD10AE0084304D0002059
:104F10004FF0110B119072E7A3EB0B056D1E0DE026
:104F20005B4504DD4FF0000205F1010504E003DA02
:104F30004FF00002A5F10105002AECD0029811996A
:104F4000C0E90231C0E9004579E7000000001440E3
:104F50000000F03F300000000000F0430000E03FA0
:104F600003490868884201D0012070470020FCE70F
:104F7000AC0100202DE9FF4F95B09B4689460646BF
:104F800000250FE2252877D100242746F84A012181
:104F9000059400E0044316F8013F203B01FA03F0BA
:104FA0001042F7D130782A2811D06FF02F033078D3
:104FB000A0F13002092A16D8059A44F0020402EB47
:104FC000820203EB42021044761C0590EFE759F889
:104FD000042B0592002A03DA504244F40054059051
:104FE00044F00204761C30782E2816D116F8010FF2
:104FF00044F004042A280DD06FF02F023078A0F17D
:105000003003092B09D807EB870302EB4303C718CA
:10501000761CF3E759F8047B761C30786C280FD0A7
:1050200006DC4C2817D068280DD06A2814D104E07B
:10503000742810D07A280FD10DE044F400140AE04F
:1050400044F4801401E044F440147278824202D1A6
:1050500004F58014761C761C307866280BD013DC9F
:10506000582877D009DC002875D04528F6D0462886
:10507000F4D047281AD19DE118E0632835D0642880
:1050800079D0652812D195E1702873D008DC6728A3
:10509000F1D069286FD06E280DD06F2806D1B5E009
:1050A00073282CD0752875D0782874D05A46179953
:1050B00090476D1C75E1C4F30250022809D0032803
:1050C0000DD0D9F8001004280DD00D6009F10409A5
:1050D00067E1D9F80010EA17C1E90052F6E7D9F8FC
:1050E00000100D80F2E70D70F0E719F8041B8DF841
:1050F000001000208DF80100EA46012003E059F875
:1051000004AB4FF0FF3061074FF0000102D40DE017
:1051100008F101018846B9420FDA8045F8DB1AF838
:1051200008100029F4D108E008F101018846814205
:10513000FADB1AF808100029F6D105985B46A0EBB7
:10514000080721463846179A00F094FA284400EBE5
:10515000080507E04DE029E10DE01AF8010B5A4679
:1051600017999047B8F10108F7D25B4621463846B7
:10517000179A13E142E00A220092C4F302524FF060
:10518000000A022A08D059F804CB032A4FEAEC712E
:105190000AD00DE029E02AE009F1070121F0070219
:1051A000F2E802C1914609E00FFA8CFC4FEAEC717B
:1051B000042A03D14FFA8CFC4FEAEC71002907DA7C
:1051C0000A460021DCF1000C61EB02012D2202E015
:1051D000220504D52B228DF80420012203E0E207EA
:1051E00001D02022F7E7904659E00A2102E0102280
:1051F0000DE010214FF0000A00910BE010224FF05B
:10520000000A44F004040827009203E008224FF04B
:10521000000A0092C4F30252022A05D059F804CBC6
:105220000021032A08D009E009F1070121F0070253
:10523000F2E802C1914605E01FFA8CFC042A01D174
:105240000CF0FF0C4FF00008220728D5702806D07C
:10525000009B83F0100353EA0A0305D00EE04022BE
:105260008DF80420012208E05CEA010206D0302219
:105270008DF804208DF8050002229046009B83F0F3
:10528000080353EA0A030AD15CEA010201D162076A
:1052900005D530228DF804204FF001087F1E5828D4
:1052A00004D034A003900EA802900DE036A0F9E7D8
:1052B00053466046009AFBF7AFFB84460398825C36
:1052C0000298401E029002705CEA0100F0D1029840
:1052D00006A9081A00F1200A600702D524F48034D8
:1052E00000E00127574502DDA7EB0A0000E000209F
:1052F00000EB0A01009005984144401A0590E00334
:1053000006D45B462146179A059800F0B3F9054488
:10531000002706E001A85A46C05D179990476D1C0A
:105320007F1C4745F6DBE0030CD55B462146179A08
:10533000059800F09FF9054404E030205A4617997B
:1053400090476D1C0099481E00900029F5DC08E08C
:10535000029802995A460078491C02911799904781
:105360006D1CBAF10001AAF1010AF1DC65E100004F
:10537000092801003031323334353637383961622B
:1053800063646566000000003031323334353637EF
:1053900038394142434445460000000000F058F9C6
:1053A0000544761C307800287FF4ECAD19B028460F
:1053B000BDE8F08F620700D4062709F1070222F04A
:1053C000070CFCE80223E14603F000485FEA080C02
:1053D00002D00FF2702C0DE05FEA045C02D50FF2F0
:1053E000682C07E05FEAC47C02D00FF2602C01E079
:1053F000AFF2700C4FF0FF3823F00043CDF850C0EF
:1054000065280CD006DC452809D046281DD0472841
:105410003DD13DE0662818D067287ED138E00021D4
:10542000112F01DB112000E0781CCDE9000106A955
:105430000EA8FFF7D3FCDDE90F010E9A03910021BE
:10544000009207F1010A04914DE04FF000400097EF
:10545000CDE9011006A90EA8FFF7C0FCDDE90F0297
:1054600003920E9B11990022DDF80CA00093049288
:1054700011B9791C00EB010AB7EB0A0004D4C0F1A2
:10548000FF3007F1010A0490AAEB0700019044E005
:10549000012F00DA01270021112F01DD112000E08A
:1054A0003846CDE9000106A90EA8FFF797FCDDE913
:1054B0000F010E9A0391002104910092BA46210730
:1054C0000CD40399514500DA8A46BAF1010F05DD83
:1054D000009AAAF10101515C302908D0B84202DAE1
:1054E00010F1040F06DA0121CDE9011015E0AAF14F
:1054F0000101E9E7002805DC049901440491AAEBC5
:10550000000102E0411C514500DD8A460499401A21
:10551000401C01904FF000400290200704D40198F5
:10552000504501DBCDF8048000208DF84F00029833
:105530000DF14F07B0F1004F25D02B200E900298AF
:105540004FF0020800280CDA404202902D200E9005
:1055500007E00A210298FBF749FA3031029007F878
:10556000011DB8F10001A8F10108F2DC0298002841
:10557000EFD1791E0E980870307800F0200040F0CE
:10558000450007F8020D12A8C01B00F10708149887
:10559000007800B1012000EB0A01019801EBE071F5
:1055A00005984144401A401E0590E00306D45B462E
:1055B0002146179A059800F05DF805441498007884
:1055C00018B15A46179990476D1CE00324D55B46E5
:1055D0002146179A059800F04DF805441CE0049800
:1055E000002807DBDDE90301884203DD0098405C09
:1055F000179901E0179930205A469047049805F111
:105600000105401C04900198401E019004D12E20F9
:105610005A46179990476D1CBAF10001AAF1010A88
:10562000DDDC05E017F8010B5A46179990476D1C11
:10563000B8F10001A8F10108F4DC5B462146179A95
:105640000598ABE62D0000002B00000020000000B4
:105650002DE9F041044600251E461746880404D46F
:1056600005E039462020B0476D1C641EF9D5284658
:10567000BDE8F0812DE9F041044600251E46904624
:10568000C80301D5302700E02027880404D505E0B1
:1056900041463846B0476D1C641EF9D52846BDE822
:1056A000F08100002DE9FC5F04468B4615461E463E
:1056B000DDE90C9ADDE90E7804F114004060006029
:1056C00000BF1C346560A660C4F80C90C4F810A03C
:1056D0002321D4E9030201F0F9FBD4E9033C63443C
:1056E0001A1F0F4BD4E9010101F04CFA2060A77694
:1056F00067760020E061C4F82880C4F82C806061DF
:105700002076E06520661C3C00902346054A214631
:10571000019004F14C0002F0D5F80020BDE8FC9F98
:10572000E5740008317700082DE9F04704460E467D
:1057300017469846DDF8209084F80990607A20F0AA
:1057400001006072E66127620020A062C4F8248034
:10575000002506E004F1140101EBC50001F0BEFADA
:105760006D1C012DF6DBBDE8F08710B50246002068
:1057700001460EE002F1140303EBC100D0E900433F
:105780006360D0E9003423604060006000BF481CC3
:1057900001460129EEDB10BD4A68002A06D00A68DE
:1057A000531C0B6010704868401E48607047000032
:1057B0000024FCF77FFD0848006801F0D1FC0AE0F6
:1057C0004FF0FF310448006801F0E7FC1CB9FFF717
:1057D00061F9FFF78DF9F3E73400002010B51349A4
:1057E000081FFBF7C2FD11491039081FFBF7D0FD58
:1057F000FCF72EF90D4914398860FDF71DFE0B49A1
:105800001439C8600A480078887609484078C86129
:105810000748C07808624FF480710648FCF707FA21
:1058200018B1012001491439487610BDDC00002070
:10583000461B00200010014070B504466FF00400C4
:10584000FEF79AFCE11704EB5171C1F3C7010D4A51
:105850001170E11704EB5171CD104FF47A7045438C
:105860000120094908804FF0E020006940F0020063
:105870004FF0E021086108464561006940F00100F1
:10588000086170BDD0010020D201002070B504462F
:105890000F480078A0B10F48007888B90E480088FA
:1058A000844206DB0C48008894FBF0F5284600F0A3
:1058B0001DF80948008894FBF0F100FB114084B208
:1058C0004FF47A7104FB01F000F022F870BD000083
:1058D000D401002000010020D201002010B500F00A
:1058E00045FF10BD10B500F051FF10BD10B50446C6
:1058F000204601F0F0FD10BD70B50446002504E01F
:105900004FF47A70FFF7C2FF641EA542F8D370BD52
:105910002DE9F047074600264FF0E020D0F814901C
:105920001048007807FB00F8FFF7D8FF4FF0E020A1
:10593000856911E04FF0E0208469AC420CD0AC42A4
:1059400002D2281B064403E0A9EB040028440644C5
:105950002546464500D300E0ECE700BFFFF7C2FF55
:10596000BDE8F087D001002000BF054A128802F090
:105970004002002AF9D0C2B2014B1B1D1A807047A9
:10598000004400401CB50022114630A001F0C0FBCD
:10599000334908600846006810B132A001F080F970
:1059A0000022114634A001F0B3FB374908600846D5
:1059B000006810B12BA001F073F90022114633A04A
:1059C00001F0A6FB344908600846006810B125A024
:1059D00001F066F914200421CB010022CDE900106A
:1059E0002E492FA001F04FFD31490860084600689C
:1059F00018B10846006801F063FE14200421CB01B1
:105A00000022CDE900102B492BA001F03CFD2C49D0
:105A100008600846006818B10846006801F050FEAA
:105A200014200421CB010022CDE90010254926A035
:105A300001F029FD274908600846006818B10846AA
:105A4000006801F03DFE00201CBD0000636F6D6D1D
:105A5000756E69636174696F6E5F73656D000000D8
:105A600034000020D0C5BAC5C1BFB4B4BDA8B3C905
:105A7000B9A6A3A10A0A00007265636F676E697414
:105A8000696F6E5F73656D003800002073656E731B
:105A90006F725F73656D00003C000020B157000815
:105AA000636F6D6D756E69636174696F6E00000080
:105AB00028000020597A000873656E736F72000029
:105AC0002C000020ED6600087265636F676E6974D4
:105AD000696F6E003000002010B5044600F038FEFB
